:100000000C942C1B0C945D1B0C945D1B0C945D1BC1
:100010000C945D1B0C945D1B0C945D1B0C945D1B80
:100020000C945D1B0D941D200D946B200D944420A9
:100030000C945D1B0C94D68C0C945D1B0C945D1B76
:100040000C945D1B0D9432140C945D1B0C945D1B81
:100050000C945D1B0C945D1B0C9421E10D94C42148
:100060000C945D1B0C94E03E0C945D1B0C945D1B8A
:100070000C945D1B0C945D1B0C945D1B0C945D1B20
:100080000C945D1B0C945D1B0C945D1B0C945D1B10
:100090000C945D1B0C945D1B0C945D1B0C945D1B00
:1000A0000C945D1B0C945D1B0C945D1B0C945D1BF0
:1000B0000C945D1B0C945D1B0C945D1B0C945D1BE0
:1000C0000C945D1B0C945D1B0C945D1B0C945D1BD0
:1000D0000C945D1B0C945D1B0C945D1B0C945D1BC0
:1000E0000C945D1B1AB006B009B00CB028B015B066
:1000F00003B026B00FB012B046B049B038B03CB033
:1001000042B080B04DB051B057B05BB05FB065B099
:1001100069B06DB080B073B077B07BB0E000F00034
:10012000CA00E400F200C600CC00F400D200D00007
:10013000EA00D800F600D400C600CE00E800DE00D9
:10014000084AD73B3BCE016E84BCBFFDC12F3D6C3E
:1001500074319ABD56833DDA3D00C77F11BED9E4A4
:10016000BB4C3E916BAAAABE000000803F05A84C84
:10017000CDB2D44EB93836A9020C50B99186880850
:100180003CA6AAAA2ABE000000803F000D94772159
:100190000D94BA0E0D94EA200D9408210D94592166
:1001A0000D9422210D9418210D944F210D94BD1111
:1001B0000D9436210D94A90E0D94DA180D946D212D
:1001C0000D94E0200D94E1300D94F4200D94C111B4
:1001D0000D9463210D942C210D94C4110D94B4251C
:1001E0000D94E5200D94FE200D9410210D944521D1
:1001F0000D94BC0E0D94BE116E616E00696E6600AA
:100200004E414E494E495459494E46CDCCCC3D0AFB
:10021000D7233C17B7D13877CC2B329595E6241FDE
:10022000B14F0A000020410000C84200401C462097
:10023000BCBE4CCA1B0E5AAEC59D7400407A10F36A
:100240005A00A0724E18090010A5D4E80000E87604
:1002500048170000E40B54020000CA9A3B0000005B
:10026000E1F505000080969800000040420F000074
:1002700000A08601000000102700000000E8030035
:100280000000006400000000000A000000000001FF
:1002900000000000002C76D888DC674F0823DFC1FF
:1002A000DFAE59E1B1B796E5E3E453C63AE65199BA
:1002B0007696E8E6C28426EB898C9B62ED407C6FE3
:1002C000FCEFBC9C9F40F2BAA56FA5F490055A2A9A
:1002D000F75C936B6CF9676DC11BFCE0E40D47FEA6
:1002E000F520E6B500D0ED902E030094357705009B
:1002F00080841E080000204E0A000000C80C333322
:1003000033330F986E12831141EF8D2114893BE630
:100310005516CFFEE6DB18D1844B381BF77C1D90B9
:100320001DA4BBE424203284725E228100C9F12422
:10033000ECA1E53D27434F4D4D554E4943415449AE
:100340004F4E0044525952554E004552524F52534F
:1003500000494E464F004543484F0047322F473330
:100360002062616420706172616D65746572730AE8
:1003700000536C6565702E2E2E00205A3A20002006
:10038000593A200042656420583A20004D65736850
:1003900020706F696E742063616E6E6F7420626589
:1003A000207265736F6C7665640A00436C69636BD9
:1003B00020746F20726573756D652E2E2E004E6F42
:1003C000206D6F76652E00456E642066696C652031
:1003D0006C6973740A00426567696E2066696C65B2
:1003E000206C6973740A004D31323500286E6F201D
:1003F00066696C6529005344207072696E74696E79
:1004000067206279746520004E6F74205344207019
:1004100072696E74696E670A0043757272656E74F4
:100420002066696C653A20002569730025696D2096
:10043000256973002569682025696D202569730089
:10044000256964202569682025696D202569730068
:1004500025697920256964202569682025696D2032
:10046000256973005072696E742074696D653A2055
:1004700000560351034A03430335036F6666004485
:10048000454255473A004B494C4C45442E20004DBF
:100490003131332053006F6B0050727573612069E6
:1004A00033204D4B33204F66662E002C20002C202D
:1004B00000544845524D414C5F50524F54454354AF
:1004C000494F4E004155544F5245504F52545F537F
:1004D000445F53544154555300454D455247454E92
:1004E00043595F50415253455200434153455F4C7D
:1004F000494748545F4252494748544E4553530078
:10050000544F47474C455F4C494748545300534F5D
:100510004654574152455F504F5745520042554946
:100520004C445F50455243454E54004C4556454C53
:10053000494E475F44415441005A5F50524F424533
:10054000004155544F4C4556454C005052494E546D
:100550005F4A4F420050524F475245535300415556
:10056000544F5245504F52545F54454D5000564FD2
:100570004C554D455452494300454550524F4D004E
:1005800053455249414C5F584F4E5F584F464600C5
:100590004649524D574152455F4E414D453A4D6196
:1005A000726C696E20312E312E39202847697468AB
:1005B00075622920534F555243455F434F44455F71
:1005C00055524C3A68747470733A2F2F6769746887
:1005D00075622E636F6D2F4D61726C696E46697224
:1005E0006D776172652F4D61726C696E2050524F4C
:1005F000544F434F4C5F56455253494F4E3A312E5C
:1006000030204D414348494E455F545950453A507A
:1006100072757361206933204D4B33204558545215
:10062000554445525F434F554E543A312055554934
:10063000443A63656465326132662D343161322D2E
:10064000343734382D396231322D633535633632E3
:100650006633363766660A002F2F20004D31343559
:1006600020533C696E6465783E206F7574206F6618
:100670002072616E67652028302D31290A002054D0
:1006800000205200416363656C65726174696F6E2E
:100690003A2050003F4A206F7574206F66207261C7
:1006A0006E67652028302E303120746F20302E3355
:1006B000290A0020466C6F773A2000000125311D81
:1006C00040FFFFFF2924301C45FFFFFF27232F1B7E
:1006D0000AFFFFFFFF43FFFF0406FFFFFF222B1A65
:1006E000FFFF42043803083650726F6265205A20BB
:1006F0004F66667365743A200043290A0061626C94
:10070000656420286D696E2074656D702000436FEC
:100710006C642065787472756465732061726520FD
:100720000020643A0020693A0020703A004E6F20A1
:1007300063617365206C696768740A0045455052AF
:100740004F4D204F4B0A003F5A206F7574206F6643
:100750002072616E676520282D323020746F203240
:1007600030290A003A200050726F6265205A204FEB
:100770006666736574003F4B2076616C7565206F0B
:100780007574206F662072616E67652028302D3188
:1007900030292E0A00416476616E6365204B3D006E
:1007A0004163746976652045787472756465723A40
:1007B0002000496E76616C69642065787472756496
:1007C00065720A004B494C4C45442E200053544F4F
:1007D000505045442E20005072696E74657220732B
:1007E000746F707065642064756520746F20657225
:1007F000726F72732E204669782074686520657266
:10080000726F7220616E6420757365204D393939BD
:1008100020746F20726573746172742E2028546581
:100820006D7065726174757265206973207265738D
:1008300065742E2053657420697420616674657236
:100840002072657374617274696E67290A004E6F55
:1008500020436865636B73756D2077697468206CDD
:10086000696E65206E756D6265722C204C617374C3
:10087000204C696E653A20004E6F20436865636BBB
:1008800073756D2077697468206C696E65206E756C
:100890006D6265722C204C617374204C696E653AF0
:1008A0002000636865636B73756D206D69736D619E
:1008B0007463682C204C617374204C696E653A2017
:1008C000004C696E65204E756D62657220697320FB
:1008D0006E6F74204C617374204C696E65204E7588
:1008E0006D6265722B312C204C617374204C696EE3
:1008F000653A20004D313130004D333100534420F2
:1009000072656164206572726F720A00446F6E6571
:10091000207072696E74696E672066696C650A0082
:1009200020496E76616C69642065787472756465BF
:1009300072200000000000000000009A99193E009B
:10094000005243000052430000524324F4D430507C
:10095000C38E20C2A24017828B7011127A910D8132
:100960006CD90AA861E108C7586607615143061EA1
:100970004B5D05C145A7041A411104093D98037157
:100980003931034036DB0265339102D430540280A2
:100990002E1D02632CEE01752AC501B028A001109E
:1009A0002781018F2564012B244B01E0223401AC07
:1009B000211F018D200D01801FFC00841EED00977A
:1009C0001DDF00B81CD200E61BC600201BBC006463
:1009D0001AB200B219A8000A19A0006A189900D129
:1009E00017910040178B00B516840031167E00B3B6
:1009F0001579003A157300C7146F0058146A00EE99
:100A00001366008813630025135E00C7125B006C39
:100A100012570015125400C111510070114F0021DE
:100A2000114B00D61049008D1047004610440002BB
:100A3000104200C00F4000800F3E00420F3C0006F5
:100A40000F3B00CB0E3800930E37005C0E350027AD
:100A50000E3400F30D3200C10D3100900D300060F6
:100A60000D2E00320D2D00050D2C00D90C2B00AEE3
:100A70000C2900850C29005C0C2700350C27000E82
:100A80000C2600E80B2400C40B2400A00B23007DDF
:100A90000B23005A0B2100390B2100180B2000F802
:100AA0000A1F00D90A1E00BB0A1E009D0A1D0080F5
:100AB0000A1D00630A1C00470A1B002C0A1B0011B8
:100AC0000A1A00F7091A00DD091900C4091900AB58
:100AD000091900920917007B091800630917004CD7
:100AE00009160036091600200916000A091500F536
:100AF000081500E0081400CC081400B8081400A47D
:100B0000081400900813007D0812006B08130058A9
:100B100008120046081200340811002308110012C0
:100B200008110001081100F0071000E0071000D0C4
:100B3000071000C0071000B0070F00A107100091B8
:100B4000070E0083070F0074070F0065070E00579C
:100B5000070E0049070E003B070D002E070E002070
:100B6000070D0013070D0006070D00F9060C00ED38
:100B7000060D00E0060C00D4060C00C8060C00BCF4
:100B8000060C00B0060C00A4060B0099060C008DA4
:100B9000060B0082060B0077060B006C060B00614B
:100BA000060A0057060B004C060A0042060A0038E7
:100BB000060A002E060A0024060A001A060A001079
:100BC00006090007060A00FD050900F4050900EB07
:100BD000050900E2050900D9050900D0050900C78B
:100BE000050900BE050900B5050800AD050800A50A
:100BF0000509009C050800940508008C0508008480
:100C00000508007C050800740508006C05070065F0
:100C10000508005D050700560508004E050700475A
:100C20000507004005080038050700310507002AC0
:100C3000050700230507001C050600160507000F21
:100C40000507000805060002050700FB040600F57D
:100C5000040700EE040600E8040600E2040700DBD7
:100C6000040600D5040600CF040600C9040600C32C
:100C7000040600BD040600B7040600B1040500AC7C
:100C8000040600A6040600A00405009B04060095C7
:100C9000040500900406008A040500850405008010
:100CA0000406007A04050075040500700405006B55
:100CB00004050066040500610405005C0405005796
:100CC000040500520405004D0405004804050043D6
:100CD0000405003E0404003A040500350405003014
:100CE0000404002C04050027040400230405001E4E
:100CF0000404001A04040016040500110404000D85
:100D0000040400090405000404040000040400FCB9
:100D1000030400F8030400F4030400F0030400ECEF
:100D2000030400E8030400E4030400E0030400DC1F
:100D3000030400D8030400D4030400D0030400CC4F
:100D4000030400C8030300C503030024F404D920EE
:100D50001BC40C5C0E9804C4095F0265077101F4A2
:100D600005F900FB04B30048048700C1036900587B
:100D700003550003034500BE023A008402310053CC
:100D8000022A002902250004022000E4011C00C8F8
:100D9000011900AF011700980114008401130071BC
:100DA0000110006101100051010E0043010D0036D9
:100DB000010B002B010B0020010B00150109000C99
:100DC00001090003010800FB000800F3000800EB24
:100DD000000700E4000600DE000600D8000600D28E
:100DE000000600CC000500C7000500C2000500BDDC
:100DF000000400B9000400B5000400B1000400AD17
:100E0000000400A9000400A5000300A20003009F45
:100E10000004009B0003009800030095000200936B
:100E2000000300900003008D0002008B0003008887
:100E30000002008600020084000300810002007F9F
:100E40000002007D0002007B0002007900020077B2
:100E500000010076000200740002007200010071BF
:100E60000002006F0002006D0001006C0002006AC9
:100E700000010069000200670001006600010065D2
:100E800000010064000200620001006100010060D6
:100E90000001005F0002005D0001005C0001005BDA
:100EA0000001005A000100590001005800010057DC
:100EB00000010056000100550001005400010053DC
:100EC00000000053000100520001005100010050D9
:100ED0000001004F0001004E0000004E0001004DD7
:100EE0000001004C0001004B0000004B0001004AD3
:100EF00000010049000100480000004800010047CF
:100F000000010046000000460001004500000045C9
:100F100000010044000100430000004300010042C2
:100F200000000042000100410000004100010040BB
:100F30000001003F0000003F0001003E0000003EB5
:100F40000001003D0000003D0001003C0000003CAD
:100F50000000003C0001003B0000003B0001003AA3
:100F60000000003A0001003900000039000100389B
:100F70000000003800000038000100370000003792
:100F80000001003600000036000000360001003588
:100F9000000000350000003500010034000000347E
:100FA0000000003400010033000000330000003373
:100FB0000001003200000032000000320001003168
:100FC000000000310000003100010030000000305E
:100FD000000000300001002F0000002F0000002F53
:100FE0000000002F0001002E0000002E0000002E47
:100FF0000001002D0000002D0000002D0000002D3C
:101000000001002C0000002C0000002C0000002C2F
:101010000001002B0000002B0000002B0000002B23
:101020000001002A0000002A0000002A0000002A17
:10103000000100290000002900000029000000290B
:1010400000000029000100280000002800000028FE
:1010500000000028000000280001002700000027F1
:1010600000000027000000270000002700010026E4
:1010700000000026000000260000002600000026D8
:1010800000010025000000250000002500000025CB
:1010900000000025000000250001002400000024BD
:1010A00000000024000000240000002400010023B0
:1010B00000000023000000230000002300000023A4
:1010C0000000002300000023000100220000002295
:1010D0000000002200000022000000220000002288
:1010E000000100210000002100000021000000217B
:1010F000000000210000002100000021000100206C
:10110000000000200000002000000020000000205F
:101110000000002000000020000000200001001F4F
:101120000000001F0000001F0000001F0000001F43
:101130000000001F0000001F0001001E0000001E34
:101140000000001E0000001E000000232C0000B85C
:10115000220000561800003A0F0000B8080000B145
:10116000040000710200003E0100002064726976F4
:1011700065722063757272656E743A2000656E71D7
:1011800075657565696E672022000000000000002B
:1011900000009A99193E00004842000048420000B1
:1011A0000041000000005761726E696E673A204886
:1011B0006F6D696E672042756D7020446976697342
:1011C0006F72203C20310A0002020400000000007F
:1011D0000000000000004000005243000052439A0B
:1011E000D95143FFFFFF00002110422063308440AB
:1011F000A550C660E770088129914AA16BB18CC1E6
:10120000ADD1CEE1EFF13112100273325222B5525C
:101210009442F772D662399318837BB35AA3BDD335
:101220009CC3FFF3DEE36224433420040114E6642C
:10123000C774A44485546AA54BB528850995EEE585
:10124000CFF5ACC58DD55336722611163006D7763C
:10125000F6669556B4465BB77AA719973887DFF7D5
:10126000FEE79DD7BCC7C448E5588668A778400804
:10127000611802282338CCC9EDD98EE9AFF9488925
:1012800069990AA92BB9F55AD44AB77A966A711A9C
:10129000500A333A122AFDDBDCCBBFFB9EEB799B75
:1012A000588B3BBB1AABA66C877CE44CC55C222CEC
:1012B000033C600C411CAEED8FFDECCDCDDD2AADC5
:1012C0000BBD688D499D977EB66ED55EF44E133E7C
:1012D000322E511E700E9FFFBEEFDDDFFCCF1BBF15
:1012E0003AAF599F788F8891A981CAB1EBA10CD1EF
:1012F0002DC14EF16FE18010A100C230E3200450F7
:10130000254046706760B9839893FBA3DAB33DC369
:101310001CD37FE35EF3B1029012F322D232354246
:10132000145277625672EAB5CBA5A89589856EF5F9
:101330004FE52CD50DC5E234C324A0148104667496
:10134000476424540544DBA7FAB79987B8975FE749
:101350007EF71DC73CD7D326F2369106B0165766E6
:101360007676154634564CD96DC90EF92FE9C899D1
:10137000E9898AB9ABA94458654806782768C01836
:10138000E1088238A3287DCB5CDB3FEB1EFBF98BA9
:10139000D89BBBAB9ABB754A545A376A167AF10A86
:1013A000D01AB32A923A2EFD0FED6CDD4DCDAABDB9
:1013B0008BADE89DC98D267C076C645C454CA23CD6
:1013C000832CE01CC10C1FEF3EFF5DCF7CDF9BAF89
:1013D000BABFD98FF89F176E367E554E745E932E26
:1013E000B23ED10EF01E7C3C3E5E2B3D3F2F5B5D3E
:1013F0003B2C2A225C00454550524F4D20646174BD
:101400006173697A65206572726F722E0A00290A0B
:10141000002062797465733B20637263200053651A
:101420007474696E67732053746F7265642028004A
:10143000290A002062797465733B2063726320007F
:101440002073746F7265642073657474696E67735A
:1014500020726574726965766564202800202863AF
:10146000616C63756C6174656429210A0020213DFB
:101470002000454550524F4D20435243206D697323
:101480006D61746368202D202873746F7265642900
:1014900020002053697A653A2000496E6465783AE5
:1014A0002000204D61726C696E3D563535290A0069
:1014B00028454550524F4D3D00454550524F4D2017
:1014C00076657273696F6E206D69736D61746368A0
:1014D000200020746F6F206C6F6E672065787472C7
:1014E0007573696F6E2070726576656E7465640AD7
:1014F0000020636F6C6420657874727573696F6E19
:101500002070726576656E7465640A002D2D2D005D
:101510005344005072757361206933204D4B332062
:1015200052656164792E005072696E74696E672E1F
:101530002E2E005072696E742070617573656400A0
:101540004D313235004D3234005072696E74206175
:10155000626F72746564004E6F2053442063617241
:1015600064005072696E742066726F6D205344007F
:1015700053746F70207072696E7400526573756D6C
:1015800065207072696E740041626F7574205072CC
:10159000696E746572005061757365207072696E52
:1015A0007400436F6E74726F6C005072657061727C
:1015B000650054756E6500496E666F2073637265D1
:1015C000656E0050726F6265205A204F66667365C3
:1015D00074004368616E67652066696C616D656E55
:1015E000740050726F6265205A204F66667365748E
:1015F00000466C6F7700466C6F7700466C6F770023
:1016000046616E2073706565640046616E2073707C
:101610006565640046616E207370656564004265AF
:10162000640042656400426564004E6F7A7A6C65BE
:10163000004E6F7A7A6C65004E6F7A7A6C65004660
:101640006164652048656967687400466164652067
:101650004865696768740046616465204865696724
:101660006874005370656564005370656564005369
:1016700070656564004D61696E00507265686561F2
:101680007420504C4120456E64005072656865615D
:101690007420504C41204265640050726568656159
:1016A0007420504C41005072657061726500507238
:1016B00065686561742041425320456E6400507234
:1016C0006568656174204142532042656400507230
:1016D00065686561742041425300507265706172A3
:1016E00065004D3432380050726568656174205071
:1016F0004C4100436F6F6C646F776E005072656889
:1017000065617420414253004368616E67652066DD
:10171000696C616D656E740044697361626C65200B
:101720007374657070657273004D3834005365745E
:1017300020686F6D65206F6666736574730046611F
:10174000646520486569676874004661646520487F
:101750006569676874004661646520486569676803
:1017600074004F6666004F6E2000426564204C6531
:1017700076656C696E67004C6576656C20626564A1
:10178000004732380A4732390043616C696272613E
:101790007465205A004732380A4D39313500486F98
:1017A0006D65205A00473238205A00486F6D652019
:1017B0005900473238205900486F6D65205800475E
:1017C00032382058004175746F20686F6D6500478E
:1017D0003238004D6F76652061786973004D61691C
:1017E0006E004D6F76652058004D6F76652059006C
:1017F0004D6F7665205A0045787472756465720085
:101800004D6F766520302E316D6D004D6F76652001
:10181000316D6D004D6F76652031306D6D004D6F0F
:1018200076652061786973004578747275646572B5
:10183000004D6F7665205A004D6F76652059004D3A
:101840006F766520580042696C696E656172204C44
:101850006576656C696E6720477269643A0A00486C
:101860006F6D696E67206661696C656400486F6DB5
:10187000652058592066697273740A00486F6D6557
:1018800020585920666972737400202844525952B6
:10189000554E2900473239204175746F20426564E6
:1018A000204C6576656C696E67003F20284C2C5291
:1018B0002C462C4229206F7574206F6620626F754C
:1018C0006E64732E0A003F2856296572626F736535
:1018D000206C6576656C20697320696D706C61752C
:1018E0007369626C652028302D34292E0A0042610C
:1018F00064205A2076616C75650A004E6F2062691B
:101900006C696E65617220677269640A000210007A
:10191000C90210012C014001220170011801B0011F
:101920000E01F00104015002FA00B002F000300391
:10193000E600D003DC009004D2007005C800A006C9
:10194000BE000008B400B009AA00D00BA000600ED1
:10195000960060118C000015820020197800C01DCF
:101960006E00A0226400B0275A00902C5000003175
:101970004600E0343C0010383200903A2800603CC9
:101980001E00A03D1400803E0A00203F00004534A8
:10199000004533004532004531004530005A3200E1
:1019A0005932005832005A0059005800202F0020A8
:1019B00042403A0020403A0025753A253032750001
:1019C000253032753A253032750025756420253072
:1019D00032753A2530327500AA19A819A619A3192B
:1019E000A0199D199A199719941991198E19747241
:1019F00075650066616C7365002074656D70657255
:101A00006174757265207072657761726E20747290
:101A1000696767657265643A200020707265776156
:101A2000726E20666C616720636C65617265640A22
:101A30000020686F6D696E672073656E73697469E5
:101A4000766974793A20002063757272656E74202D
:101A500064656372656173656420746F20006D4115
:101A6000290A0020647269766572206F7665727447
:101A7000656D7065726174757265207761726E69EB
:101A80006E67212028003A20004472697665722032
:101A90006572726F720073686F727420746F206762
:101AA000726F756E642028636F696C2042290A008A
:101AB00073686F727420746F2067726F756E642024
:101AC00028636F696C2041290A006F76657274651E
:101AD0006D70657261747572650A00206472697652
:101AE0006572206572726F722064657465637465D7
:101AF000643A0A00526573656E643A20006F6B00A9
:101B000020746F6F206C6F6E6720657874727573C8
:101B1000696F6E2070726576656E7465640A002068
:101B2000636F6C6420657874727573696F6E207072
:101B3000726576656E7465640A00627573793A2021
:101B400070617573656420666F7220696E7075745C
:101B50000A00627573793A20706175736564206656
:101B60006F7220757365720A00627573793A20701E
:101B7000726F63657373696E670A004B494C4C451D
:101B8000442E20004B494C4C2063617573656420E2
:101B90006279204B494C4C20627574746F6E2F70C3
:101BA000696E0A004B494C4C45442E20004B494C71
:101BB0004C2063617573656420627920746F6F20B7
:101BC0006D75636820696E616374697665207469F8
:101BD0006D65202D2063757272656E7420636F6D64
:101BE0006D616E643A2000506C65617365207265AA
:101BF000736574005052494E5445522048414C542C
:101C00004544005072696E7465722068616C746539
:101C1000642E206B696C6C28292063616C6C656490
:101C2000210A0020204E6F7A7A6C653A200066699E
:101C30006C616D656E7420707572676500576169BF
:101C40007420666F7200746F20726573756D650025
:101C50005761697420666F72207072696E740043F8
:101C60006172642072656D6F7665640043617264B1
:101C700020696E73657274656400000021002400A1
:101C800027002A002D00300033000101000004016C
:101C900007010A0100002200250028002B002E0069
:101CA0003100340002010000050108010B010000B1
:101CB00020002300260029002C002F003200000104
:101CC00000000301060109010505050507050808CF
:101CD0000808020202020A0A0808040404040101B6
:101CE00001010101010103030303030303030407CB
:101CF00007070C0C0C0C0C0C0C0C02020202060662
:101D00000606060606060B0B0B0B0B0B0B0B070749
:101D10000A0A0A0A0A0A0505050404040808010259
:101D200010202008081020401020408002010201ED
:101D300008040201010204081020408080402010A5
:101D400008040201800402018040201008040201FE
:101D50000804020101020408102040800102040866
:101D6000102040801008040880102040044080109B
:101D70002040048000000A0B02090C0D0E08070326
:101D8000040100000000000000000000000000004E
:101D90000000000000000000000000000000000043
:101DA0001211100000000000000000000000000000
:101DB0000000000000000000000000000000000023
:101DC000000000000000000000004368616E6765CD
:101DD0002066696C616D656E7400556E6C6F616430
:101DE0002066696C616D656E74004C6F616420667D
:101DF000696C616D656E7400507265686561742010
:101E0000414253005072656865617420504C410036
:101E10004368616E67652066696C616D656E74000C
:101E20004D3234004D323320257300556E6B6E6F8A
:101E3000776E20636F6D6D616E643A202200496E8B
:101E4000736572742066696C616D656E7420616E75
:101E50006420707265737320627574746F6E2028CD
:101E60006F72204D313038290A0050726F62696EEE
:101E700067206661696C65640A0050726F62696E02
:101E800067206661696C656400205A3A2000205919
:101E90003A200042656420583A2000205A3A002037
:101EA000593A0020436F756E7420583A0020453A25
:101EB00000205A3A0020593A00583A003A0043614B
:101EC000703A00205A00205900580020204D6178B7
:101ED0003A2000205A00205900580020204D696EF9
:101EE0003A20004F6E20004F666600536F667420E4
:101EF000656E6473746F70733A200020633A00203B
:101F0000643A0020693A0020703A00496E76616CAC
:101F100069642065787472756465720A004B642088
:101F20000023646566696E652044454641554C54FE
:101F30005F004B69200023646566696E6520444537
:101F40004641554C545F004B702000236465666920
:101F50006E652044454641554C545F00504944202D
:101F60004175746F74756E652066696E6973686516
:101F700064212050757420746865206C617374202E
:101F80004B702C204B6920616E64204B6420636F82
:101F90006E7374616E74732066726F6D2062656C0F
:101FA0006F7720696E746F20436F6E666967757214
:101FB0006174696F6E2E680A00504944204175743F
:101FC0006F74756E65206661696C65642120746943
:101FD0006D656F75740A00453120544845524D4176
:101FE0004C2052554E4157415900424544205448D7
:101FF00045524D414C2052554E415741590054686D
:1020000065726D616C2052756E6177617900453142
:102010002048656174696E67206661696C6564005B
:102020004265642068656174696E67206661696CE9
:1020300065640048656174696E67206661696C65F6
:102040006400504944204175746F74756E65206654
:1020500061696C6564212054656D70657261747589
:10206000726520746F6F20686967680A00204B648E
:102070003A2000204B693A2000204B703A20000A99
:1020800020436C617373696320504944200A002027
:1020900054753A2000204B753A2000206D61783A43
:1020A0002000206D696E3A200020643A20002062F2
:1020B0006961733A2000504944204175746F74750A
:1020C0006E65206661696C656421204261642065EB
:1020D00078747275646572206E756D6265720A003F
:1020E000504944204175746F74756E652073746136
:1020F00072740A004F66660A00466164652048658E
:10210000696768742000426564204C6576656C6977
:102110006E6720004661696C656420746F20656E8F
:1021200061626C6520426564204C6576656C696E01
:10213000670A0000000000010204040000001C1CEB
:102140000C04040402010000000000040810000058
:102150000000002D2D2D2D2D2D007C4D61726C6900
:102160006E7C002D2D2D2D2D2D00687474703A2F4E
:102170002F6D61726C696E66772E6F72670068747E
:1021800074703A2F2F6D61726C696E66772E6F7264
:10219000670020312E312E39002020506C616E6E88
:1021A000657242756666657242797465733A20009D
:1021B0002046726565204D656D6F72793A20004347
:1021C0006F6D70696C65643A204D61722032372002
:1021D000323031390A00207C20417574686F723AC0
:1021E00020286E6F6E652C2064656661756C7420A6
:1021F000636F6E666967290A00323031382D3038D6
:102200002D303100204C6173742055706461746509
:10221000643A2000312E312E390A004D61726C690A
:102220006E0020536F667477617265205265736526
:10223000740A00205761746368646F672052657385
:1022400065740A002042726F776E206F7574205299
:10225000657365740A002045787465726E616C2040
:1022600052657365740A00506F77657255700A0085
:1022700073746172740A006175746F25692E67004A
:102280006572726F722077726974696E6720746FFD
:102290002066696C650A00456E6473746F70732004
:1022A000256320256320256320256300205A3A00FA
:1022B00020593A0020583A00656E6473746F707349
:1022C000206869743A2000446F6E652073617669F6
:1022D0006E672066696C652E0A004D3239004861D0
:1022E0007264636F6465642044656661756C742014
:1022F00053657474696E6773204C6F616465640A1A
:1023000000E8030000E8030000C800000088130094
:10231000000000484300004843000040410000F036
:10232000420000C8420000C8420000C8430080CFFD
:102330004320204D393036003A0A0020286D6D299F
:102340000020204D3931340020204D36303320001C
:102350002055004C0046696C616D656E74206C6F91
:1023600061642F756E6C6F6164206C656E67746854
:10237000733A0A0020204D393030204B004C696EF2
:1023800065617220416476616E63653A0A00205986
:102390000020580053656E736F726C65737320680C
:1023A0006F6D696E67207468726573686F6C643AEC
:1023B0000A00205430204500205A0020590020589F
:1023C000005374657070657220647269766572205E
:1023D00063757272656E743A0A00204B00204A00E1
:1023E00020204D383532204900536B6577204661F7
:1023F00063746F723A200A0020204D383531205A1C
:10240000005A2D50726F6265204F666673657400C6
:1024100020440020490020204D333034205000203B
:102420004C0020430020440020490020204D333040
:10243000312050005049442073657474696E67738D
:102440003A0A0020460020420020480020204D315A
:1024500034352053004D6174657269616C20686584
:102460006174757020706172616D65746572733A24
:102470000A00205A00204A002020473239205720E5
:102480004900205A0020204D34323020530041753D
:10249000746F20426564204C6576656C696E673A9E
:1024A0000A00205A0020590020204D323036205892
:1024B00000486F6D65206F66667365743A0A002088
:1024C0004A0020540020530020204D323035205146
:1024D0000020453C6D61785F655F6A65726B3E0008
:1024E000204A3C6A756E635F6465763E004164769F
:1024F000616E6365643A20513C6D696E5F73656718
:102500006D656E745F74696D655F75733E20533CD5
:102510006D696E5F66656564726174653E20543CEA
:102520006D696E5F74726176656C5F666565647215
:102530006174653E0020540020520020204D32304E
:1025400034205000416363656C65726174696F6E1D
:102550002028756E6974732F7332293A20503C70AD
:1025600072696E745F616363656C3E20523C726594
:1025700074726163745F616363656C3E20543C7484
:10258000726176656C5F616363656C3E0A0020452D
:1025900000205A0020590020204D323031205800B0
:1025A0004D6178696D756D20416363656C6572611D
:1025B00074696F6E2028756E6974732F7332293AAF
:1025C0000A00204500205A0020590020204D3230BA
:1025D000332058004D6178696D756D2066656564BE
:1025E00072617465732028756E6974732F73293A4C
:1025F0000A00204500205A0020590020204D393281
:1026000020580053746570732070657220756E6970
:10261000743A0A0020204D3230302044300A002025
:10262000204D3230302044002044697361626C6573
:10263000640A0046696C616D656E7420736574741C
:10264000696E67733A0020204D3134392043203BB6
:1026500020556E69747320696E2043656C736975CB
:10266000730A002020473231202020203B004D6596
:10267000736820706F696E742063616E6E6F742072
:102680006265207265736F6C7665640A004D343242
:102690003120696E636F727265637420706172615C
:1026A0006D657465722075736167650A004F6666B3
:1026B00073657473206170706C6965640045727233
:1026C0003A20546F6F206661722100546F6F20664C
:1026D00061722066726F6D207265666572656E63E9
:1026E0006520706F696E740A0020595A3A200020E4
:1026F000585A3A2000536B657720466163746F72B5
:102700002058593A20006D696E5F736B65775F667C
:102710006163746F723A20202D31206D61785F7390
:102720006B65775F666163746F723A2020310A00CF
:10273000496E736572742066696C616D656E742094
:10274000616E6420707265737320627574746F6E4D
:102750000A00507265737320627574746F6E207412
:102760006F2068656174206E6F7A7A6C650A004923
:102770006E736572742066696C616D656E7420613C
:102780006E6420707265737320627574746F6E204E
:10279000286F72204D313038290A00473238205ACC
:1027A000000A486F6D696E67205A20647565207451
:1027B0006F206C6F73742073746570730A000A4322
:1027C000616C6962726174696F6E206375727265A3
:1027D0006E743A205A000A506C6561736520686F08
:1027E0006D65205A20617869732066697273740A76
:1027F00000486F6D65202573257325732066697207
:102800007374002066697273740A005A0059005884
:1028100000486F6D65200053442063617264206F2F
:102820006B0A006F70656E526F6F74206661696C21
:1028300065640A00766F6C756D652E696E6974202B
:102840006661696C65640A00534420696E6974208E
:102850006661696C0A0057726974696E6720746FEB
:102860002066696C653A20006F70656E206661694C
:102870006C65642C2046696C653A20006F70656E4B
:10288000206661696C65642C2046696C653A20009D
:1028900046696C652073656C65637465640A002025
:1028A00053697A653A200046696C65206F70656EE1
:1028B00065643A20002066696C653A2000646F699F
:1028C0006E67006672657368004E6F772000454E34
:1028D0004420535542524F5554494E450A00222038
:1028E000706F73002220706172656E743A2200531B
:1028F0005542524F5554494E452043414C4C20744B
:1029000061726765743A22004B494C4C45442E2055
:1029100000747279696E6720746F2063616C6C203B
:102920007375622D67636F64652066696C657320DB
:102930007769746820746F6F206D616E79206C65A3
:1029400076656C732E204D4158206C6576656C2041
:1029500069733A004572726F723A006F70656E204B
:102960006661696C65642C2046696C653A20004D8F
:1029700061782054656D703A20313235004D696EB2
:102980002054656D703A203500544265643A4550D4
:10299000434F53203130304B004D61782054656DEA
:1029A000703A20333035004D696E2054656D703AB1
:1029B00020350054303A20415443203130344754BC
:1029C0002D32005053553A2047656E657269630099
:1029D00050726F746F636F6C3A20312E3000426119
:1029E00075643A203131353230300045696E737983
:1029F0002052616D626F0042696C696E6561722080
:102A00004C6576656C696E670045787472756465AF
:102A100072733A203100687474703A2F2F6D6172AE
:102A20006C696E66772E6F726700507275736120E5
:102A30006933204D4B3300323031382D30382D3052
:102A40003100312E312E39004D61726C696E0054A7
:102A50006865726D6973746F727300426F6172643E
:102A600020496E666F005072696E74657220496EFF
:102A7000666F004D61696E004D3730322054256419
:102A8000004D36303020423020542564004D373020
:102A900032203B2564004D373031205425640055E9
:102AA0006E6C6F61642066696C616D656E74005553
:102AB0006E6C6F61642066696C616D656E74004D4B
:102AC000373032004D373031004C6F616420666919
:102AD0006C616D656E74004D3630302042300043BD
:102AE00068616E67652066696C616D656E74005023
:102AF000726570617265005052494E5420504155C4
:102B000053454400554E4C4F41442046494C414D9D
:102B1000454E54004C4F41442046494C414D454E92
:102B200054005075726765206D6F726500436F6E5B
:102B300074696E756500524553554D45204F50548C
:102B4000494F4E533A0020204E6F7A7A6C653A20F6
:102B5000006368616E6765006F6620746865206653
:102B6000696C616D656E74005761697420666F727F
:102B70002073746172740020204E6F7A7A6C653A0B
:102B8000200066696C616D656E7420756E6C6F6196
:102B900064005761697420666F720020204E6F7A5E
:102BA0007A6C653A2000506C6561736520776169C5
:102BB000742E2E2E0048656174696E67206E6F7AE0
:102BC0007A6C650020204E6F7A7A6C653A20006836
:102BD000656174206E6F7A7A6C652E005072657331
:102BE0007320627574746F6E20746F0020204E6FB6
:102BF0007A7A6C653A2000746F20636F6E74696E28
:102C000075652E2E2E00616E6420707265737320C0
:102C1000627574746F6E00496E73657274206669B4
:102C20006C616D656E740020204E6F7A7A6C653A27
:102C3000200066696C616D656E74206C6F61640064
:102C40005761697420666F720008FFFFFFFFFF0085
:102C500001010101016265640A002C20737973741B
:102C6000656D2073746F70706564212048656174B0
:102C700065725F49443A200042656420686561746A
:102C8000696E67206661696C656400486561746996
:102C90006E67206661696C65640045312048656136
:102CA00074696E67206661696C656400486561746B
:102CB000696E67206661696C65640070012C019023
:102CC000012701B0012201C0011D01F0011801100E
:102CD00002130130020E016002090190020401C0DA
:102CE00002FF000003FA004003F5008003F000D06B
:102CF00003EB002004E6007004E100E004DC004087
:102D000005D700C005D2004006CD00D006C800801F
:102D100007C3003008BE00F008B900C009B400B015
:102D20000AAF00B00BAA00D00CA500000EA0005006
:102D30000F9B00C01096005012910000148C00C030
:102D4000158700B0178200B0197D00D01B780000F5
:102D50001E730040206E0090226900F02464004041
:102D6000275F0090295A00E02B5500102E500020BC
:102D7000304B0010324600E033410090353C0010EB
:102D800037370070383200A0392D00B03A2800A043
:102D90003B2300603C1E00103D1900903D140010C4
:102DA0003E0F00703E0A00C03E0500003F0000409C
:102DB0003FFBFF803FF6FFC03FF1FF453120544805
:102DC00045524D414C2052554E41574159004245C4
:102DD0004420544845524D414C2052554E41574194
:102DE0005900546865726D616C2052756E6177612F
:102DF00079004531204572723A204D415854454D75
:102E000050004572723A204D415854454D50204271
:102E10004544004D415854454D50207472696767D0
:102E200065726564004531204572723A204D494E05
:102E300054454D50004572723A204D494E54454D0F
:102E40005020424544004D494E54454D5020747227
:102E500069676765726564004D38342058205920D1
:102E60005A2045004A756E6374696F6E204465761A
:102E7000004A756E6374696F6E20446576004D6F0D
:102E800074696F6E004573746570732F6D6D0045C6
:102E900073746570732F6D6D005A73746570732F42
:102EA0006D6D005A73746570732F6D6D0059737476
:102EB0006570732F6D6D005973746570732F6D6D30
:102EC000005873746570732F6D6D0058737465705E
:102ED000732F6D6D004D6F74696F6E005374657064
:102EE000732F6D6D004A65726B00416363656C659D
:102EF000726174696F6E0056656C6F6369747900F6
:102F000050726F6265205A204F6666736574004385
:102F10006F6E74726F6C004C6F6164206D6D004C4D
:102F20006F6164206D6D004C6F6164206D6D0055A4
:102F30006E6C6F6164206D6D00556E6C6F61642006
:102F40006D6D00556E6C6F6164206D6D0046696C2F
:102F50002E204469612E0046696C2E204469612E42
:102F6000004F6666004F6E20004520696E206D6D33
:102F70003300416476616E6365204B004164766185
:102F80006E6365204B00436F6E74726F6C0043611B
:102F90006E6E6F7420656E746572207375626469FD
:102FA000723A2000052E2E004D61696E0043616E5D
:102FB0006E6F74206F70656E207375626469722025
:102FC000006563686F3A00001C1F11111F000000AC
:102FD00006191803130C00040E1F041C0000000047
:102FE0000E1315110E00001C10181705060500041D
:102FF0000A0A0A0A11110E0C12120C00000000003D
:103000001F1511151F0000457874727564657200F4
:103010004D6F7665205A004D6F76652059004D6FD3
:1030200076652058005072657061726500496E695E
:103030007469616C697A6520454550524F4D004373
:103040006F6E74726F6C00526573746F7265206678
:1030500061696C73616665004C6F616420736574AF
:1030600074696E677300496E697469616C697A6529
:1030700020454550524F4D0053746F726520736563
:103080007474696E67730046696C616D656E740077
:103090004D6F74696F6E0054656D70657261747503
:1030A0007265004D61696E005072656865617420DB
:1030B00041425320636F6E660050726568656174AB
:1030C00020504C4120636F6E66005049442D4300F0
:1030D0005049442D43005049442D43005049442D4C
:1030E00044005049442D44005049442D4900504962
:1030F000442D49005049442D50005049442D500062
:1031000046616E2073706565640046616E20737061
:103110006565640046616E20737065656400426594
:10312000640042656400426564004E6F7A7A6C65A3
:10313000004E6F7A7A6C65004E6F7A7A6C65004348
:103140006F6E74726F6C0053746F72652073657468
:1031500074696E677300426564004265640042658D
:1031600064004E6F7A7A6C65004E6F7A7A6C6500F7
:103170004E6F7A7A6C650046616E20737065656487
:103180000046616E2073706565640046616E207351
:10319000706565640054656D706572617475726503
:1031A00000486F74656E6420746F6F20636F6C6489
:1031B0000A004D3630303A20546F6F20636F6C64D4
:1031C00000486F74656E6420746F6F20636F6C6469
:1031D0000A0046696C652064656C657465643A0034
:1031E00044656C6574696F6E206661696C65642CFA
:1031F0002046696C653A200050726F74656374658F
:10320000642050696E0A0020573A004520436F6FD2
:103210006C696E672E2E2E00452048656174696EBC
:10322000672E2E2E0020573A0042656420636F6F90
:103230006C696E672E2E2E0042656420686561748D
:10324000696E672E2E2E004572726F72207772693A
:1032500074696E6720746F20454550524F4D210AA6
:10326000005654726176206D696E00565472617614
:10327000206D696E005654726176206D696E00563D
:103280006D696E00566D696E00566D696E00566D03
:103290006178204500566D6178204500566D617853
:1032A000204500566D6178205A00566D6178205A8D
:1032B00000566D6178205A00566D6178205900568D
:1032C0006D6178205900566D6178205900566D6106
:1032D00078205800566D6178205800566D6178202E
:1032E00058004D6F74696F6E00416D617820450024
:1032F000416D6178204500416D6178205A00416D33
:103300006178205A00416D6178205900416D6178E3
:10331000205900416D6178205800416D6178205836
:1033200000412D74726176656C00412D7472617676
:10333000656C00412D7265747261637400412D7279
:1033400065747261637400416363656C004163631B
:10335000656C004D6F74696F6E00FFFDFCFAF8F646
:10336000F4F2F0EEECEAE9E7E5E3E1E0DEDCDAD9FD
:10337000D7D5D4D2D0CFCDCBCAC8C7C5C3C2C0BFA2
:10338000BDBCBAB9B7B6B4B3B2B0AFADACAAA9A818
:10339000A6A5A4A2A1A09E9D9C9A99989795949366
:1033A00092908F8E8D8B8A89888786848382818094
:1033B0007F7E7D7B7A797877767574737271706FA2
:1033C0006E6D6C6B6A696867666564636261605F95
:1033D0005E5D5C5B5A59585857565554535251507C
:1033E000504F4E4D4C4B4A4A494847464645444348
:1033F000424241403F3E3E3D3C3B3B3A3938383704
:10340000363535343332323130302F2E2E2D2C2BB1
:103410002B2A292928272726252524232322212151
:1034200020201F1E1E1D1C1C1B1B1A1919181817E3
:103430001616151514131312121111100F0F0E0E6C
:103440000D0D0C0C0B0A0A090908080707060605EA
:103450000504040303020201000054524947474592
:10346000524544006F70656E003A20007A5F6D69C6
:103470006E00795F6D696E00785F6D696E005265F0
:10348000706F7274696E6720656E6473746F7020FC
:103490007374617475730A0000000001000000017C
:1034A00000008000555555000000400033333300C4
:1034B000AAAA2A004992240000002000C7711C001B
:1034C00099991900D1451700555515003BB11300C6
:1034D0002449120011111100000010000F0F0F00FD
:1034E000E3380E0043790D00CCCC0C00C3300C0047
:1034F000E8A20B0064210B00AAAA0A00703D0A0092
:103500009DD80900427B090092240900DCD3080001
:10351000888808001042080000000800F0C1070079
:103520008787070075500700711C07003EEB0600F7
:10353000A1BC06006990060066660600703E0600A3
:103540006118060017F4050074D105005BB0050092
:10355000B2900500627205005555050078390500E6
:10356000B81E0500050505004EEC040087D40400D4
:10357000A1BD040090A7040049920400C17D04008D
:10358000EE690400C7560400444404005C320400A1
:103590000821040041100400000004003FF0030073
:1035A000F8E0030026D20300C3C30300CCB5030038
:1035B0003AA803000A9B0300388E0300C081030071
:1035C0009F750300D0690300505E03001D53030084
:1035D00034480300913D03003333030016290300F0
:1035E000381F030097150300300C0300030303008A
:1035F0000BFA020049F10200BAE802005CE00200A6
:103600002DD802002DD0020059C80200B0C002001F
:1036100031B90200DAB10200AAAA0200A0A3020096
:10362000BC9C0200FA9502005C8F0200DF88020059
:1036300082820200457C0200277602002770020089
:10364000436A02007C640200D05E02003F5902001F
:10365000C8530200E200EE0011241FBECFEFD1E2FA
:10366000DEBFCDBF00E00CBF13E0A0E0B2E0E6E0BB
:10367000FAE702E00BBF02C007900D92AC36B1072B
:10368000D9F728E1ACE6B3E001C01D92A93CB2072E
:10369000E1F71BE1CBE2DBE100E006C02197010985
:1036A000802FFE010F94613CCA32D10780E00807E9
:1036B000A9F70F947E2B0D94F23C0C9400002F92EE
:1036C0003F924F925F926F927F928F929F92AF92B2
:1036D000BF92CF92DF92EF92FF920F931F93CF93FF
:1036E000DF93CDB7DEB7CB56D1090FB6F894DEBF66
:1036F0000FBECDBF91E090937A06809115058D3471
:1037000011F40C943424843511F40C948A328734E7
:1037100011F00C94D63220901305309014052CE152
:103720002216310409F464C6C4F444E024163104BA
:1037300044F452E025163104ECF537FE34C00C9405
:10374000302484E02816310409F4E3C59BE12916EE
:10375000310409F41DC60C943024AAE22A1631045F
:1037600009F424C764F4EDE12E16310409F445C6CA
:10377000FEE12F16310409F444C60C9430242BE5E5
:103780002216310409F4EAC73CE52316310409F492
:10379000E9C74AE52416310411F00C943024109244
:1037A00070030C94D8328091580281110C94DD3250
:1037B0000C94D83280915802882311F40C94D8329A
:1037C0000E94708282E50E94DE3A882309F44CC18F
:1037D0000E94623A4B015C0120E030E0A9010F94A5
:1037E000D937882309F470C180918D0690918E0697
:1037F000A0918F06B091900688AF99AFAAAFBBAFEA
:103800002091910630919206409193065091940632
:103810002CAF3DAF4EAF5FAF80914E0690914F06FB
:10382000A0915006B09151062C968CAF9DAFAEAFD3
:10383000BFAF2C9720915206309153064091540609
:103840005091550628962CAF3DAF4EAF5FAF2897ED
:103850009C01AD0168AD79AD8AAD9BAD0F94D937B0
:1038600081110FC028962CAD3DAD4EAD5FAD2897B0
:103870006CAD7DAD8EAD9FAD0F94D937882309F423
:1038800023C111E032E02316310409F010E020E0FA
:1038900030E0A901C501B4010F94D937881F8827EA
:1038A000881F181759F080E090E0A0E8BFEB6496FD
:1038B0008CAF9DAFAEAFBFAF64970AC020E030E0E1
:1038C00040E85FE364962CAF3DAF4EAF5FAF6497C7
:1038D00028AD39AD4AAD5BAD2C966CAD7DAD8EADEE
:1038E0009FAD2C970F94553960966CAF7DAF8EAF1E
:1038F0009FAF60972CAD3DAD4EAD5FAD28966CADE2
:103900007DAD8EAD9FAD28970F9455396B017C012D
:1039100060962CAD3DAD4EAD5FAD6097CA01B9016B
:103920000F943E382B013C01A7019601C701B60157
:103930000F943E389B01AC01C301B2010F9456397C
:103940000F94C13B24966CAF7DAF8EAF9FAF249791
:1039500020E030E040E05FE30F943E382B013C0173
:10396000A5019401C501B4010F943E384B015C01DF
:10397000A3019201C301B2010F943E389B01AC0137
:10398000C501B4010F9455390F94C13B64962CAD19
:103990003DAD4EAD5FAD64970F943E384B015C0179
:1039A000C701B601905824962CAD3DAD4EAD5FAD2C
:1039B00024970F94323AA50194010F943E386B017D
:1039C0007C012C962CAD3DAD4EAD5FAD2C9768AD16
:1039D00079AD8AAD9BAD0F94563920E030E040E0E0
:1039E0005FE30F943E389B01AC01C701B6010F9411
:1039F000563928AD39AD4AAD5BAD0F9455396B01E1
:103A00007C0128962CAD3DAD4EAD5FAD28976CADD9
:103A10007DAD8EAD9FAD0F94563920E030E040E093
:103A20005FE30F943E382B013C0124962CAD3DAD55
:103A30004EAD5FAD249760966CAD7DAD8EAD9FAD04
:103A400060970F94323AA50194010F943E389B0180
:103A5000AC01C301B2010F9456392CAD3DAD4EAD52
:103A60005FAD0F94553914C089E40E94DE3A882373
:103A700029F00E94623A6B017C0103C0C12CD12C59
:103A800076018AE40E94DE3A882309F10E94623AB4
:103A90002C966CAF7DAF8EAF9FAF2C9720E030E0BF
:103AA000A901C701B6010F94D93781111FC020E0C9
:103AB00030E0A9012C966CAD7DAD8EAD9FAD2C97FD
:103AC0000F94D937811112C0E4E5F9E20EC420E069
:103AD00030E0A901C701B6010F94D9378823A1F3BB
:103AE0002C961CAE1DAE1EAE1FAE2C97D701C60184
:103AF000B05888AF99AFAAAFBBAF2C962CAD3DADF7
:103B00004EAD5FAD2C9750582CAF3DAF4EAF5FAF71
:103B10009C01AD01BC01CD010F943E384B015C010D
:103B20002CAD3DAD4EAD5FADCA01B9010F943E382D
:103B30009B01AC01C501B4010F9456390F94C13BF0
:103B4000A0966CAF7DAF8EAF9FAFA09780918D0692
:103B500090918E06A0918F06B091900628968CAF1A
:103B60009DAFAEAFBFAF2897A7019601BC01CD01B5
:103B70000F94563964966CAF7DAF8EAF9FAF64974C
:103B800020919106309192064091930650919406AF
:103B900060962CAF3DAF4EAF5FAF60972C962CADCB
:103BA0003DAD4EAD5FAD2C9760966CAD7DAD8EADED
:103BB0009FAD60970F945639A4966CAF7DAF8EAFD2
:103BC0009FAFA49780914E0690914F06A09150060A
:103BD000B091510668968CAF9DAFAEAFBFAF6897FE
:103BE00064962CAD3DAD4EAD5FAD6497BC01CD018B
:103BF0000F9455396B017C01209152063091530688
:103C000040915406509155066C962CAF3DAF4EAF87
:103C10005FAF6C97A4962CAD3DAD4EAD5FADA49754
:103C20006C966CAD7DAD8EAD9FAD6C970F94553994
:103C30004B015C018091950690919606A0919706A4
:103C4000B0919806A8968CAF9DAFAEAFBFAFA897C6
:103C50009C01AD01609156067091570680915806FF
:103C6000909159060F94553924966CAF7DAF8EAF65
:103C70009FAF2497A701960168AD79AD8AAD9BAD42
:103C80000F943E382B013C01A50194016CAD7DAD34
:103C90008EAD9FAD0F943E389B01AC01C301B201C4
:103CA0000F9456392B013C01A501940168AD79AD03
:103CB0008AAD9BAD0F943E384B015C01A701960184
:103CC0006CAD7DAD8EAD9FAD0F943E389B01AC01C8
:103CD000C501B4010F945539A30192010F94C9395C
:103CE0006B017C0120E030E0A9010F94D93787FFF8
:103CF0000AC02BED3FE049EC50E4C701B6010F9438
:103D000056396B017C0192E02916310451F42BEDF8
:103D10003FE049EC50E4C701B6010F9455396B01FF
:103D20007C0120E030E0A901C701B6010F94D9372A
:103D3000811128C068962CAD3DAD4EAD5FAD689742
:103D400028966CAD7DAD8EAD9FAD28970F94D93779
:103D5000811118C06C962CAD3DAD4EAD5FAD6C972A
:103D600060966CAD7DAD8EAD9FAD60970F94D937E9
:103D7000811108C00BEDC02E0FE0D02E09ECE02E13
:103D800000E4F02EA7019601A0966CAD7DAD8EAD3E
:103D90009FADA0970F943E384B015C0120E030E0CE
:103DA000A90124966CAD7DAD8EAD9FAD24970F9487
:103DB000D9378823E9F0A5019401C501B4010F9416
:103DC0003E384B015C0124962CAD3DAD4EAD5FAD50
:103DD0002497CA01B9010F943E389B01AC01C5017B
:103DE000B4010F9456390F94C13B4B015C010DC0D7
:103DF00020E030E0A901C501B4010F947C3B87FFAE
:103E000004C0B7FAB094B7F8B0942FE632E143E8B3
:103E10005AE3C501B4010F94D93787FF02C00C944F
:103E2000D832C501B4010F94CB3A0F949F3A2E9625
:103E30007FAF6EAF2E97DB01AB2B31F4E1E0F0E00A
:103E40002E96FFAFEEAF2E974090990650909A06AF
:103E500060909B0670909C062E962EAD3FAD2E97DF
:103E6000B90180E090E00F94DD374B015C019B01CC
:103E7000AC01C701B6010F94323A28966CAF7DAF02
:103E80008EAF9FAF2897A501940124966CAD7DADB0
:103E90008EAD9FAD24970F94323AA0966CAF7DAF54
:103EA0008EAF9FAFA097A301920160915A067091C7
:103EB0005B0680915C0690915D060F945539A501D3
:103EC00094010F94323AAC966CAF7DAF8EAF9FAF3A
:103ED000AC9728962CAD3DAD4EAD5FAD2897CA018D
:103EE000B9010F943E3820E030E040E05FE30F94EA
:103EF0003E389B01AC0160E070E080E89FE30F94E6
:103F0000553968966CAF7DAF8EAF9FAF6897A89616
:103F10008CAD9DADAEADBFADA89789879A87AB87B5
:103F2000BC874D865E866F86788A60911702709195
:103F30001802072E000C880B990B0F94DF37209185
:103F400040023091410240914202509143020F944D
:103F50003E382AE037ED43E25CE30F943E386CAB29
:103F60007DAB8EAB9FAB0F94B8219B01AC01285366
:103F70003F4F4F4F5F4F6C962CAF3DAF4EAF5FAF93
:103F80006C9748AC59AC6AAC7BAC22242394312C9E
:103F900039E121963FAF21972E964EAD5FAD2E971A
:103FA0004215530509F44DC10E94C7E60F94B8218C
:103FB000DC01CB016C962CAD3DAD4EAD5FAD6C9789
:103FC000821B930BA40BB50BB7FD11C00F94B82146
:103FD0009B01AC0128533F4F4F4F5F4F6C962CAF66
:103FE0003DAF4EAF5FAF6C9780E00E94E69B21969D
:103FF0003FAD2197315021963FAF2197332309F4EC
:1040000045C02CAD3DAD4EAD5FAD68966CAD7DADA0
:104010008EAD9FAD68970F943E386B017C01920185
:10402000A30128966CAD7DAD8EAD9FAD28970F9402
:104030003E38A70196010F9456397B018C019201FD
:10404000A30168966CAD7DAD8EAD9FAD68970F9462
:104050003E384B015C012CAD3DAD4EAD5FAD2896B9
:104060006CAD7DAD8EAD9FAD28970F943E389B0112
:10407000AC01C501B4010F9455392B013C01C701B6
:10408000D8018CAF9DAFAEAFBFAF55C0B10180E0DE
:1040900090E00F94DD3728962CAD3DAD4EAD5FAD71
:1040A00028970F943E384B015C010F942F3A6B0117
:1040B0007C01C501B4010F94B73B4B015C01A70122
:1040C000960168AD79AD8AAD9BAD0F943E382B015A
:1040D0003C012C962CAD3DAD4EAD5FAD2C97C5018E
:1040E000B4010F943E38A30192010F9456392B016D
:1040F0003C01A501940168AD79AD8AAD9BAD0F94EB
:104100003E384B015C012C962CAD3DAD4EAD5FAD04
:104110002C97C701B6010F943E389B01AC01C50135
:10412000B4010F9455396CAF7DAF8EAF9FAF49E1AD
:1041300021964FAF21979201A30164966CAD7DAD9E
:104140008EAD9FAD64970F94563969837A838B83C4
:104150009C832CAD3DAD4EAD5FADA4966CAD7DADF9
:104160008EAD9FADA4970F9456396D837E838F8358
:104170009887A0962CAD3DAD4EAD5FADA0976985FB
:104180007A858B859C850F94563969877A878B87CA
:104190009C87AC962CAD3DAD4EAD5FADAC976D85BB
:1041A0007E858F8598890F9456396D877E878F8796
:1041B000988B80912502882321F0CE0101960E94E0
:1041C000A750E0907B061CA61DA61EA61FA68981EF
:1041D0009A81AB81BC8188A399A3AAA3BBA38D813B
:1041E0009E81AF81B8858CA39DA3AEA3BFA3898513
:1041F0009A85AB85BC8588A799A7AAA7BBA7AE015E
:10420000485D5F4FBE016C5D7F4FCE0180960F947D
:10421000F61ACE018C966C018E010C5C1F4F9E012C
:10422000235F3F4FAE01485D5F4FBE016C5D7F4F26
:104230000C970E940A5F882321F09FEF291A390A00
:10424000ABCEE0907B0618AA19AA1AAA1BAA8091E5
:104250004E0690914F06A0915006B091510688A34A
:1042600099A3AAA3BBA38091520690915306A09153
:104270005406B09155068CA39DA3AEA3BFA3809115
:10428000560690915706A0915806B091590688A7F6
:1042900099A7AAA7BBA7AE01485D5F4FBE016C5DA1
:1042A0007F4FCE0180960F94F61ADE01D0966D01F5
:1042B0008E010C5C1F4F2AE536E0AE01485D5F4F72
:1042C000BE016C5D7F4FCE0180960E940A5F80E147
:1042D000EEE4F6E0ADE8B6E001900D928A95E1F7E4
:1042E0000C94D8320E94043BF80184918F010F5F37
:1042F0001F4F8111F7CFEBE5F3E084918F010F5F42
:104300001F4F882311F40C94D8320E94043BF8010B
:10431000F4CF80E50E94DE3A882329F00E94223AF9
:104320006B017C0103C0C12CD12C760183E50E9476
:10433000DE3A882361F00E94623A20E030E04AE7EA
:1043400054E40F943E380F949F3A6B017C010E9415
:1043500001718091AB08811105C060E081E793E0B5
:104360000E94FF940F94B821C60ED71EE81EF91EB6
:104370000F94B821DC01CB018C199D09AE09BF094E
:10438000B7FD02C00C94D83280E00E94E69BF0CFCB
:104390000E9491D581110C94D83280E090E0A0E287
:1043A000B1E489839A83AB83BC8380E090E0A8E486
:1043B000B3E48D839E83AF83B88780E090E0A0EA6A
:1043C000B1E489879A87AB87BC8780E50E94DE3A93
:1043D000882319F00E94323A01C060E068A3BE0150
:1043E0006F5F7F4FCE0180960F94F31E0C94D832EE
:1043F00080E00E946F8B0C94D8320E94E1860C946E
:10440000D832C0908D06D0908E06E0908F06F09046
:10441000900688E50E94DE3A811109C020E030E074
:104420004CE052E4C701B6010F94563902C00E9415
:10443000623A68A379A38AA39BA3C0909106D09007
:104440009206E0909306F090940689E50E94DE3A89
:10445000811109C020E030E040EA51E4C701B60113
:104460000F94553902C00E94623A9B01AC016983E6
:104470007A838B839C8368A179A18AA19BA10E94E6
:104480005752882311F40C94D83280E00E94CB84D8
:104490000E94C28685E40E94DE3A882321F00E94B1
:1044A000533A182F04C085E40E94953A11E086E53E
:1044B0000E94DE3A882321F00E94323A262F01C062
:1044C00021E0412FBE016F5F7F4FCE0180960E9499
:1044D00081B06B017C019B01AC010F94023C811106
:1044E0005FC088A099A0AAA0BBA020E030E0A901ED
:1044F000C501B4010F94D93787FF05C027E137EB19
:1045000041E558EB04C027E137EB41E558E3C5012D
:10451000B4010F945639AB01BC0184E893E00F94C9
:10452000761589809A80AB80BC8020E030E0A901BC
:10453000C501B4010F94D93787FF05C027E137EBD8
:1045400041E558EB04C027E137EB41E558E3C501ED
:10455000B4010F945639AB01BC018FE793E00F947F
:10456000761520E030E0A901C701B6010F94D937D4
:1045700087FF05C027E137EB41E558EB04C027E191
:1045800037EB41E558E3C701B6010F945639AB014B
:10459000BC018AE793E00F9476158AE00E94043B01
:1045A0000E94A9860E94E0BF0C94D83280915802E4
:1045B000882311F40C94D83289E40E94DE3A082F43
:1045C000882321F00E94323AE62E01C0E12C8AE4D1
:1045D0000E94DE3A182F882321F00E94323AF62EEC
:1045E00001C0F12C002319F0B4E0BE1528F011230E
:1045F00089F0E4E0EF1570F4ECE8F3E084918F01CA
:104600000F5F1F4F882311F40C94D8320E94043B93
:10461000F801F4CF0E94F03A0023F1F020919B04BE
:1046200030919C044E2D4203B001439F700D112424
:1046300080915E0490915F04680F791F072E000C33
:10464000880B990B0F94DF3760934E0670934F06DB
:1046500080935006909351061123F1F020919D0410
:1046600030919E045F2D5203B001539F700D1124B1
:104670008091600490916104680F791F072E000CEF
:10468000880B990B0F94DF37609352067093530693
:10469000809354069093550680E50E94DE3A882365
:1046A000E9F00E94533A8823A9F10023D9F020E0D1
:1046B00030E04CE052E460914E0670914F068091DC
:1046C0005006909151060F94553960934E067093A1
:1046D0004F06809350069093510604C080E50E94D7
:1046E000953AE1CF1123B1F020E030E040EA51E407
:1046F0006091520670915306809154069091550630
:104700000F94563960935206709353068093540663
:104710009093550686E40E94DE3A8823D9F00E94E1
:10472000623A6B017C0120E030E0A9010F947C3BF0
:10473000181684F420E030E040E752E4C701B601E7
:104740000F94323A60934002709341028093420288
:10475000909343020E94079E0C94D832909370036A
:104760000C94D832F0E62F2EF2E03F2EA2E5EA2E8E
:10477000A4E0FA2E8DE896E099AF88AFBDE7CB2E86
:10478000B6E0DB2E00E010E0D1018D911D010E940A
:10479000DE3A882309F44BC00E94623A2B013C01A7
:1047A000133049F0F60120813181428153810F9409
:1047B00055392B013C01A8ADB9AD2D913D914D91DD
:1047C0005C91C301B2010F9455394B015C012DEB93
:1047D00037E346E855EB0F947C3B87FD0AC02DEB91
:1047E00037E346E855E3C501B4010F94D9371816ED
:1047F000F4F4133051F44092990650929A06609264
:104800009B0670929C0601E012C0A5019401F7017D
:1048100060817181828193810F945639D7016D93A4
:104820007D938D939C931397812F0E9428391F5F4E
:10483000B4E0EB0EF11CE8ADF9AD3496F9AFE8AF9A
:10484000F4E0CF0ED11C143009F09ECF002321F0EC
:1048500089E996E00E9415D50E94E0BF0C94D832F9
:104860000E946BB40C94D83280911305909114057A
:104870008139910511F40C94862C0CF019C1823504
:10488000910509F4AFC60CF098C08A31910509F47E
:1048900059C3ECF58431910509F44CC27CF48131A3
:1048A000910509F4C2C22CF4029708F446C20C9494
:1048B0008732429709F49DC60C948732873191055F
:1048C00009F400C374F48531910509F4F7C24697E1
:1048D00011F00C9487321092BB0E1092BC0E0C9407
:1048E000D8328831910509F403C3499711F00C942B
:1048F00087321092BB0E0E9488E387EE93E090937C
:104900004606809345060E947C390C94D83280324A
:10491000910509F4C1C30CF58D31910511F40C9486
:10492000D83294F48B31910509F41AC34C9711F0E5
:104930000C94873240E060E080911105909112055F
:104940000E947DD90C94D8328E31910509F4A0C310
:104950004F9709F4EDC30C9487328C34910509F418
:10496000D1C46CF48A32910509F498C48B34910552
:1049700011F00C9487320E9466E30C94D8328D3487
:10498000910509F4C3C48135910511F00C94873267
:104990000E94B2E30E94287110923C0610923B06DE
:1049A00068EE73E080E090E00E94839460E089E923
:1049B00094E00E94FF940C94D8328F36910509F44C
:1049C000EDC4BCF58936910509F474C5CCF4853580
:1049D000910509F411C654F48335910509F405C60F
:1049E0008435910509F405C60C9487328C35910500
:1049F00009F41BC68836910509F48CC40C948732DF
:104A00008C36910509F41DC554F48A36910509F4D4
:104A1000B9C58B36910509F4D2C50C9487328D3611
:104A2000910509F489C58E36910509F4A4C40C9446
:104A300087328637910509F413C7CCF48237910584
:104A400009F467C654F48037910509F4FEC4813730
:104A5000910509F402C50C9487328337910509F456
:104A600066C18537910509F4ECC60C948732893705
:104A7000910509F444C794F48737910509F43CC7BC
:104A80008837910511F00C94873281E08093A90654
:104A90008093A8060F94891F0C94D8328D37910506
:104AA00009F49DC58C38910509F44AC50C948732E8
:104AB0008A3921E0920709F4CCC40CF097C08D3DEF
:104AC000910511F40C94C02E0CF041C08B3C910563
:104AD00009F4FCC7FCF48E3B910509F44FC534F48E
:104AE0008B39910509F401C50C948732883C9105F6
:104AF00009F484C7893C910511F00C94873280E653
:104B0000E82E82E0F82E05EF11E195E0C92E92E142
:104B1000D92EC4C78E3C910511F40C948B2E5CF4F5
:104B20008C3C910509F4EDC78D3C910511F40C9472
:104B3000F62D0C948732833D910511F40C94B02E20
:104B40008C3D910511F40C94B32E0C9487328F3266
:104B500041E0940711F40C94E32F04F58C32A1E0AA
:104B60009A0711F40C94632F64F4823E910511F4BA
:104B70000C942F2F8232914011F40C94582F0C94E6
:104B800087328D32F1E09F0711F40C948C2F8E3216
:104B9000914011F40C948F2F0C948732803931E0BE
:104BA000930711F40C9479307CF4803351E095072D
:104BB00011F40C94E62F8336914011F00C94873257
:104BC000E4E5F9E20C9466308139B1E09B0711F419
:104BD0000C947C308239914011F00C94873280E043
:104BE0000E9405860E94E0BF0C94D8328E3BF2E012
:104BF0009F0711F40C9447310CF04FC0863F31E011
:104C0000930711F40C9488302CF58C3A51E09507F9
:104C100011F40C94AD2E7CF4843AB1E09B0711F4AE
:104C20000C948230853A914011F00C9487320E94A6
:104C3000ABD20C94D832843FF1E09F0711F40C946E
:104C40008530853F914011F00C9487320E94ACCAA8
:104C50000C94D832883532E0930711F40C94BB30B1
:104C60006CF4873F51E0950711F40C948B30883F2A
:104C7000914011F40C9497300C9487328B35B2E04C
:104C80009B0711F40C94BE308D3B924011F00C94B4
:104C900087320E9453CD0C94D8328F38F3E09F07AF
:104CA00011F40C940A321CF5843833E0930711F4A4
:104CB0000C94AF317CF4833553E0950711F40C94D8
:104CC0004A318435934011F00C9487320E9488D089
:104CD0000C94D8328A38B3E09B0711F40C94073255
:104CE0008B38934011F40C94D8320C94873283396A
:104CF000F3E09F0711F40C9470326CF4803933E0C8
:104D0000930711F40C941F328239934011F40C94E0
:104D100022320C948732803A53E0950709F4FBC1A4
:104D2000873E934011F40C9473320C948732E0E97F
:104D3000F5E02CC5E6EDF3E083C0A0901105B0903E
:104D4000120580E50E94DE3A882359F00E94223A3B
:104D50006B017C0111E0672B682B692B31F410E0AB
:104D600004C010E0C12CD12C760183E50E94DE3A0C
:104D7000882311F40C94E2320E94623A20E030E081
:104D80004AE754E40F943E380F949F3A6B017C013C
:104D900011110BC0672B682B692B39F4A114B104D6
:104DA00021F0F5018081811102C010E001C011E005
:104DB0000E940171112329F061E0C5010E945DACE0
:104DC00005C060E08BEA93E00E94FF9483E080934B
:104DD0007A0681E080937906C114D104E104F104DC
:104DE000B1F00F94B821C60ED71EE81EF91E0F941D
:104DF000B821DC01CB018C199D09AE09BF09B7FFB1
:104E00000EC08091790681110C94E73208C0809120
:104E10007906882321F080E00E94E69BF8CF0E946B
:104E2000E575109279060C94D83260E08EEB93E031
:104E30000E94FF9417981698159814980C94D832DD
:104E400084918F010F5F1F4F882321F00E94043B44
:104E5000F801F6CF10929E118BEE9EE00E94074C57
:104E60008BE1EBEEFEE0DE01159601900D928A9546
:104E7000E1F78091E90E9091EA0E9C838B8386E2A4
:104E800093E09A83898340E050E0BE016F5F7F4FDB
:104E900080E090E00E94ACF4CE0101960E94DD53C8
:104EA000E7ECF3E084918F010F5F1F4F882311F42B
:104EB0000C94D8320E94043BF801F4CF0E947FD7B3
:104EC0000C94D832E0911105F0911205808188236D
:104ED00029F0803209F410823196F8CF40E061E089
:104EE00080911105909112050E947DD90C94D832C1
:104EF00080E090E0A8E4B2E489839A83AB83BC832A
:104F000018A219A21AA21BA21CA61DA61EA61FA6A5
:104F10008091060B882359F020E0AE014F5F5F4F70
:104F2000BE01605E7F4FCE018C960E949BB3809144
:104F3000BC0E882319F081E08093BB0E0E9466E3CB
:104F40000C94D8328091BC0E882311F40C94D83282
:104F500083E50E94DE3A81110C94EC320C94D83235
:104F600083E40E94953A882309F450C0E9E1F4E013
:104F700084918F010F5F1F4F882321F00E94043B13
:104F8000F801F6CF8091EC10811103C0ECEEF3E054
:104F900012C0BE016F5F7F4F89EE90E10E94CF4A41
:104FA0008E010F5F1F4FD8018D918D01882349F12C
:104FB0000E94043BF8CF84918F010F5F1F4F88231D
:104FC00001F10E94043BF801F6CF71E7C72E74E0AF
:104FD000D72EE12CF12C20E08091670490E00E2C7C
:104FE00002C0959587950A94E2F780FD07C2BFEF4E
:104FF000EB1AFB0AE2E0CE0ED11CF5E0EF16F1044D
:1050000059F78AE00E94043B0C94D8328091BC0E80
:10501000882339F08091BB0E882319F0E6EFF3E086
:1050200003C0E8E0F4E028C084918F010F5F1F4FB8
:10503000882321F00E94043BF801F6CF60919A1179
:1050400070919B1180919C1190919D114AE00E945A
:10505000AE3D8FE20E94043B6091961170919711D2
:1050600080919811909199114AE00E94AE3D8AE09A
:105070000E94043B0C94D83284918F010F5F1F4F24
:10508000882311F40C94D8320E94043BF801F4CF29
:105090000F94B6070C94D8328091BB0E81110E94F8
:1050A00001718091BC0E882311F40C94D83280E5F4
:1050B0000E94DE3A882319F00E94533A03C080E52B
:1050C0000E94953A182F482F61E080911105909128
:1050D00012050E947DD983E50E94DE3A882381F083
:1050E0000E94323AAB01BC0140939A1150939B113C
:1050F00060939C1170939D1189EE90E10F94960C32
:105100008091BC0E882319F081E08093BB0E1111B1
:105110000C94D83213CF809111059091120521E0A3
:105120002093BA0E40E060E00E947DD90C94D83202
:105130000E9417E37B018C0120E831E541E050E05B
:105140000F941A39C9016DE671E00F941E3C4B01B2
:105150005C01C801B70120E13EE040E050E00F945F
:105160001A39CA01B90128E130E040E050E00F945B
:105170001A39762E672EC62ED72EECE32E2E312C22
:10518000412C512CC801B701A20191010F941A3989
:10519000F62EE72ECA01B901A20191010F941A3926
:1051A000CB018E010F5F1F4F8114910499F0EF9294
:1051B000FF927F936F936F927F92BF92AF929F9275
:1051C0008F9280E594E09F938F931F930F930F949A
:1051D000133713C0A114B104B1F0EF92FF927F9383
:1051E0006F936F927F92BF92AF9280E494E09F930F
:1051F0008F931F930F930F9413370FB6F894DEBF5E
:105200000FBECDBF30C0CD2879F0EF92FF927F93D3
:105210006F936F927F9284E394E09F938F931F9399
:105220000F930F941337E9CF892B69F0EF92FF9218
:105230007F936F938CE294E09F938F931F930F93D0
:105240000F941337DACFEF92FF9288E294E09F93A6
:105250008F931F930F930F9413370F900F900F900E
:105260000F900F900F9060E0C8010E945DACE1ECE0
:10527000FFE284917F019FEFE91AF90A882321F068
:105280000E94043BF701F5CFB80184E694E00F9447
:10529000AC158AE00E94043B0C94D83283E50E944E
:1052A000DE3A882311F40C94D8320E94423AE82E58
:1052B00080E50E94DE3A882339F00E94423A182F96
:1052C00087FF03C00C94D8321DE089E40E94DE3AC7
:1052D000882341F00E94533A81110C949B33EBEBED
:1052E000F6E00BC089E40E94953AF6CF3196A6E02D
:1052F000E83EFA0711F40C949B3384911813F6CF0F
:105300000C9425330E9488E30C94D8320E949DE3CC
:105310000C94D83288E690E00E94193E81110C94DA
:10532000D8328091670483FF02C00C94D83283E5A1
:105330000E94DE3A882311F40C94D8320E94623A1B
:105340000F949A3A70933A066093390680E00E946F
:10535000A4E10E94623A20E030E04EEA52E40F9469
:10536000D937181614F40C94D8320E949DE30E9489
:10537000E5750C94D8328EE40E94DE3A882311F44D
:105380000C94D8320E94323A6093020B7093030B54
:105390008093040B9093050B0C94D83283E50E9404
:1053A000953A882359F083E50E94DE3A882319F064
:1053B0000E94423A01C080E080936704E1ECFFE282
:1053C00084918F010F5F1F4F811103C0EFE7F4E05D
:1053D00004C00E94043BF801F3CF84918F010F5F5A
:1053E0001F4F882321F00E94043BF801F6CF8091E3
:1053F00067048111EACDEBE7F4E018C0BB24B39455
:10540000B20E222319F08CE20E94043BF601859132
:105410009491FC0184918F010F5F1F4F882321F02D
:105420000E94043BF801F6CF2B2DE1CD84918F0132
:105430000F5F1F4F882309F4E4CD0E94043BF8015D
:10544000F5CF109256020C94D83286E894E00E9470
:10545000979B0E94BAB70C94D83283E50E94DE3A3B
:10546000811103C0E1ECFFE20DC00E94423A8D338E
:1054700020F4809331020C94D8328CE38093310273
:105480000C94D83284918F010F5F1F4F882321F035
:105490000E94043BF801F6CF4091310250E060E0F9
:1054A00070E08FE894E00F9459158AE00E94043B65
:1054B0000C94D83289E690E00E94193E811111C007
:1054C000E6E9F4E084918F010F5F1F4F882321F0FC
:1054D0000E94043BF801F6CF0E94009B8AE00E94E4
:1054E000043B10927A060C94B03383E50E94DE3AB6
:1054F000882311F40C94D8320E94423A182F8D332D
:1055000008F01CE31093B8050F94B8216B017C01DF
:10551000212F30E0A8EEB3E00F944639C60ED71E17
:10552000E81EF91EC092B405D092B505E092B6050A
:10553000F092B7050C94D8320F94DA020C94D8325A
:105540008091670483FF02C00C94D83283E50E94E7
:10555000DE3A882311F40C94D8320E94623A0F94F8
:105560009A3A6D37710514F06DE770E07093380664
:10557000609337060E9458E10C94D8320F940001D2
:105580000C94D83280E50E94DE3A811106C083E592
:105590000E94DE3A882361F006C00E94423A8111DF
:1055A0000C94D832F4CF0E94323A6F3F710510F05C
:1055B0006FEF70E070933C0660933B06F9C780E59F
:1055C0000E94DE3A811105C010923C0610923B0603
:1055D000EFC70E94323A672B09F0EAC7F5CF0E9465
:1055E00009BFE6C710926F03E3C781E080936F03A2
:1055F000DFC70E9469C2DCC783E50E94953A882311
:1056000009F4D6C70E94623A20E030E04AE754E449
:105610000F943E380F949F3A6093B0057093B10594
:105620008093B2059093B305C3C750E6C52E52E0F0
:10563000D52E65EEE62E68E0F62E10E0D6018D91AF
:105640006D010E94953A882309F459C0133009F07E
:105650004FC00E94623A4B015C0120E030E040EA1A
:1056600051E40F94D93787FF3AC0A50194016091A6
:10567000F1087091F2088091F3089091F4080F946A
:10568000323A2B013C019B01AC016091F111709108
:10569000F2118091F3119091F4110F943E386093C0
:1056A000F1117093F2118093F3119093F4116091C2
:1056B0001D1270911E1280911F12909120120F9452
:1056C000DD37A30192010F943E380F949F3A609307
:1056D0001D1270931E1280931F12909320128092BD
:1056E000F1089092F208A092F308B092F40807C073
:1056F0000E94623AF70160837183828393831F5F04
:10570000F4E0EF0EF11C143009F098CF0F946A18F2
:105710004FC70E94017183E50E94DE3A882309F495
:105720009BC80E94323A6230710509F095C80E9408
:10573000E0A18BE50E94043B6091A0057091A1055A
:105740008091A2059091A30542E00E946F3E409196
:10575000A4055091A5056091A6057091A7058EEA54
:1057600094E00F9476154091A8055091A905609199
:10577000AA057091AB058BEA94E00F9476158DE540
:105780000E94043B8AE00E94043B12C784918F016F
:105790000F5F1F4F882321F00E94043BF801F6CFD2
:1057A00060E080E895E00E94A9BF61E089E795E0AC
:1057B0000E94A9BF61E08EE695E00E94A9BF61E06A
:1057C0008EE595E00E94A9BF60E085E595E00E9426
:1057D000A9BF61E08BE495E00E94A9BF61E081E48C
:1057E00095E00E94A9BF61E089E395E00E94A9BF0E
:1057F00061E08BE295E00E94A9BF60E08DE195E059
:105800000E94A9BF60E08EE095E00E94A9BF60E021
:1058100080E095E00E94A9BF60E08AEE94E00E94DB
:10582000A9BF60E089ED94E00E94A9BF60E084EC2C
:1058300094E00E94A9BF61E081EB94E00E94A9BFBF
:10584000B7C68091110590911205DC012C9122239D
:1058500021F060E00E945DACABC60E94E575A8C671
:10586000009111051091120583E0D12C40E0815088
:10587000E1F0F8019081292F2B7F2134C1F721819C
:105880002133A9F7913421F0953421F441E002C08D
:10589000DD24D39498012E5F3F4F89012F5F3F4F46
:1058A000D8019C919032C9F3E2CF442369F0E1EC36
:1058B000FFE284917F01BFEFEB1AFB0A882321F0FE
:1058C0000E94043BF701F5CFDD2069F0E8E5F6E042
:1058D00084917F012FEFE21AF20A882321F00E94BF
:1058E000043BF701F5CFD8018D918D01882309F490
:1058F00088CB0E94043BF7CF0F94F21F59C6109239
:10590000A9061092A8060F94891F52C683E50E942B
:10591000DE3A882319F00E94323A02C060E070E05B
:105920008B01112702301105D4F0E4E5F9E28491EE
:105930008F010F5F1F4F811103C0ECE5F6E004C03B
:105940000E94043BF801F3CF84918F010F5F1F4F3A
:10595000882309F42DC60E94043BF801F5CF88E4A2
:105960000E94DE3A8823A9F00E94323A6F3A71050C
:105970003CF06332B1E07B072CF062E271E002C0E0
:105980006FEA70E0F801EE0FFF1FE754FE4E7183DF
:10599000608386E40E94DE3A8823A9F00E94323AAE
:1059A000F801EE0FFF1FE354FE4E718360836F3FDB
:1059B000710519F014F06FEF70E077FF02C060E03E
:1059C00070E07183608382E40E94DE3A882309F4E8
:1059D000EFC50E94323A6530710534F06F367105BB
:1059E0002CF06EE670E002C065E070E0000F111F61
:1059F000F801EB54FE4E71836083DAC588EC90E0C9
:105A00000E94193E8111D4C584E40E94953A8823EE
:105A100009F441C00E94623A6B017C0111E020E070
:105A200030E0A9010F94D937811101C010E0109323
:105A3000520C20E030E0A901C701B6010F94D9371C
:105A4000882349F10E94623AE091C10424E0E29F78
:105A5000F0011124E25BF34F6083718382839383AF
:105A600020E030E0A90160914E0C70914F0C8091C4
:105A7000500C9091510C0F94D93781110CC080E0DB
:105A800090E0A0EEBFE380934E0C90934F0CA09358
:105A9000500CB093510C0F94DA188AC5D7018D9130
:105AA0007D010E94953A882349F00E94623A0F9442
:105AB0009F3AF80160837183828393830C5F1F4F49
:105AC000C016D10659F70F94C91672C500E6E02E2C
:105AD00002E0F02E05EE11E1D7018D917D010E94CB
