:100000000C942D1F0C945E1F0C945E1F0C945E1FAD
:100010000C945E1F0C945E1F0C945E1F0C945E1F6C
:100020000C945E1F0D94B62C0D94042D0D94DD2CB4
:100030000C945E1F0C942B890C945E1F0C945E1F15
:100040000C945E1F0D94D6210C945E1F0C945E1FC1
:100050000C945E1F0C945E1F0C9486F60D94EE2E8D
:100060000C945E1F0C9412930C945E1F0C945E1FF4
:100070000C945E1F0C945E1F0C945E1F0C945E1F0C
:100080000C945E1F0C945E1F0C945E1F0C945E1FFC
:100090000C945E1F0C945E1F0C945E1F0C945E1FEC
:1000A0000C945E1F0C945E1F0C945E1F0C945E1FDC
:1000B0000C945E1F0C945E1F0C945E1F0C945E1FCC
:1000C0000C945E1F0C945E1F0C945E1F0C945E1FBC
:1000D0000C945E1F0C945E1F0C945E1F0C945E1FAC
:1000E0000C945E1FF088D688D988DC88DF88EB887E
:1000F000E288FC88E588E88869F31EF257F2A5F3E8
:1001000057F257F257F257F257F257F257F257F2A7
:1001100057F257F257F257F257F257F257F257F297
:1001200057F257F257F257F257F257F257F257F287
:1001300057F257F29FF357F257F257F257F257F22E
:1001400057F257F257F278F357F257F257F257F245
:1001500057F257F257F257F257F257F2BCF354F2F4
:100160000401480142014401460124011C011E0111
:100170002A010801FA004C01120118012401FC00B7
:10018000260116014001060132014E0152013A01D9
:10019000140128010C012E011A0150010201FE0078
:1001A0003A013E0138014A01084AD73B3BCE016E75
:1001B00084BCBFFDC12F3D6C74319ABD56833DDABE
:1001C0003D00C77F11BED9E4BB4C3E916BAAAABECD
:1001D000000000803F05A84CCDB2D44EB93836A9F6
:1001E000020C50B9918688083CA6AAAA2ABE000033
:1001F00000803F000D94842D0D94982D0D94792E40
:100200000D94691F0D946F2E0D946B2D0D940F2E70
:100210000D94802D0D94661F0D94422E0D94003B7D
:100220000D947D260D948E2D0D94322E0D94A02DBF
:100230000D94922D0D94562E0D94722D0D94762DB5
:100240000D94541C0D942A000D94A52D0D949C2DF5
:100250000D943A2E0D947C2D0D94561C0D944C2E1D
:100260000D94621F0D94142E0D94631F0D94AB3BDF
:100270000D948D2E0D94A12E0D9463000D94832E5C
:100280000D940A2E0D945D2D0D94612D0D94672D06
:100290000D946E2D0D94972E0D948A2D0D941E2E77
:1002A0000D94602E0D94282E6E616E00696E6600AE
:1002B0004E414E494E495459494E46CDCCCC3D0A4B
:1002C000D7233C17B7D13877CC2B329595E6241F2E
:1002D000B14F0A000020410000C84200401C4620E7
:1002E000BCBE4CCA1B0E5AAEC59D7400407A10F3BA
:1002F0005A00A0724E18090010A5D4E80000E87654
:1003000048170000E40B54020000CA9A3B000000AA
:10031000E1F505000080969800000040420F0000C3
:1003200000A08601000000102700000000E8030084
:100330000000006400000000000A0000000000014E
:1003400000000000002C76D888DC674F0823DFC14E
:10035000DFAE59E1B1B796E5E3E453C63AE6519909
:100360007696E8E6C28426EB898C9B62ED407C6F32
:10037000FCEFBC9C9F40F2BAA56FA5F490055A2AE9
:10038000F75C936B6CF9676DC11BFCE0E40D47FEF5
:10039000F520E6B500D0ED902E03009435770500EA
:1003A00080841E080000204E0A000000C80C333371
:1003B00033330F986E12831141EF8D2114893BE680
:1003C0005516CFFEE6DB18D1844B381BF77C1D9009
:1003D0001DA4BBE424203284725E228100C9F12472
:1003E000ECA1E53D27434F4D4D554E4943415449FE
:1003F0004F4E0044525952554E004552524F52539F
:1004000000494E464F004543484F0047322F47337F
:100410002062616420706172616D65746572730A37
:1004200000536C6565702E2E2E00205A3A20002055
:10043000593A200042656420583A20004D6573689F
:1004400020706F696E742063616E6E6F74206265D8
:10045000207265736F6C7665640A00436C69636B28
:1004600020746F20726573756D652E2E2E004E6F91
:10047000206D6F76652E00456E642066696C652080
:100480006C6973740A00426567696E2066696C6501
:10049000206C6973740A004D31323500286E6F206C
:1004A00066696C6529005344207072696E74696EC8
:1004B00067206279746520004E6F74205344207069
:1004C00072696E74696E670A0043757272656E7444
:1004D0002066696C653A20002569730025696D20E6
:1004E000256973002569682025696D2025697300D9
:1004F000256964202569682025696D2025697300B8
:1005000025697920256964202569682025696D2081
:10051000256973005072696E742074696D653A20A4
:100520000006040104FA03F303E5036F6666004462
:10053000454255473A004B494C4C45442E20004D0E
:100540003131332053006F6B005072757361206935
:1005500033204D4B33204F66662E002C20002C207C
:1005600000544845524D414C5F50524F54454354FE
:10057000494F4E004155544F5245504F52545F53CE
:10058000445F53544154555300454D455247454EE1
:1005900043595F50415253455200434153455F4CCC
:1005A000494748545F4252494748544E45535300C7
:1005B000544F47474C455F4C494748545300534FAD
:1005C0004654574152455F504F5745520042554996
:1005D0004C445F50455243454E54004C4556454CA3
:1005E000494E475F44415441005A5F50524F424583
:1005F000004155544F4C4556454C005052494E54BD
:100600005F4A4F420050524F4752455353004155A5
:10061000544F5245504F52545F54454D5000564F21
:100620004C554D455452494300454550524F4D009D
:1006300053455249414C5F584F4E5F584F46460014
:100640004649524D574152455F4E414D453A4D61E5
:10065000726C696E20312E312E39202847697468FA
:1006600075622920534F555243455F434F44455FC0
:1006700055524C3A68747470733A2F2F67697468D6
:1006800075622E636F6D2F4D61726C696E46697273
:100690006D776172652F4D61726C696E2050524F9B
:1006A000544F434F4C5F56455253494F4E3A312EAB
:1006B00030204D414348494E455F545950453A50CA
:1006C00072757361206933204D4B33204558545265
:1006D000554445525F434F554E543A312055554984
:1006E000443A63656465326132662D343161322D7E
:1006F000343734382D396231322D63353563363233
:100700006633363766660A002F2F20004D313435A8
:1007100020533C696E6465783E206F7574206F6667
:100720002072616E67652028302D31290A0020541F
:1007300000205200416363656C65726174696F6E7D
:100740003A2050003F4A206F7574206F6620726116
:100750006E67652028302E303120746F20302E33A4
:10076000290A0020466C6F773A2000000125311DD0
:1007700040FFFFFF2924301C45FFFFFF27232F1BCD
:100780000AFFFFFFFF43FFFF0406FFFFFF222B1AB4
:10079000FFFF42043803083650726F6265205A200A
:1007A0004F66667365743A200043290A0061626CE3
:1007B000656420286D696E2074656D702000436F3C
:1007C0006C6420657874727564657320617265204D
:1007D0000020643A0020693A0020703A004E6F20F1
:1007E00063617365206C696768740A0045455052FF
:1007F0004F4D204F4B0A003F5A206F7574206F6693
:100800002072616E676520282D323020746F20328F
:1008100030290A003A200050726F6265205A204F3A
:100820006666736574003F4B2076616C7565206F5A
:100830007574206F662072616E67652028302D31D7
:1008400030292E0A00416476616E6365204B3D00BD
:100850004163746976652045787472756465723A8F
:100860002000496E76616C696420657874727564E5
:1008700065720A0024F4D43050C38E20C2A24017FF
:10088000828B7011127A910D816CD90AA861E108EE
:10089000C7586607615143061E4B5D05C145A70455
:1008A0001A411104093D9803713931034036DB02C6
:1008B00065339102D4305402802E1D02632CEE0168
:1008C000752AC501B028A001102781018F25640178
:1008D0002B244B01E0223401AC211F018D200D019E
:1008E000801FFC00841EED00971DDF00B81CD200A5
:1008F000E61BC600201BBC00641AB200B219A80097
:100900000A19A0006A189900D117910040178B00AE
:10091000B516840031167E00B31579003A157300C0
:10092000C7146F0058146A00EE1366008813630042
:1009300025135E00C7125B006C125700151254009D
:10094000C111510070114F0021114B00D610490008
:100950008D1047004610440002104200C00F4000B6
:10096000800F3E00420F3C00060F3B00CB0E3800CC
:10097000930E37005C0E3500270E3400F30D320065
:10098000C10D3100900D3000600D2E00320D2D0094
:10099000050D2C00D90C2B00AE0C2900850C29006C
:1009A0005C0C2700350C27000E0C2600E80B2400F9
:1009B000C40B2400A00B23007D0B23005A0B210045
:1009C000390B2100180B2000F80A1F00D90A1E005D
:1009D000BB0A1E009D0A1D00800A1D00630A1C0040
:1009E000470A1B002C0A1B00110A1A00F7091A00FB
:1009F000DD091900C4091900AB0919009209170093
:100A00007B091800630917004C0916003609160007
:100A1000200916000A091500F5081500E008140061
:100A2000CC081400B8081400A4081400900813009F
:100A30007D0812006B0813005808120046081200C7
:100A400034081100230811001208110001081100D8
:100A5000F0071000E0071000D0071000C0071000DA
:100A6000B0070F00A107100091070E0083070F00C9
:100A700074070F0065070E0057070E0049070E00A8
:100A80003B070D002E070E0020070D0013070D0079
:100A900006070D00F9060C00ED060D00E0060C003F
:100AA000D4060C00C8060C00BC060C00B0060C00F6
:100AB000A4060B0099060C008D060B0082060B00A5
:100AC00077060B006C060B0061060A0057060B0048
:100AD0004C060A0042060A0038060A002E060A00E2
:100AE00024060A001A060A001006090007060A0072
:100AF000FD050900F4050900EB050900E205090000
:100B0000D9050900D0050900C7050900BE0509007F
:100B1000B5050800AD050800A50509009C050800FD
:100B2000940508008C050800840508007C05080071
:100B3000740508006C050700650508005D050700E1
:100B4000560508004E050700470507004005080048
:100B500038050700310507002A05070023050700AF
:100B60001C050600160507000F050700080506000E
:100B700002050700FB040600F5040700EE0406006A
:100B8000E8040600E2040700DB040600D5040600C2
:100B9000CF040600C9040600C3040600BD04060015
:100BA000B7040600B1040500AC040600A604060064
:100BB000A00405009B0406009504050090040600AF
:100BC0008A04050085040500800406007A040500F7
:100BD00075040500700405006B040500660405003B
:100BE000610405005C04050057040500520405007B
:100BF0004D04050048040500430405003E040400BC
:100C00003A04050035040500300404002C040500F6
:100C100027040400230405001E0404001A04040031
:100C200016040500110404000D0404000904050065
:100C30000404040000040400FC030400F80304009E
:100C4000F4030400F0030400EC030400E8030400D0
:100C5000E4030400E0030400DC030400D803040000
:100C6000D4030400D0030400CC030400C803030031
:100C7000C503030024F404D9201BC40C5C0E9804A3
:100C8000C4095F0265077101F405F900FB04B300B4
:100C900048048700C1036900580355000303450059
:100CA000BE023A008402310053022A0029022500C4
:100CB00004022000E4011C00C8011900AF01170064
:100CC00098011400840113007101100061011000EB
:100CD00051010E0043010D0036010B002B010B00EA
:100CE00020010B00150109000C0109000301080097
:100CF000FB000800F3000800EB000700E40006001A
:100D0000DE000600D8000600D2000600CC00050078
:100D1000C7000500C2000500BD000400B9000400C2
:100D2000B5000400B1000400AD000400A9000400F7
:100D3000A5000300A20003009F0004009B00030025
:100D40009800030095000200930003009000030048
:100D50008D0002008B000300880002008600020064
:100D600084000300810002007F0002007D00020079
:100D70007B0002007900020077000100760002008B
:100D80007400020072000100710002006F00020096
:100D90006D0001006C0002006A00010069000200A1
:100DA00067000100660001006500010064000200A8
:100DB0006200010061000100600001005F000200AC
:100DC0005D0001005C0001005B0001005A000100B1
:100DD00059000100580001005700010056000100B1
:100DE00055000100540001005300000053000100B1
:100DF0005200010051000100500001004F000100AD
:100E00004E0000004E0001004D0001004C000100AA
:100E10004B0000004B0001004A00010049000100A6
:100E200048000000480001004700010046000000A3
:100E3000460001004500000045000100440001009B
:100E40004300000043000100420000004200010096
:100E50004100000041000100400001003F0000008F
:100E60003F0001003E0000003E0001003D00000088
:100E70003D0001003C0000003C0000003C0001007F
:100E80003B0000003B0001003A0000003A00010076
:100E9000390000003900010038000000380000006F
:100EA0003800010037000000370001003600000064
:100EB000360000003600010035000000350000005B
:100EC000350001003400000034000000340001004F
:100ED0003300000033000000330001003200000046
:100EE000320000003200010031000000310000003B
:100EF000310001003000000030000000300001002F
:100F00002F0000002F0000002F0000002F00010024
:100F10002E0000002E0000002E0001002D00000019
:100F20002D0000002D0000002D0001002C0000000D
:100F30002C0000002C0000002C0001002B00000001
:100F40002B0000002B0000002B0001002A000000F5
:100F50002A0000002A0000002A00010029000000E9
:100F600029000000290000002900000029000100DC
:100F700028000000280000002800000028000000D1
:100F800028000100270000002700000027000000C3
:100F900027000000270001002600000026000000B6
:100FA00026000000260000002600010025000000A9
:100FB000250000002500000025000000250000009D
:100FC000250001002400000024000000240000008F
:100FD0002400000024000100230000002300000082
:100FE0002300000023000000230000002300000075
:100FF0002300010022000000220000002200000067
:101000002200000022000000220001002100000058
:10101000210000002100000021000000210000004C
:10102000210000002100010020000000200000003D
:101030002000000020000000200000002000000030
:1010400020000000200001001F0000001F00000021
:101050001F0000001F0000001F0000001F00000014
:101060001F0001001E0000001E0000001E00000006
:101070001E000000232C0000B822000056180000BB
:101080003A0F0000B8080000B1040000710200002F
:101090003E01000020746F6F206C6F6E67206578D2
:1010A00074727573696F6E2070726576656E7465A3
:1010B000640A0020636F6C642065787472757369CC
:1010C0006F6E2070726576656E7465640A007C3C94
:1010D0003E5E2B3D3F2F5B5D3B2C2A225C00457220
:1010E000726F722077726974696E6720746F204521
:1010F0004550524F4D210A00454550524F4D2064F6
:1011000061746173697A65206572726F722E0A006C
:10111000290A002062797465733B206372632000A2
:1011200053657474696E67732053746F72656420BD
:101130002800290A002062797465733B206372637A
:1011400020002073746F7265642073657474696E17
:101150006773207265747269657665642028002063
:101160002863616C63756C6174656429210A0020D1
:10117000213D2000454550524F4D20435243206DA4
:1011800069736D61746368202D202873746F7265B4
:10119000642920002053697A653A2000496E64650D
:1011A000783A2000204D61726C696E3D56353529C4
:1011B0000A0028454550524F4D3D00454550524F7D
:1011C0004D2076657273696F6E206D69736D617401
:1011D000636820004368616E67652066696C616DB5
:1011E000656E740050726F6265205A204F66667398
:1011F000657400466C6F7700466C6F7700466C6FC5
:10120000770046616E2073706565640046616E20EC
:1012100073706565640046616E2073706565640077
:101220004265640042656400426564004E6F7A7AEC
:101230006C65004E6F7A7A6C65004E6F7A7A6C65D9
:1012400000466164652048656967687400466164AA
:101250006520486569676874004661646520486573
:1012600069676874005370656564005370656564F0
:10127000005370656564004D61696E005072656869
:1012800065617420504C4120456E64005072656861
:1012900065617420504C412042656400507265685D
:1012A00065617420504C4100507265706172650038
:1012B000507265686561742041425320456E640038
:1012C0005072656865617420414253204265640034
:1012D00050726568656174204142530050726570B8
:1012E000617265004D343238005072656865617412
:1012F00020504C4100436F6F6C646F776E005072EA
:10130000656865617420414253004368616E67659A
:101310002066696C616D656E740044697361626C0E
:1013200065207374657070657273004D38340053B6
:10133000657420686F6D65206F66667365747300F1
:101340004661646520486569676874004661646544
:10135000204865696768740046616465204865696E
:10136000676874004F6666004F6E20004265642017
:101370004C6576656C696E67004C6576656C2062BD
:101380006564004732380A4732390043616C69624C
:1013900072617465205A004732380A4D3931350080
:1013A000486F6D65205A00473238205A00486F6DEB
:1013B00065205900473238205900486F6D65205824
:1013C000004732382058004175746F20686F6D6592
:1013D00000473238004D6F76652061786973004DA3
:1013E00061696E004D6F76652058004D6F766520FF
:1013F00059004D6F7665205A0045787472756465A2
:1014000072004D6F766520302E316D6D004D6F7618
:101410006520316D6D004D6F76652031306D6D004A
:101420004D6F7665206178697300457874727564D4
:101430006572004D6F7665205A004D6F76652059B4
:10144000004D6F766520580045787472756465723A
:10145000004D6F7665205A004D6F76652059004D1E
:101460006F76652058004F6666004F6E2000536F00
:10147000667420456E6473746F707300507265708B
:1014800061726500496E697469616C697A652045AD
:101490004550524F4D00436F6E74726F6C00526531
:1014A00073746F7265206661696C73616665004C68
:1014B0006F61642073657474696E677300496E6947
:1014C0007469616C697A6520454550524F4D0053EF
:1014D000746F72652073657474696E677300466912
:1014E0006C616D656E74004D6F74696F6E0054654C
:1014F0006D7065726174757265004D61696E005042
:101500007265686561742041425320636F6E6600A6
:101510005072656865617420504C4120636F6E663F
:10152000005049442D43005049442D430050494444
:101530002D43005049442D44005049442D4400504F
:1015400049442D49005049442D49005049442D50EB
:10155000005049442D500046616E207370656564EB
:101560000046616E2073706565640046616E20738D
:1015700070656564004265640042656400426564AC
:10158000004E6F7A7A6C65004E6F7A7A6C65004E09
:101590006F7A7A6C6500436F6E74726F6C0053746F
:1015A0006F72652073657474696E67730042656459
:1015B0000042656400426564004E6F7A7A6C650093
:1015C0004E6F7A7A6C65004E6F7A7A6C6500466170
:1015D0006E2073706565640046616E20737065658A
:1015E000640046616E2073706565640054656D70BB
:1015F0006572617475726500436172642072656D15
:101600006F766564004361726420696E73657274FD
:10161000656400021FFFFFFFFFFFFF600000000086
:1016200001FF400000000000FF8000000000007F7C
:1016300083CF00000C303F87FF80000C301F86797D
:1016400080000C000F8C30C7838C30E78C30CFC704
:10165000CC31F38C30DCECEC33B98C30D86C6C339F
:10166000198C30D06C0C33198C30D86C0C33198C2D
:1016700030DC6C0E3B198C30CF7C079F198C30C747
:101680007C038F1940000000000002600000000091
:1016900000061FFFFFFFFFFFF82020506C616E6EF9
:1016A000657242756666657242797465733A2000A8
:1016B0002046726565204D656D6F72793A20004352
:1016C0006F6D70696C65643A204D61722033312012
:1016D000323031390A00207C20417574686F723ACB
:1016E00020286E6F6E652C2064656661756C7420B1
:1016F000636F6E666967290A00323031382D3038E1
:101700002D303100204C6173742055706461746514
:10171000643A2000312E312E390A004D61726C6915
:101720006E0020536F667477617265205265736531
:10173000740A00205761746368646F672052657390
:1017400065740A002042726F776E206F75742052A4
:10175000657365740A002045787465726E616C204B
:1017600052657365740A00506F77657255700A0090
:1017700073746172740A006175746F25692E670055
:101780006572726F722077726974696E6720746F08
:101790002066696C650A00456E6473746F7073200F
:1017A000256320256320256320256300205A3A0005
:1017B00020593A0020583A00656E6473746F707354
:1017C000206869743A2000446F6E65207361766901
:1017D0006E672066696C652E0A004D3239004B49F0
:1017E0004C4C45442E200053544F505045442E201D
:1017F000005072696E7465722073746F70706564E6
:101800002064756520746F206572726F72732E206C
:1018100046697820746865206572726F7220616E07
:101820006420757365204D39393920746F207265D5
:1018300073746172742E202854656D7065726174C2
:101840007572652069732072657365742E20536507
:1018500074206974206166746572207265737461A6
:101860007274696E67290A004E6F20436865636B66
:1018700073756D2077697468206C696E65206E756C
:101880006D6265722C204C617374204C696E653AF0
:1018900020004E6F20436865636B73756D20776918
:1018A0007468206C696E65206E756D6265722C209F
:1018B0004C617374204C696E653A200063686563FF
:1018C0006B73756D206D69736D617463682C204C4A
:1018D000617374204C696E653A20004C696E652016
:1018E0004E756D626572206973206E6F74204C6155
:1018F0007374204C696E65204E756D6265722B3174
:101900002C204C617374204C696E653A20004D3177
:101910003130004D333100534420726561642065DD
:1019200072726F720A00446F6E65207072696E7415
:10193000696E672066696C650A0000060900FE078B
:1019400001920321207FFF07FF07FF000000060030
:10195000000107070602008080808080008003026B
:1019600002060105A0A00507070600005050F85028
:10197000F850500507070600002078A07028F020D6
:10198000050707060000C0C8102040981805070783
:101990000600006090A040A89068020303060104BE
:1019A000C04080030707060100204080808040205F
:1019B0000307070601008040202020408005050520
:1019C00006000120A870A8200505050600012020BA
:1019D000F820200203030602FFC040800501010633
:1019E0000003F8020202060200C0C0050505060059
:1019F00001081020408005070706000070888888CD
:101A000088887003070706010040C040404040E05E
:101A1000050707060000708808708080F805070732
:101A2000060000F81020100808F00507070600005F
:101A300010305090F81010050707060000F880F0ED
:101A400008088870050707060000708080F0888805
:101A500070050707060000F8081020202020050761
:101A600007060000708888708888700507070600E0
:101A70000070888878080870020505060200C0C05A
:101A800000C0C00206060602FFC0C000C0408004BD
:101A900007070600001020408040201005030306C1
:101AA0000002F800F804070706010080402010201B
:101AB00040800507070600007088081020002005F8
:101AC000070706000070880868A8A87005070706C1
:101AD0000000708888F8888888050707060000F0ED
:101AE0008888F08888F005070706000070888080E5
:101AF000808870050707060000F08888888888F0CD
:101B0000050707060000F88080F08080F8050707C9
:101B1000060000F88080F08080800507070600003E
:101B2000708880B888887005070706000088888854
:101B3000F8888888010707060200808080808080FE
:101B40008005070706000038101010109060050788
:101B5000070600008890A0C0A0908805070706002F
:101B600000808080808080F805070706000088D804
:101B7000A8888888880507070600008888C8A8986C
:101B8000888805070706000070888888888870059F
:101B90000707060000F08888F080808005070706A8
:101BA000000070888888A89068050707060000F084
:101BB0008888F0A09088050707060000788080706C
:101BC0000808F0050707060000F820202020202044
:101BD0000507070600008888888888887005070739
:101BE00006000088888888885020050707060000BE
:101BF0008888888888A850050707060000888850CC
:101C00002050888805070706000088888850202013
:101C100020050707060000F80810204080F8030799
:101C200007060100E08080808080E0050505060051
:101C3000018040201008030707060100E020202053
:101C40002020E0050303060004205088050101065A
:101C50000000F802020206020580400505050600A4
:101C60000070087888780507070600008080B0C8F3
:101C70008888F005050506000070808088700507DB
:101C8000070600000808689888887805050506009A
:101C9000007088F880700507070600003048E040B3
:101CA0004040400506060600FF70888878087005E9
:101CB00007070600008080B0C888888801070706EB
:101CC0000200800080808080800308080601FF20D9
:101CD0000020202020A040040707060000808090FC
:101CE000A0C0A090030707060100C040404040404C
:101CF000E0050505060000D0A8A8A8A8050505066A
:101D00000000B0C88888880505050600007088882E
:101D100088700506060600FFF08888F080800506BA
:101D2000060600FF78888878080805050506000083
:101D3000B0C880808005050506000070807008F03E
:101D40000407070600004040E0404040300505051C
:101D500006000088888898680505050600008888C0
:101D60008850200505050600008888A8A8500505AC
:101D70000506000088502050880506060600FF88EA
:101D80008888780870050505060000F8102040F8DE
:101D9000030707060100204040804040200107075C
:101DA0000602008080808080808003070706010093
:101DB00080404020404080050202060002689000FA
:101DC00000000600005A00590058000920000000D9
:101DD000000000000000000000003FFFF0000000D5
:101DE000000000000000000000380070000000004B
:101DF000000000000000000030FC30000000000087
:101E00000000000000000020FC10000000000000A6
:101E1000000000000000207810000000000000001A
:101E20000000000000203010000000000000000052
:101E3000000000002C00D03FC000000000000000A7
:101E40002082002E31D07FE0000000000000001052
:101E500041002F7BD07FE000000000000000104117
:101E6000002F7BD07FE000000000000000208200F7
:101E70002E31D03FC0000000000000004104002CC3
:101E800000D03FC0000000000000008208002030A9
:101E9000107FE000000000000000820800207810A1
:101EA0007FE00000000000000041040020FC107FE3
:101EB000E00000000000000020820030FC301F80A5
:101EC000000000000000000000003800700F00005B
:101ED000000000000000FFFFC03FFFF00600000010
:101EE0000000000000FFFFC0000000000000000034
:101EF000000000000000003FFFF0000000000000B4
:101F00000000000000003800700000000000000029
:101F100000000000003186300000000000000000DA
:101F200000000000238710000000000000000000F7
:101F30000000002787900000000000000000000063
:101F400000002F87D000000000000000000000000B
:101F5000002F03D03FC000000000000000208200DE
:101F60002030107FE0000000000000001041002041
:101F700078107FE000000000000000104100207891
:101F8000107FE000000000000000208200203010E0
:101F90003FC0000000000000004104002F03D03FBC
:101FA000C0000000000000008208002F87D07FE002
:101FB000000000000000008208002787907FE000FA
:101FC0000000000000004104002387107FE00000B3
:101FD00000000000002082003186301F80000000D9
:101FE000000000000000003800700F00000000003A
:101FF000000000FFFFC03FFFF006000000000000EF
:102000000000FFFFC000000050727573612069334B
:10201000204D4B332052656164792E005072696EF9
:1020200074696E672E2E2E005072696E7420706176
:1020300075736564004D313235004D323400507295
:10204000696E742061626F72746564004E6F205314
:10205000442063617264005072696E742066726F0E
:102060006D2053440053746F70207072696E740059
:10207000526573756D65207072696E740041626F90
:102080007574205072696E74657200506175736565
:10209000207072696E7400436F6E74726F6C0050C2
:1020A0007265706172650054756E6500496E666F89
:1020B0002073637265656E0050726F6265205A20EE
:1020C0004F666673657400202844525952554E2954
:1020D00000473239204175746F20426564204C6599
:1020E00076656C696E67003F20284C2C522C462C7C
:1020F0004229206F7574206F6620626F756E64735D
:102100002E0A003F2856296572626F7365206C6540
:1021100076656C20697320696D706C617573696296
:102120006C652028302D34292E0A00426164205A23
:102130002076616C75650A004E6F2062696C696E6D
:1021400065617220677269640A00486F74656E6425
:1021500020746F6F20636F6C640A004D3630303A24
:1021600020546F6F20636F6C6400486F74656E64F9
:1021700020746F6F20636F6C640A0046696C652081
:1021800064656C657465643A0044656C6574696F78
:102190006E206661696C65642C2046696C653A2026
:1021A0000050726F7465637465642050696E0A0034
:1021B00020573A004520436F6F6C696E672E2E2EB4
:1021C00000452048656174696E672E2E2E002057E9
:1021D0003A0042656420636F6F6C696E672E2E2E25
:1021E000004265642068656174696E672E2E2E005A
:1021F00000002200250028002B002E0031003400B2
:1022000002010000050108010B010000200023006D
:10221000260029002C002F003200000100000301DD
:102220000601090105050505070508080808020259
:1022300002020A0A08080404040401010101010160
:1022400001010303030303030303040707070C0C43
:102250000C0C0C0C0C0C020202020606060606060A
:1022600006060B0B0B0B0B0B0B0B07070A0A0A0AD4
:102270000A0A0505050404040808010210202008C4
:1022800008102040102040800201020108040201D1
:102290000102040810204080804020100804020140
:1022A0008004020180402010080402010804020199
:1022B0000102040810204080010204081020408020
:1022C0001008040880102040044080102040048042
:1022D00000000A0B02090C0D0E08070304010000A0
:1022E00000000000000000000000000000000000EE
:1022F00000000000000000000000000012111000AB
:1023000000000000000000000000000000000000CD
:1023100000000000000000000000000000000000BD
:102320000000000000004368616E67652066696C0C
:10233000616D656E7400556E6C6F61642066696CCA
:10234000616D656E74004C6F61642066696C616DCF
:10235000656E740050726568656174204142530077
:102360005072656865617420504C41004368616E2D
:1023700067652066696C616D656E74004D3234006E
:102380004D323320257300556E6B6E6F776E206370
:102390006F6D6D616E643A202200496E73657274D0
:1023A0002066696C616D656E7420616E6420707268
:1023B00065737320627574746F6E20286F72204D80
:1023C000313038290A0050726F62696E6720666189
:1023D000696C65640A0050726F62696E672066619D
:1023E000696C656400205A3A200020593A20004266
:1023F000656420583A20005053553A2047656E6571
:102400007269630050726F746F636F6C3A20312E83
:102410003000426175643A20313135323030004548
:10242000696E73792052616D626F0042696C696EEA
:10243000656172204C6576656C696E6700457874DD
:102440007275646572733A203100687474703A2F43
:102450002F6D61726C696E66772E6F7267005072B5
:10246000757361206933204D4B3300323031382D84
:1024700030382D303100312E312E39004D61726CE3
:10248000696E00546865726D6973746F727300428F
:102490006F61726420496E666F005072696E746578
:1024A0007220496E666F004D61696E004D373032A3
:1024B00020542564004D36303020423020542564AD
:1024C000004D373032203B2564004D3730312054E9
:1024D000256400556E6C6F61642066696C616D6582
:1024E0006E7400556E6C6F61642066696C616D6519
:1024F0006E74004D373032004D373031004C6F6113
:10250000642066696C616D656E74004D36303020F4
:102510004230004368616E67652066696C616D6575
:102520006E740050726570617265005052494E546D
:102530002050415553454400554E4C4F4144204690
:10254000494C414D454E54004C4F41442046494C66
:10255000414D454E54005075726765206D6F726530
:1025600000436F6E74696E756500524553554D4555
:10257000204F5054494F4E533A0020204E6F7A7AE4
:102580006C653A20006368616E6765006F66207451
:1025900068652066696C616D656E74005761697469
:1025A00020666F722073746172740020204E6F7AFF
:1025B0007A6C653A2000200066696C616D656E7406
:1025C00020756E6C6F6164005761697420666F726C
:1025D0000020204E6F7A7A6C653A20002000506C03
:1025E0006561736520776169742E2E2E00486561E0
:1025F00074696E67206E6F7A7A6C650020204E6F6A
:102600007A7A6C653A2000200068656174206E6FEC
:102610007A7A6C652E0050726573732062757474DB
:102620006F6E20746F0020204E6F7A7A6C653A20AE
:1026300000746F20636F6E74696E75652E2E2E00A8
:10264000616E6420707265737320627574746F6E4E
:1026500000496E736572742066696C616D656E7495
:102660000020204E6F7A7A6C653A2000200066695F
:102670006C616D656E74206C6F6164005761697484
:1026800020666F720020204E6F7A7A6C653A2000C7
:10269000200066696C616D656E7420707572676587
:1026A000005761697420666F7200746F20726573E1
:1026B000756D65005761697420666F72207072696C
:1026C0006E7400205A3A0020593A0020436F756E0C
:1026D0007420583A0020453A00205A3A0020593ACE
:1026E00000583A003A004361703A00205A002059DD
:1026F00000580020204D61783A2000205A002059CF
:1027000000580020204D696E3A20004F6E20004F87
:10271000666600536F667420656E6473746F7073C1
:102720003A200020633A0020643A0020693A0020F1
:10273000703A00496E76616C6964206578747275D0
:102740006465720A004B64200023646566696E65E7
:102750002044454641554C545F004B69200023649A
:102760006566696E652044454641554C545F004B93
:1027700070200023646566696E65204445464155B6
:102780004C545F00504944204175746F74756E65F8
:102790002066696E697368656421205075742074C1
:1027A0006865206C617374204B702C204B6920612C
:1027B0006E64204B6420636F6E7374616E7473205B
:1027C00066726F6D2062656C6F7720696E746F2022
:1027D000436F6E66696775726174696F6E2E680A01
:1027E00000504944204175746F74756E65206661B0
:1027F000696C6564212074696D656F75740A0045A4
:102800003120544845524D414C2052554E4157417C
:10281000590042454420544845524D414C205255A0
:102820004E4157415900546865726D616C20527574
:102830006E617761790045312048656174696E6722
:10284000206661696C656400426564206865617436
:10285000696E67206661696C6564004865617469CA
:102860006E67206661696C6564005049442041755B
:10287000746F74756E65206661696C65642120549F
:10288000656D706572617475726520746F6F206814
:102890006967680A00204B643A2000204B693A209F
:1028A00000204B703A20000A20436C617373696307
:1028B00020504944200A002054753A2000204B75CE
:1028C0003A2000206D61783A2000206D696E3A2030
:1028D0000020643A200020626961733A2000504968
:1028E00044204175746F74756E65206661696C650E
:1028F0006421204261642065787472756465722079
:102900006E756D6265720A00504944204175746F9E
:1029100074756E652073746172740A004F66660A7E
:1029200000466164652048656967687420004265F7
:1029300064204C6576656C696E6720004661696C41
:10294000656420746F20656E61626C652042656409
:10295000204C6576656C696E670A00486172646335
:102960006F6465642044656661756C74205365749A
:1029700074696E6773204C6F616465640A00DC05DE
:102980000000DC050000C800000088130000000003
:10299000484300004843000040410000F04200006E
:1029A000F8420000F842CD6CD3430080CF43202092
:1029B0004D393036003A0A0020286D6D290020205C
:1029C0004D3931340020204D363033200020550061
:1029D0004C0046696C616D656E74206C6F61642F8C
:1029E000756E6C6F6164206C656E677468733A0A0B
:1029F0000020204D393030204B004C696E656172EB
:102A000020416476616E63653A0A002059002058BF
:102A10000053656E736F726C65737320686F6D69B8
:102A20006E67207468726573686F6C643A0A002080
:102A30005430204500205A0020590020580053747B
:102A40006570706572206472697665722063757254
:102A500072656E743A0A00204B00204A0020204D17
:102A6000383532204900536B657720466163746FB7
:102A7000723A200A0020204D383531205A005A2D54
:102A800050726F6265204F66667365740020440063
:102A900020490020204D333034205000204C0020AD
:102AA000430020440020490020204D333031205085
:102AB000005049442073657474696E67733A0A0064
:102AC00020460020420020480020204D313435208F
:102AD00053004D6174657269616C2068656174753D
:102AE0007020706172616D65746572733A0A0020BE
:102AF0005A00204A00202047323920572049002020
:102B00005A0020204D3432302053004175746F201C
:102B1000426564204C6576656C696E673A0A0020F0
:102B20005A0020590020204D323036205800486F7E
:102B30006D65206F66667365743A0A00204A00204E
:102B4000540020530020204D3230352051002045C4
:102B50003C6D61785F655F6A65726B3E00204A3C40
:102B60006A756E635F6465763E00416476616E638C
:102B700065643A20513C6D696E5F7365676D656E83
:102B8000745F74696D655F75733E20533C6D696E4B
:102B90005F66656564726174653E20543C6D696E64
:102BA0005F74726176656C5F666565647261746599
:102BB0003E0020540020520020204D32303420505E
:102BC00000416363656C65726174696F6E2028757E
:102BD0006E6974732F7332293A20503C7072696E9B
:102BE000745F616363656C3E20523C726574726110
:102BF00063745F616363656C3E20543C74726176FC
:102C0000656C5F616363656C3E0A00204500205A75
:102C10000020590020204D3230312058004D61787D
:102C2000696D756D20416363656C65726174696F70
:102C30006E2028756E6974732F7332293A0A00204A
:102C40004500205A0020590020204D3230332058B2
:102C5000004D6178696D756D20666565647261749B
:102C600065732028756E6974732F73293A0A0020E2
:102C70004500205A0020590020204D3932205800AC
:102C800053746570732070657220756E69743A0AAA
:102C90000020204D3230302044300A0020204D32B8
:102CA00030302044002044697361626C65640A001E
:102CB00046696C616D656E742073657474696E67C6
:102CC000733A0020204D3134392043203B20556E8B
:102CD00069747320696E2043656C736975730A00AB
:102CE0002020473231202020203B004A756E63743B
:102CF000696F6E20446576004A756E6374696F6E05
:102D000020446576004D6F74696F6E00457374657D
:102D100070732F6D6D004573746570732F6D6D004A
:102D20005A73746570732F6D6D005A737465707388
:102D30002F6D6D005973746570732F6D6D0059732D
:102D4000746570732F6D6D005873746570732F6D9B
:102D50006D005873746570732F6D6D004D6F7469DD
:102D60006F6E0053746570732F6D6D004A65726BE2
:102D700000416363656C65726174696F6E005665CE
:102D80006C6F636974790050726F6265205A204FCE
:102D9000666673657400436F6E74726F6C004C6F7F
:102DA0006164206D6D004C6F6164206D6D004C6F2F
:102DB0006164206D6D00556E6C6F6164206D6D00F7
:102DC000556E6C6F6164206D6D00556E6C6F616443
:102DD000206D6D0046696C2E204469612E004669A5
:102DE0006C2E204469612E004F6666004F6E2000F5
:102DF0004520696E206D6D3300416476616E6365B8
:102E0000204B00416476616E6365204B00436F6E1A
:102E100074726F6C0043616E6E6F7420656E7465C2
:102E200072207375626469723A2000022E2E004D82
:102E300061696E004D61782054656D703A203132C1
:102E400035004D696E2054656D703A20350054424E
:102E500065643A4550434F53203130304B004D614B
:102E6000782054656D703A20333035004D696E20FE
:102E700054656D703A20350054303A204154432057
:102E800031303447542D3200627573793A207061C5
:102E90007573656420666F7220696E7075740A00C0
:102EA000627573793A2070617573656420666F721C
:102EB00020757365720A00627573793A2070726FBB
:102EC00063657373696E670A004B494C4C45442E29
:102ED00020004B494C4C2063617573656420627916
:102EE000204B494C4C20627574746F6E2F70696E64
:102EF0000A004B494C4C45442E20004B494C4C2079
:102F000063617573656420627920746F6F206D75DD
:102F1000636820696E6163746976652074696D65A4
:102F2000202D2063757272656E7420636F6D6D6104
:102F30006E643A2000506C6561736520726573653C
:102F400074005052494E5445522048414C54454417
:102F5000005072696E7465722068616C7465642ECD
:102F6000206B696C6C28292063616C6C6564210A94
:102F700000206472697665722063757272656E7482
:102F80003A2000656E7175657565696E672022006F
:102F900000008CC20000A0C19A99193E000048426E
:102FA0000000484200000041000000005761726EBE
:102FB000696E673A20486F6D696E672042756D7063
:102FC0002044697669736F72203C20310A00020246
:102FD0000400000000000000000000004000008C21
:102FE00043000066439AD95143FFFFFF00002110C0
:102FF000422063308440A550C660E7700881299163
:103000004AA16BB18CC1ADD1CEE1EFF1311210020A
:1030100073325222B5529442F772D66239931883B2
:103020007BB35AA3BDD39CC3FFF3DEE362244334D6
:1030300020040114E664C774A44485546AA54BB502
:1030400028850995EEE5CFF5ACC58DD553367226AA
:1030500011163006D776F6669556B4465BB77AA752
:1030600019973887DFF7FEE79DD7BCC7C448E558F6
:103070008668A7784008611802282338CCC9EDD9A2
:103080008EE9AFF9488969990AA92BB9F55AD44A4A
:10309000B77A966A711A500A333A122AFDDBDCCBF2
:1030A000BFFB9EEB799B588B3BBB1AABA66C877C16
:1030B000E44CC55C222C033C600C411CAEED8FFD42
:1030C000ECCDCDDD2AAD0BBD688D499D977EB66EEA
:1030D000D55EF44E133E322E511E700E9FFFBEEF92
:1030E000DDDFFCCF1BBF3AAF599F788F8891A98154
:1030F000CAB1EBA10CD12DC14EF16FE18010A1003E
:10310000C230E3200450254046706760B98398932D
:10311000FBA3DAB33DC31CD37FE35EF3B10290128D
:10312000F322D2323542145277625672EAB5CBA5F9
:10313000A89589856EF54FE52CD50DC5E234C324DD
:10314000A01481046674476424540544DBA7FAB7CD
:103150009987B8975FE77EF71DC73CD7D326F2362D
:103160009106B01657667676154634564CD96DC919
:103170000EF92FE9C899E9898AB9ABA9445865487D
:1031800006782768C018E1088238A3287DCB5CDB6D
:103190003FEB1EFBF98BD89BBBAB9ABB754A545ACD
:1031A000376A167AF10AD01AB32A923A2EFD0FED39
:1031B0006CDD4DCDAABD8BADE89DC98D267C076C1D
:1031C000645C454CA23C832CE01CC10C1FEF3EFF0D
:1031D0005DCF7CDF9BAFBABFD98FF89F176E367E6D
:1031E000554E745E932EB23ED10EF01E4D6573683F
:1031F00020706F696E742063616E6E6F74206265FB
:10320000207265736F6C7665640A004D343231202C
:10321000696E636F727265637420706172616D654F
:103220007465722075736167650A004F6666736521
:103230007473206170706C696564004572723A2025
:10324000546F6F206661722100546F6F2066617247
:103250002066726F6D207265666572656E636520AB
:10326000706F696E740A0020595A3A200020585A2B
:103270003A2000536B657720466163746F72205863
:10328000593A20006D696E5F736B65775F666163A5
:10329000746F723A20202D31206D61785F736B65F9
:1032A000775F666163746F723A2020310A00496E5D
:1032B000736572742066696C616D656E7420616EF1
:1032C0006420707265737320627574746F6E0A0087
:1032D000507265737320627574746F6E20746F2002
:1032E00068656174206E6F7A7A6C650A00496E7346
:1032F0006572742066696C616D656E7420616E64C0
:1033000020707265737320627574746F6E20286FFD
:1033100072204D313038290A00473238205A000ACD
:10332000486F6D696E67205A2064756520746F2040
:103330006C6F73742073746570730A000A43616C58
:103340006962726174696F6E2063757272656E7402
:103350003A205A000A506C6561736520686F6D658C
:10336000205A20617869732066697273740A004874
:103370006F6D6520257325732573206669727374DC
:10338000002066697273740A005A00590058004898
:103390006F6D65200053442063617264206F6B0A77
:1033A000006F70656E526F6F74206661696C656442
:1033B0000A00766F6C756D652E696E6974206661A2
:1033C000696C65640A00534420696E697420666103
:1033D000696C0A0057726974696E6720746F2066A1
:1033E000696C653A20006F70656E206661696C6576
:1033F000642C2046696C653A20006F70656E20660B
:1034000061696C65642C2046696C653A20004669E8
:103410006C652073656C65637465640A002053698C
:103420007A653A200046696C65206F70656E656448
:103430003A20002066696C653A2000646F696E6707
:10344000006672657368004E6F772000454E442019
:10345000535542524F5554494E450A002220706F31
:1034600073002220706172656E743A2200535542D7
:10347000524F5554494E452043414C4C2074617283
:103480006765743A22004B494C4C45442E20007429
:103490007279696E6720746F2063616C6C2073753C
:1034A000622D67636F64652066696C657320776958
:1034B000746820746F6F206D616E79206C6576651D
:1034C0006C732E204D4158206C6576656C206973B5
:1034D0003A004572726F723A006F70656E206661D5
:1034E000696C65642C2046696C653A200000060909
:1034F00000FE000000000001090008FE00000508B1
:103500000806000040F0C88888987810050808066A
:103510000000C0F88888888888F80505050600013D
:103520002030F830200508080600002070F8202020
:103530002020E00509090600FF2070A8A8B88888A7
:1035400070200509090600FFE080C0B0A8283028D7
:10355000280509090600FFF8A88888888888A8F83F
:10356000050A0A0600FE205050505088A8A888700E
:1035700003030306000340A04008FFFFFFFFFF0016
:1035800001010101016265640A002C2073797374E2
:10359000656D2073746F7070656421204865617477
:1035A00065725F49443A2000426564206865617431
:1035B000696E67206661696C65640048656174695D
:1035C0006E67206661696C656400453120486561FD
:1035D00074696E67206661696C6564004865617432
:1035E000696E67206661696C65640070012C0190EA
:1035F000012701B0012201C0011D01F001180110D5
:1036000002130130020E016002090190020401C0A0
:1036100002FF000003FA004003F5008003F000D031
:1036200003EB002004E6007004E100E004DC00404D
:1036300005D700C005D2004006CD00D006C80080E6
:1036400007C3003008BE00F008B900C009B400B0DC
:103650000AAF00B00BAA00D00CA500000EA00050CD
:103660000F9B00C01096005012910000148C00C0F7
:10367000158700B0178200B0197D00D01B780000BC
:103680001E730040206E0090226900F02464004008
:10369000275F0090295A00E02B5500102E50002083
:1036A000304B0010324600E033410090353C0010B2
:1036B00037370070383200A0392D00B03A2800A00A
:1036C0003B2300603C1E00103D1900903D1400108B
:1036D0003E0F00703E0A00C03E0500003F00004063
:1036E0003FFBFF803FF6FFC03FF1FF4531205448CC
:1036F00045524D414C2052554E415741590042458B
:103700004420544845524D414C2052554E4157415A
:103710005900546865726D616C2052756E617761F5
:1037200079004531204572723A204D415854454D3B
:1037300050004572723A204D415854454D50204238
:103740004544004D415854454D5020747269676797
:1037500065726564004531204572723A204D494ECC
:1037600054454D50004572723A204D494E54454DD6
:103770005020424544004D494E54454D50207472EE
:1037800069676765726564004D3834205820592098
:103790005A2045001000C90210012C0140012201ED
:1037A00070011801B0010E01F00104015002FA008D
:1037B000B002F0003003E600D003DC009004D20039
:1037C0007005C800A006BE000008B400B009AA0039
:1037D000D00BA000600E960060118C0000158200D6
:1037E00020197800C01D6E00A0226400B0275A0086
:1037F000902C500000314600E0343C00103832007C
:10380000903A2800603C1E00A03D1400803E0A0053
:10381000203F00004534004533004532004531006B
:103820004530005A32005932005832005A005900CF
:103830005800202F002042403A0020403A002575D1
:103840003A2530327500253032753A253032750010
:1038500025756420253032753A25303275003038B0
:103860002E382C3829382638233820381D381A3875
:1038700017381438747275650066616C73650020C2
:1038800074656D70657261747572652070726577AC
:1038900061726E207472696767657265643A2000B0
:1038A000207072657761726E20666C616720636C50
:1038B00065617265640A0020686F6D696E672073C8
:1038C000656E73697469766974793A20002063754E
:1038D0007272656E742064656372656173656420DD
:1038E000746F20006D41290A002064726976657248
:1038F000206F76657274656D70657261747572653E
:10390000207761726E696E67212028003A2000449A
:103910007269766572206572726F720073686F7279
:103920007420746F2067726F756E642028636F69EE
:103930006C2042290A0073686F727420746F2067CC
:10394000726F756E642028636F696C2041290A00CC
:103950006F76657274656D70657261747572650AF3
:103960000020647269766572206572726F722064DD
:10397000657465637465643A0A0043616E6E6F74C2
:10398000206F70656E2073756264697220006563D4
:10399000686F3A0020496E76616C696420657874BE
:1039A0007275646572200000008CC20000A0C19A8C
:1039B00099193E0000524300005243000052434216
:1039C000696C696E656172204C6576656C696E67BD
:1039D00020477269643A0A00486F6D696E67206615
:1039E00061696C656400486F6D652058592066698F
:1039F0007273740A00486F6D6520585920666972A9
:103A0000737400526573656E643A20006F6B00201A
:103A1000746F6F206C6F6E67206578747275736950
:103A20006F6E2070726576656E7465640A0020633F
:103A30006F6C6420657874727573696F6E20707234
:103A40006576656E7465640A005654726176206D01
:103A5000696E005654726176206D696E005654721C
:103A60006176206D696E00566D696E00566D696EE7
:103A700000566D696E00566D6178204500566D6187
:103A800078204500566D6178204500566D6178209C
:103A90005A00566D6178205A00566D6178205A00A0
:103AA000566D6178205900566D6178205900566D29
:103AB0006178205900566D6178205800566D617804
:103AC000205800566D61782058004D6F74696F6EF4
:103AD00000416D6178204500416D617820450041CD
:103AE0006D6178205A00416D6178205A00416D6106
:103AF00078205900416D6178205900416D6178202E
:103B00005800416D6178205800412D7472617665CE
:103B10006C00412D74726176656C00412D72657484
:103B20007261637400412D72657472616374004147
:103B30006363656C00416363656C004D6F74696F0E
:103B40006E00FFFDFCFAF8F6F4F2F0EEECEAE9E7BD
:103B5000E5E3E1E0DEDCDAD9D7D5D4D2D0CFCDCBE6
:103B6000CAC8C7C5C3C2C0BFBDBCBAB9B7B6B4B373
:103B7000B2B0AFADACAAA9A8A6A5A4A2A1A09E9DD3
:103B80009C9A99989795949392908F8E8D8B8A8911
:103B900088878684838281807F7E7D7B7A7978772F
:103BA000767574737271706F6E6D6C6B6A6968672D
:103BB000666564636261605F5E5D5C5B5A5958581C
:103BC0005756555453525150504F4E4D4C4B4A4AF4
:103BD0004948474646454443424241403F3E3E3DB8
:103BE0003C3B3B3A3938383736353534333232316D
:103BF00030302F2E2E2D2C2B2B2A29292827272613
:103C0000252524232322212120201F1E1E1D1C1CAC
:103C10001B1B1A1919181817161615151413131239
:103C2000121111100F0F0E0E0D0D0C0C0B0A0A09BC
:103C30000908080707060605050404030302020134
:103C40000000545249474745524544006F70656E25
:103C5000003A20007A5F6D696E00795F6D696E00D1
:103C6000785F6D696E005265706F7274696E67205F
:103C7000656E6473746F70207374617475730A0079
:103C800000000001000000010000800055555500B3
:103C90000000400033333300AAAA2A0049922400CE
:103CA00000002000C7711C0099991900D145170028
:103CB000555515003BB11300244912001111110094
:103CC000000010000F0F0F00E3380E0043790D00C5
:103CD000CCCC0C00C3300C00E8A20B0064210B001C
:103CE000AAAA0A00703D0A009DD80900427B09007B
:103CF00092240900DCD308008888080010420800DC
:103D000000000800F0C10700878707007550070012
:103D1000711C07003EEB0600A1BC0600699006007E
:103D200066660600703E06006118060017F405007E
:103D300074D105005BB00500B29005006272050009
:103D40005555050078390500B81E05000505050024
:103D50004EEC040087D40400A1BD040090A7040029
:103D600049920400C17D0400EE690400C7560400B6
:103D7000444404005C3204000821040041100400A3
:103D8000000004003FF00300F8E0030026D2030027
:103D9000C3C30300CCB503003AA803000A9B030089
:103DA000388E0300C08103009F750300D0690300B3
:103DB000505E03001D53030034480300913D03008F
:103DC0003333030016290300381F0300971503003F
:103DD000300C0300030303000BFA020049F1020058
:103DE000BAE802005CE002002DD802002DD00200EB
:103DF00059C80200B0C0020031B90200DAB10200B5
:103E0000AAAA0200A0A30200BC9C0200FA9502002C
:103E10005C8F0200DF88020082820200457C020083
:103E20002776020027700200436A02007C640200C9
:103E3000D05E02003F590200C8530200000021007A
:103E4000240027002A002D0030003300010100006B
:103E5000040107010A0136010E0111241FBECFEF34
:103E6000D1E2DEBFCDBF00E00CBF13E0A0E0B2E0C6
:103E7000E6E4F2E902E00BBF02C007900D92A4391C
:103E8000B107D9F729E1A4E9B3E001C01D92A13F30
:103E9000B207E1F71FE1CCE2DFE100E006C02197C5
:103EA0000109802FFE010F947A48CB32D10780E0C0
:103EB0000807A9F70F9456330D9412490C9400008B
:103EC0002F923F924F925F926F927F928F929F922A
:103ED000AF92BF92CF92DF92EF92FF920F931F9318
:103EE000CF93DF93CDB7DEB7CB56D1090FB6F89499
:103EF000DEBF0FBECDBF91E09093670780914A125D
:103F00008D3411F40C943528843511F40C948F36CB
:103F1000873411F00C94DB3620904812309049120F
:103F20002CE12216310409F464C6C4F444E02416DA
:103F3000310444F452E025163104ECF537FE34C068
:103F40000C94312884E02816310409F4E3C59BE180
:103F50002916310409F41DC60C943128AAE22A1648
:103F6000310409F424C764F4EDE12E16310409F498
:103F700045C6FEE12F16310409F444C60C943128DD
:103F80002BE52216310409F4EAC73CE52316310477
:103F900009F4E9C74AE52416310411F00C943128DC
:103FA000109298030C94DD3680915C0281110C9480
:103FB000E2360C94DD3680915C02882311F40C9477
:103FC000DD360F94250A82E50E944F8F882309F47D
:103FD0004CC10E94D38E4B015C0120E030E0A9016E
:103FE0000F94F243882309F470C180917A0790916D
:103FF0007B07A0917C07B0917D0788AF99AFAAAFEE
:10400000BBAF20917E0730917F0740918007509190
:1040100081072CAF3DAF4EAF5FAF80913B079091D2
:104020003C07A0913D07B0913E072C968CAF9DAF09
:10403000AEAFBFAF2C9720913F0730914007409122
:1040400041075091420728962CAF3DAF4EAF5FAF6E
:1040500028979C01AD0168AD79AD8AAD9BAD0F94F9
:10406000F24381110FC028962CAD3DAD4EAD5FAD32
:1040700028976CAD7DAD8EAD9FAD0F94F243882334
:1040800009F423C111E032E02316310409F010E0F5
:1040900020E030E0A901C501B4010F94F243881F6C
:1040A0008827881F181759F080E090E0A0E8BFEB40
:1040B00064968CAF9DAFAEAFBFAF64970AC020E0EF
:1040C00030E040E85FE364962CAF3DAF4EAF5FAFAA
:1040D000649728AD39AD4AAD5BAD2C966CAD7DAD26
:1040E0008EAD9FAD2C970F946E4560966CAF7DAFF3
:1040F0008EAF9FAF60972CAD3DAD4EAD5FAD2896B6
:104100006CAD7DAD8EAD9FAD28970F946E456B0164
:104110007C0160962CAD3DAD4EAD5FAD6097CA01A0
:10412000B9010F9457442B013C01A7019601C70127
:10413000B6010F9457449B01AC01C301B2010F9427
:104140006F450F94DA4724966CAF7DAF8EAF9FAF6B
:10415000249720E030E040E05FE30F9457442B01C8
:104160003C01A5019401C501B4010F9457444B01D2
:104170005C01A3019201C301B2010F9457449B015A
:10418000AC01C501B4010F946E450F94DA476496F3
:104190002CAD3DAD4EAD5FAD64970F9457444B01D0
:1041A0005C01C701B601905824962CAD3DAD4EADD3
:1041B0005FAD24970F944B46A50194010F9457448B
:1041C0006B017C012C962CAD3DAD4EAD5FAD2C97B7
:1041D00068AD79AD8AAD9BAD0F946F4520E030E0BE
:1041E00040E05FE30F9457449B01AC01C701B60167
:1041F0000F946F4528AD39AD4AAD5BAD0F946E4558
:104200006B017C0128962CAD3DAD4EAD5FAD28977E
:104210006CAD7DAD8EAD9FAD0F946F4520E030E06D
:1042200040E05FE30F9457442B013C0124962CADF2
:104230003DAD4EAD5FAD249760966CAD7DAD8EAD5E
:104240009FAD60970F944B46A50194010F9457447E
:104250009B01AC01C301B2010F946F452CAD3DAD84
:104260004EAD5FAD0F946E4514C089E40E944F8F30
:10427000882329F00E94D38E6B017C0103C0C12CDE
:10428000D12C76018AE40E944F8F882309F10E9485
:10429000D38E2C966CAF7DAF8EAF9FAF2C9720E066
:1042A00030E0A901C701B6010F94F24381111FC08C
:1042B00020E030E0A9012C966CAD7DAD8EAD9FADB8
:1042C0002C970F94F243811112C0E2EDF4E30EC477
:1042D00020E030E0A901C701B6010F94F243882322
:1042E000A1F32C961CAE1DAE1EAE1FAE2C97D701AF
:1042F000C601B05888AF99AFAAAFBBAF2C962CAD12
:104300003DAD4EAD5FAD2C9750582CAF3DAF4EAF8D
:104310005FAF9C01AD01BC01CD010F9457444B012F
:104320005C012CAD3DAD4EAD5FADCA01B9010F943E
:1043300057449B01AC01C501B4010F946F450F9424
:10434000DA47A0966CAF7DAF8EAF9FAFA0978091FC
:104350007A0790917B07A0917C07B0917D07289602
:104360008CAF9DAFAEAFBFAF2897A7019601BC0140
:10437000CD010F946F4564966CAF7DAF8EAF9FAF4C
:10438000649720917E0730917F074091800750917C
:10439000810760962CAF3DAF4EAF5FAF60972C9614
:1043A0002CAD3DAD4EAD5FAD2C9760966CAD7DAD47
:1043B0008EAD9FAD60970F946F45A4966CAF7DAFA7
:1043C0008EAF9FAFA49780913B0790913C07A0913F
:1043D0003D07B0913E0768968CAF9DAFAEAFBFAFC3
:1043E000689764962CAD3DAD4EAD5FAD6497BC0152
:1043F000CD010F946E456B017C0120913F073091F8
:10440000400740914107509142076C962CAF3DAF59
:104410004EAF5FAF6C97A4962CAD3DAD4EAD5FAD8A
:10442000A4976C966CAD7DAD8EAD9FAD6C970F94DF
:104430006E454B015C018091820790918307A091AA
:104440008407B0918507A8968CAF9DAFAEAFBFAF84
:10445000A8979C01AD01609143077091440780913A
:104460004507909146070F946E4524966CAF7DAF3B
:104470008EAF9FAF2497A701960168AD79AD8AAD45
:104480009BAD0F9457442B013C01A50194016CADE9
:104490007DAD8EAD9FAD0F9457449B01AC01C30120
:1044A000B2010F946F452B013C01A501940168AD49
:1044B00079AD8AAD9BAD0F9457444B015C01A701C8
:1044C00096016CAD7DAD8EAD9FAD0F9457449B01B1
:1044D000AC01C501B4010F946E45A30192010F9484
:1044E000E2456B017C0120E030E0A9010F94F2432A
:1044F00087FF0AC02BED3FE049EC50E4C701B6014D
:104500000F946F456B017C0192E02916310451F440
:104510002BED3FE049EC50E4C701B6010F946E4526
:104520006B017C0120E030E0A901C701B6010F94C6
:10453000F243811128C068962CAD3DAD4EAD5FAD04
:10454000689728966CAD7DAD8EAD9FAD28970F9482
:10455000F243811118C06C962CAD3DAD4EAD5FADF0
:104560006C9760966CAD7DAD8EAD9FAD60970F94EE
:10457000F243811108C00BEDC02E0FE0D02E09ECE4
:10458000E02E00E4F02EA7019601A0966CAD7DAD63
:104590008EAD9FADA0970F9457444B015C0120E076
:1045A00030E0A90124966CAD7DAD8EAD9FAD249712
:1045B0000F94F2438823E9F0A5019401C501B401E9
:1045C0000F9457444B015C0124962CAD3DAD4EAD8C
:1045D0005FAD2497CA01B9010F9457449B01AC0108
:1045E000C501B4010F946F450F94DA474B015C018C
:1045F0000DC020E030E0A901C501B4010F9495473A
:1046000087FF04C0B7FAB094B7F8B0942FE632E150
:1046100043E85AE3C501B4010F94F24387FF02C097
:104620000C94DD36C501B4010F94E4460F94B846EE
:104630002E967FAF6EAF2E97DB01AB2B31F4E1E00E
:10464000F0E02E96FFAFEEAF2E9740908607509089
:10465000870760908807709089072E962EAD3FAD32
:104660002E97B90180E090E00F94F6434B015C0176
:104670009B01AC01C701B6010F944B4628966CAF65
:104680007DAF8EAF9FAF2897A501940124966CADA6
:104690007DAD8EAD9FAD24970F944B46A0966CAF29
:1046A0007DAF8EAF9FAFA097A301920160914707A6
:1046B000709148078091490790914A070F946E4581
:1046C000A50194010F944B46AC966CAF7DAF8EAFB5
:1046D0009FAFAC9728962CAD3DAD4EAD5FAD289702
:1046E000CA01B9010F94574420E030E040E05FE395
:1046F0000F9457449B01AC0160E070E080E89FE3B9
:104700000F946E4568966CAF7DAF8EAF9FAF689784
:10471000A8968CAD9DADAEADBFADA89789879A87A1
:10472000AB87BC874D865E866F86788A609117025C
:1047300070911802072E000C880B990B0F94F84308
:1047400020915202309153024091540250915502EF
:104750000F9457442AE037ED43E25CE30F9457444B
:104760006CAB7DAB8EAB9FAB0F94E22E9B01AC018B
:1047700028533F4F4F4F5F4F6C962CAF3DAF4EAF1E
:104780005FAF6C9748AC59AC6AAC7BAC22242394E5
:10479000312C39E121963FAF21972E964EAD5FAD7A
:1047A0002E974215530509F44DC10E942CFC0F941D
:1047B000E22EDC01CB016C962CAD3DAD4EAD5FAD74
:1047C0006C97821B930BA40BB50BB7FD11C00F9414
:1047D000E22E9B01AC0128533F4F4F4F5F4F6C9629
:1047E0002CAF3DAF4EAF5FAF6C9780E00E9420DFF3
:1047F00021963FAD2197315021963FAF219733232A
:1048000009F445C02CAD3DAD4EAD5FAD68966CADC5
:104810007DAD8EAD9FAD68970F9457446B017C01C1
:104820009201A30128966CAD7DAD8EAD9FAD28970A
:104830000F945744A70196010F946F457B018C019B
:104840009201A30168966CAD7DAD8EAD9FAD68976A
:104850000F9457444B015C012CAD3DAD4EAD5FADA7
:1048600028966CAD7DAD8EAD9FAD28970F945744C3
:104870009B01AC01C501B4010F946E452B013C01B5
:10488000C701D8018CAF9DAFAEAFBFAF55C0B1016E
:1048900080E090E00F94F64328962CAD3DAD4EADF0
:1048A0005FAD28970F9457444B015C010F94484625
:1048B0006B017C01C501B4010F94D0474B015C0131
:1048C000A701960168AD79AD8AAD9BAD0F945744B1
:1048D0002B013C012C962CAD3DAD4EAD5FAD2C9720
:1048E000C501B4010F945744A30192010F946F4581
:1048F0002B013C01A501940168AD79AD8AAD9BAD5A
:104900000F9457444B015C012C962CAD3DAD4EAD40
:104910005FAD2C97C701B6010F9457449B01AC01C2
:10492000C501B4010F946E456CAF7DAF8EAF9FAFE4
:1049300049E121964FAF21979201A30164966CAD96
:104940007DAD8EAD9FAD64970F946F4569837A837B
:104950008B839C832CAD3DAD4EAD5FADA4966CAD0D
:104960007DAD8EAD9FADA4970F946F456D837E8313
:104970008F839887A0962CAD3DAD4EAD5FADA097CF
:1049800069857A858B859C850F946F4569877A87C1
:104990008B879C87AC962CAD3DAD4EAD5FADAC9793
:1049A0006D857E858F8598890F946F456D877E878D
:1049B0008F87988B80913102882321F0CE01019658
:1049C0000E9418DCE09068071CA61DA61EA61FA664
:1049D00089819A81AB81BC8188A399A3AAA3BBA337
:1049E0008D819E81AF81B8858CA39DA3AEA3BFA30B
:1049F00089859A85AB85BC8588A799A7AAA7BBA7F7
:104A0000AE01485D5F4FBE016C5D7F4FCE01809669
:104A10000F94482ACE018C966C018E010C5C1F4FBE
:104A20009E01235F3F4FAE01485D5F4FBE016C5D4D
:104A30007F4F0C970E942443882321F09FEF291A6F
:104A4000390AABCEE090680718AA19AA1AAA1BAABD
:104A500080913B0790913C07A0913D07B0913E07A4
:104A600088A399A3AAA3BBA380913F079091400775
:104A7000A0914107B09142078CA39DA3AEA3BFA311
:104A80008091430790914407A0914507B091460754
:104A900088A799A7AAA7BBA7AE01485D5F4FBE0133
:104AA0006C5D7F4FCE0180960F94482ADE01D09630
:104AB0006D018E010C5C1F4F27E437E0AE01485DAD
:104AC0005F4FBE016C5D7F4FCE0180960E942443F4
:104AD00080E1EBE3F7E0AAE7B7E001900D928A9559
:104AE000E1F70C94DD360E94758FF80184918F01F7
:104AF0000F5F1F4F8111F7CFEBE0F4E084918F013E
:104B00000F5F1F4F882311F40C94DD360E94758FC0
:104B1000F801F4CF80E50E944F8F882329F00E948E
:104B2000938E6B017C0103C0C12CD12C760183E5EF
:104B30000E944F8F882361F00E94D38E20E030E0E6
:104B40004AE754E40F9457440F94B8466B017C0134
:104B50000E941B558091F508811105C060E081E23B
:104B600094E00E94AD840F94E22EC60ED71EE81E7C
:104B7000F91E0F94E22EDC01CB018C199D09AE09C0
:104B8000BF09B7FD02C00C94DD3680E00E9420DF33
:104B9000F0CF0E9413EC81110C94DD3680E090E0A0
:104BA000A0E7B2EC89839A83AB83BC8380E090E07A
:104BB000A8E4B3E48D839E83AF83B88780E090E060
:104BC000A0EAB1E489879A87AB87BC8780E50E9419
:104BD0004F8F882319F00E94A38E01C060E068A364
:104BE000BE016F5F7F4FCE0180960F948C2B0C948B
:104BF000DD3680E00F94160F0C94DD360E94ECAA8F
:104C00000C94DD36C0907A07D0907B07E0907C074B
:104C1000F0907D0788E50E944F8F811109C020E048
:104C200030E04CE052E4C701B6010F946F4502C07A
:104C30000E94D38E68A379A38AA39BA3C0907E070A
:104C4000D0907F07E0908007F090810789E50E946F
:104C50004F8F811109C020E030E040EA51E4C701E4
:104C6000B6010F946E4502C00E94D38E9B01AC0129
:104C700069837A838B839C8368A179A18AA19BA194
:104C80000E940ADE882311F40C94DD3680E00F9434
:104C9000800C0F94C80D85E40E944F8F882321F06B
:104CA0000E94C48E182F04C085E40E94068F11E074
:104CB00086E50E944F8F882321F00E94A38E262F25
:104CC00001C021E0412FBE016F5F7F4FCE01809672
:104CD0000E94EAB06B017C019B01AC010F941B4860
:104CE00081115FC088A099A0AAA0BBA020E030E0FD
:104CF000A901C501B4010F94F24387FF05C027E164
:104D000037EB41E558EB04C027E137EB41E558E3C9
:104D1000C501B4010F946F45AB01BC0184E394E07D
:104D20000F94192389809A80AB80BC8020E030E00A
:104D3000A901C501B4010F94F24387FF05C027E123
:104D400037EB41E558EB04C027E137EB41E558E389
:104D5000C501B4010F946F45AB01BC018FE294E033
:104D60000F94192320E030E0A901C701B6010F9488
:104D7000F24387FF05C027E137EB41E558EB04C05C
:104D800027E137EB41E558E3C701B6010F946F45C2
:104D9000AB01BC018AE294E00F9419238AE00E94DF
:104DA000758F0F94AF0D0E9402C70C94DD36809171
:104DB0005C02882311F40C94DD3689E40E944F8F45
:104DC000082F882321F00E94A38EE62E01C0E12C3B
:104DD0008AE40E944F8F182F882321F00E94A38E0F
:104DE000F62E01C0F12C002319F0B2E0BE1528F018
:104DF000112389F0E2E0EF1570F4ECE3F4E0849124
:104E00008F010F5F1F4F882311F40C94DD360E9431
:104E1000758FF801F4CF0E94618F0023F1F020918B
:104E20001604309117044E2D4203B001439F700DBC
:104E3000112480910D0490910E04680F791F072EA4
:104E4000000C880B990B0F94F84360933B07709309
:104E50003C0780933D0790933E071123F1F020918A
:104E60001804309119045F2D5203B001539F700D47
:104E7000112480910F0490911004680F791F072E60
:104E8000000C880B990B0F94F84360933F077093C5
:104E90004007809341079093420780E50E944F8F1F
:104EA0008823E9F00E94C48E8823A9F10023D9F059
:104EB00020E030E04CE052E460913B0770913C0709
:104EC00080913D0790913E070F946E4560933B079C
:104ED00070933C0780933D0790933E0704C080E5A4
:104EE0000E94068FE1CF1123B1F020E030E040EACC
:104EF00051E460913F077091400780914107909184
:104F000042070F946F4560933F077093400780936B
:104F100041079093420786E40E944F8F8823D9F07F
:104F20000E94D38E6B017C0120E030E0A9010F9438
:104F30009547181684F420E030E040E752E4C701BA
:104F4000B6010F944B4660935202709353028093C4
:104F50005402909355020F9451140C94DD369093A3
:104F600098030C94DD36FEE62F2EF2E03F2EA5EDE1
:104F7000EA2EA8E0FA2E8AE797E099AF88AFBAE662
:104F8000CB2EB7E0DB2E00E010E0D1018D911D01AA
:104F90000E944F8F882309F44BC00E94D38E2B01AF
:104FA0003C01133049F0F601208131814281538167
:104FB0000F946E452B013C01A8ADB9AD2D913D91EB
:104FC0004D915C91C301B2010F946E454B015C01A0
:104FD0002DEB37E346E855EB0F94954787FD0AC064
:104FE0002DEB37E346E855E3C501B4010F94F243D6
:104FF0001816F4F4133051F4409286075092870744
:10500000609288077092890701E012C0A50194019F
:10501000F70160817181828193810F946F45D7017F
:105020006D937D938D939C931397812F0F94D7103D
:105030001F5FB4E0EB0EF11CE8ADF9AD3496F9AFAB
:10504000E8AFF4E0CF0ED11C143009F09ECF00235E
:1050500021F086E897E00E9497EB0E9402C70C942B
:10506000DD360E9442B50C94DD3680914812909155
:1050700049128139910511F40C9487300CF019C153
:105080008235910509F4AFC60CF098C08A319105BC
:1050900009F459C3ECF58431910509F44CC27CF450
:1050A0008131910509F4C2C22CF4029708F446C27A
:1050B0000C948C36429709F49DC60C948C3687313B
:1050C000910509F400C374F48531910509F4F7C220
:1050D000469711F00C948C361092290F10922A0FDB
:1050E0000C94DD368831910509F403C3499711F01A
:1050F0000C948C361092290F0E94EDF887E994E009
:1051000090933307809332070E94ED8D0C94DD3627
:105110008032910509F4C1C30CF58D31910511F46C
:105120000C94DD3694F48B31910509F41AC34C9735
:1051300011F00C948C3640E060E080914612909122
:1051400047120E94FFEF0C94DD368E31910509F471
:10515000A0C34F9709F4EDC30C948C368C349105A1
:1051600009F4D1C46CF48A32910509F498C48B34E3
:10517000910511F00C948C360E94CBF80C94DD361E
:105180008D34910509F4C3C48135910511F00C9457
:105190008C360E9417F90E944255109227071092F0
:1051A000260768EE73E080E090E00E94309B60E0AC
:1051B00089E495E00E94AD840C94DD368F3691052C
:1051C00009F4EDC4BCF58936910509F474C5CCF435
:1051D0008535910509F411C654F48335910509F418
:1051E00005C68435910509F405C60C948C368C35BA
:1051F000910509F41BC68836910509F48CC40C94FA
:105200008C368C36910509F41DC554F48A36910507
:1052100009F4B9C58B36910509F4D2C50C948C36C6
:105220008D36910509F489C58E36910509F4A4C41B
:105230000C948C368637910509F413C7CCF4823769
:10524000910509F467C654F48037910509F4FEC44A
:105250008137910509F402C50C948C36833791058A
:1052600009F466C18537910509F4ECC60C948C36B7
:105270008937910509F444C794F48737910509F4F7
:105280003CC78837910511F00C948C3681E08093EF
:105290008704809386040F94222C0C94DD368D377E
:1052A000910509F49DC58C38910509F44AC50C9403
:1052B0008C368A3921E0920709F4CCC40CF097C0EF
:1052C0008D3D910511F40C94C1320CF041C08B3C22
:1052D000910509F4FCC7FCF48E3B910509F44FC518
:1052E00034F48B39910509F401C50C948C36883C53
:1052F000910509F484C7893C910511F00C948C3612
:105300008EE6E82E82E0F82E09E213E199E3C92E39
:1053100093E1D92EC4C78E3C910511F40C948C32C4
:105320005CF48C3C910509F4EDC78D3C910511F4BA
:105330000C94F7310C948C36833D910511F40C9448
:10534000B1328C3D910511F40C94B4320C948C362E
:105350008F3241E0940711F40C94E43304F58C325D
:10536000A1E09A0711F40C94643364F4823E910531
:1053700011F40C9430338232914011F40C9459336F
:105380000C948C368D32F1E09F0711F40C948D3320
:105390008E32914011F40C9490330C948C368039F9
:1053A00031E0930711F40C947A347CF4803351E0AB
:1053B000950711F40C94E7338336914011F00C9467
:1053C0008C36E2EDF4E30C9467348139B1E09B074D
:1053D00011F40C947D348239914011F00C948C3688
:1053E00080E00F9435100E9402C70C94DD368E3B8E
:1053F000F2E09F0711F40C9448350CF04FC0863F43
:1054000031E0930711F40C9489342CF58C3A51E077
:10541000950711F40C94AE327CF4843AB1E09B070A
:1054200011F40C948334853A914011F00C948C362D
:105430000E9431E90C94DD36843FF1E09F0711F4BE
:105440000C948634853F914011F00C948C360E9468
:10545000CFD10C94DD36883532E0930711F40C94EB
:10546000BC346CF4873F51E0950711F40C948C34F4
:10547000883F914011F40C9498340C948C368B3501
:10548000B2E09B0711F40C94BF348D3B924011F0B5
:105490000C948C360E94DBE30C94DD368F38F3E0FD
:1054A0009F0711F40C940B361CF5843833E09307F6
:1054B00011F40C94B0357CF4833553E0950711F466
:1054C0000C944B358435934011F00C948C360E942B
:1054D0000EE70C94DD368A38B3E09B0711F40C9488
:1054E00008368B38934011F40C94DD360C948C36CE
:1054F0008339F3E09F0711F40C9474366CF480390F
:1055000033E0930711F40C9420368239934011F460
:105510000C9423360C948C36803A53E0950709F4AA
:10552000FBC1873E934011F40C9477360C948C3673
:10553000E0E4F6E02CC5E6E8F4E083C0A090461273
:10554000B090471280E50E944F8F882359F00E9447
:10555000938E6B017C0111E0672B682B692B31F472
:1055600010E004C010E0C12CD12C760183E50E942C
:105570004F8F882311F40C94E7360E94D38E20E0DD
:1055800030E04AE754E40F9457440F94B8466B0157
:105590007C0111110BC0672B682B692B39F4A11406
:1055A000B10421F0F5018081811102C010E001C039
:1055B00011E00E941B55112329F061E0C5010E94F2
:1055C000E98405C060E08BE594E00E94AD8483E04F
:1055D0008093670781E080936607C114D104E104DA
:1055E000F104B1F00F94E22EC60ED71EE81EF91E8C
:1055F0000F94E22EDC01CB018C199D09AE09BF0985
:10560000B7FF0EC08091660781110C94EC3608C07C
:1056100080916607882321F080E00E9420DFF8CF88
:105620000E9412A1109266070C94DD3660E08EE6AF
:1056300094E00E94AD8417981698159814980C94CD
:10564000DD3684918F010F5F1F4F882321F00E9468
:10565000758FF801F6CF10920C1289E59FE00E9439
:1056600085DA8BE1E9E5FFE0DE01159601900D9208
:105670008A95E1F78091570F9091580F9C838B8307
:1056800088E293E09A83898340E050E0BE016F5F37
:105690007F4F80E090E00F94BB07CE0101960E94FF
:1056A0008BDEE7E7F4E084918F010F5F1F4F8823C3
:1056B00011F40C94DD360E94758FF801F4CF0E942E
:1056C00001EE0C94DD36E0914612F0914712808194
:1056D000882329F0803209F410823196F8CF40E017
:1056E00061E080914612909147120E94FFEF0C9466
:1056F000DD3680E090E0A8E4B2E489839A83AB834E
:10570000BC8318A219A21AA21BA21CA61DA61EA623
:105710001FA68091540B882359F020E0AE014F5F03
:105720005F4FBE01605E7F4FCE018C960E946FB4CA
:1057300080912A0F882319F081E08093290F0E941D
:10574000CBF80C94DD3680912A0F882311F40C9449
:10575000DD3683E50E944F8F81110C94F1360C9455
:10576000DD3683E40E94068F882309F450C0E9ECFB
:10577000F4E084918F010F5F1F4F882321F00E9476
:10578000758FF801F6CF80915A11811103C0ECE9B1
:10579000F4E012C0BE016F5F7F4F87E591E10E9488
:1057A000EF5F8E010F5F1F4FD8018D918D01882310
:1057B00049F10E94758FF8CF84918F010F5F1F4FC1
:1057C000882301F10E94758FF801F6CF71E2C72E90
:1057D00075E0D72EE12CF12C20E08091FB0390E0C6
:1057E0000E2C02C0959587950A94E2F780FD07C2BA
:1057F000BFEFEB1AFB0AE2E0CE0ED11CF5E0EF168C
:10580000F10459F78AE00E94758F0C94DD3680917F
:105810002A0F882339F08091290F882319F0E6EAAE
:10582000F4E003C0E8EBF4E028C084918F010F5F3F
:105830001F4F882321F00E94758FF801F6CF6091E9
:1058400008127091091280910A1290910B124AE08D
:105850000E941C928FE20E94758F609104127091D9
:10586000051280910612909107124AE00E941C9244
:105870008AE00E94758F0C94DD3684918F010F5F52
:105880001F4F882311F40C94DD360E94758FF801A8
:10589000F4CF0E9467AF0C94DD368091290F8111FF
:1058A0000E941B5580912A0F882311F40C94DD3639
:1058B00080E50E944F8F882319F00E94C48E03C098
:1058C00080E50E94068F182F482F61E080914612D4
:1058D000909147120E94FFEF83E50E944F8F88232B
:1058E00081F00E94A38EAB01BC014093081250933B
:1058F000091260930A1270930B1287E591E10E94DE
:10590000065A80912A0F882319F081E08093290F8D
:1059100011110C94DD3613CF8091461290914712ED
:1059200021E02093280F40E060E00E94FFEF0C94FC
:10593000DD360E947CF87B018C0120E831E541E0F6
:1059400050E00F943345C9016DE671E00F9437487C
:105950004B015C01C801B70120E13EE040E050E0AE
:105960000F943345CA01B90128E130E040E050E02E
:105970000F943345762E672EC62ED72EECE32E2EAF
:10598000312C412C512CC801B701A20191010F9477
:105990003345F62EE72ECA01B901A20191010F94F9
:1059A0003345CB018E010F5F1F4F8114910499F095
:1059B000EF92FF927F936F936F927F92BF92AF921D
:1059C0009F928F9280E095E09F938F931F930F9308
:1059D0000F942C4313C0A114B104B1F0EF92FF92C5
:1059E0007F936F936F927F92BF92AF9280EF94E01C
:1059F0009F938F931F930F930F942C430FB6F8949C
:105A0000DEBF0FBECDBF30C0CD2879F0EF92FF9240
:105A10007F936F936F927F9284EE94E09F938F9326
:105A20001F930F930F942C43E9CF892B69F0EF92CA
:105A3000FF927F936F938CED94E09F938F931F93CE
:105A40000F930F942C43DACFEF92FF9288ED94E0FE
:105A50009F938F931F930F930F942C430F900F904E
:105A60000F900F900F900F9060E0C8010E94E984A2
:105A7000EEE8F9E384917F019FEFE91AF90A8823A0
:105A800021F00E94758FF701F5CFB80184E195E010
:105A90000F944F238AE00E94758F0C94DD3683E5C6
:105AA0000E944F8F882311F40C94DD360E94B38E30
:105AB000E82E80E50E944F8F882339F00E94B38E34
:105AC000182F87FF03C00C94DD361DE089E40E9487
:105AD0004F8F882341F00E94C48E81110C94A83707
