:100000000C941E1F0C944F1F0C944F1F0C944F1FE9
:100010000C944F1F0C944F1F0C944F1F0C944F1FA8
:100020000C944F1F0D94FF290D944D2A0D94262AF0
:100030000C944F1F0C9422800C944F1F0C944F1F54
:100040000C944F1F0D94231F0C944F1F0C944F1FA3
:100050000C944F1F0C944F1F0C947BCF0D94FB2DD1
:100060000C944F1F0C94098A0C944F1F0C944F1F33
:100070000C944F1F0C944F1F0C944F1F0C944F1F48
:100080000C944F1F0C944F1F0C944F1F0C944F1F38
:100090000C944F1F0C944F1F0C944F1F0C944F1F28
:1000A0000C944F1F0C944F1F0C944F1F0C944F1F18
:1000B0000C944F1F0C944F1F0C944F1F0C944F1F08
:1000C0000C944F1F0C944F1F0C944F1F0C944F1FF8
:1000D0000C944F1F0C944F1F0C944F1F0C944F1FE8
:1000E0000C944F1FE77FCD7FD07FD37FD67FE27FF9
:1000F000D97FF37FDC7FDF7FE0E9AEE8E7E81CEA49
:10010000E7E8E7E8E7E8E7E8E7E8E7E8E7E8E7E877
:10011000E7E8E7E8E7E8E7E8E7E8E7E8E7E8E7E867
:10012000E7E8E7E8E7E8E7E8E7E8E7E8E7E8E7E857
:10013000E7E8E7E816EAE7E8E7E8E7E8E7E8E7E816
:10014000E7E8E7E8E7E8EFE9E7E8E7E8E7E8E7E82E
:10015000E7E8E7E8E7E8E7E8E7E8E7E833EAE4E8DC
:10016000040142013C013E01400124011E01200125
:100170002A010A01FA00460114011A012401FC00B7
:10018000260118013A0106012E0148014E013601EF
:10019000160128010E012C011C014C010201FE0078
:1001A0003601380132014401084AD73B3BCE016E8B
:1001B00084BCBFFDC12F3D6C74319ABD56833DDABE
:1001C0003D00C77F11BED9E4BB4C3E916BAAAABECD
:1001D000000000803F05A84CCDB2D44EB93836A9F6
:1001E000020C50B9918688083CA6AAAA2ABE000033
:1001F00000803F000D94912C0D94A52C0D94862D1C
:100200000D94B01C0D947C2D0D94782C0D941C2D08
:100210000D94B61C0D948D2C0D94973A0D944F2D82
:100220000D94CA230D94A3190D949B2C0D943F2D6E
:100230000D94AD2C0D949F2C0D94632D0D947F2C5B
:100240000D94832C0D94AF1C0D94B22C0D94A92CFD
:100250000D94472D0D94892C0D94592D0D94212D1D
:100260000D94B83A0D949A2D0D94A1190D94AE2DBC
:100270000D94902D0D94172D0D946A2C0D946E2CC9
:100280000D94742C0D947B2C0D94A42D0D94972C0F
:100290000D942B2D0D94B31C0D946D2D0D94352DB7
:1002A0006E616E00696E66004E414E494E4954596A
:1002B000494E46CDCCCC3D0AD7233C17B7D1387731
:1002C000CC2B329595E6241FB14F0A000020410047
:1002D00000C84200401C4620BCBE4CCA1B0E5AAE91
:1002E000C59D7400407A10F35A00A0724E180900A0
:1002F00010A5D4E80000E87648170000E40B54028B
:100300000000CA9A3B000000E1F5050000809698C5
:1003100000000040420F000000A086010000001015
:100320002700000000E80300000000640000000057
:10033000000A00000000000100000000002C76D838
:1003400088DC674F0823DFC1DFAE59E1B1B796E51E
:10035000E3E453C63AE651997696E8E6C28426EB82
:10036000898C9B62ED407C6FFCEFBC9C9F40F2BA95
:10037000A56FA5F490055A2AF75C936B6CF9676D2D
:10038000C11BFCE0E40D47FEF520E6B500D0ED9082
:100390002E0300943577050080841E080000204E4F
:1003A0000A000000C80C333333330F986E128311E8
:1003B00041EF8D2114893BE65516CFFEE6DB18D1BF
:1003C000844B381BF77C1D901DA4BBE42420328491
:1003D000725E228100C9F124ECA1E53D27434F4D17
:1003E0004D554E49434154494F4E00445259525580
:1003F0004E004552524F525300494E464F0045431E
:10040000484F0047322F4733206261642070617289
:10041000616D65746572730A00536C6565702E2E8C
:100420002E00205A3A200020593A200042656420CC
:10043000583A20004D65736820706F696E742063B0
:10044000616E6E6F74206265207265736F6C766585
:10045000640A00436C69636B20746F207265737566
:100460006D652E2E2E004E6F206D6F76652E004529
:100470006E642066696C65206C6973740A0042655D
:1004800067696E2066696C65206C6973740A004D3B
:1004900031323500286E6F2066696C65290053443F
:1004A000207072696E74696E6720627974652000CD
:1004B0004E6F74205344207072696E74696E670ABF
:1004C0000043757272656E742066696C653A20002F
:1004D0002569730025696D202569730025696820E9
:1004E00025696D20256973002569642025696820C8
:1004F00025696D20256973002569792025696420A7
:100500002569682025696D20256973005072696E20
:10051000742074696D653A2000FE03F903F203EB61
:1005200003DD036F66660044454255473A004B4978
:100530004C4C45442E20004D3131332053006F6B1D
:10054000005072757361206933204D4B33204F6624
:10055000662E002C20002C2000544845524D414C62
:100560005F50524F54454354494F4E004155544FEC
:100570005245504F52545F53445F53544154555366
:1005800000454D455247454E43595F5041525345F2
:100590005200434153455F4C494748545F425249DA
:1005A0004748544E45535300544F47474C455F4CC2
:1005B000494748545300534F4654574152455F50A2
:1005C0004F574552004255494C445F5045524345B0
:1005D0004E54004C4556454C494E475F44415441AA
:1005E000005A5F50524F4245004155544F4C4556BA
:1005F000454C005052494E545F4A4F420050524FB2
:100600004752455353004155544F5245504F525451
:100610005F54454D5000564F4C554D45545249433B
:1006200000454550524F4D0053455249414C5F588B
:100630004F4E5F584F4646004649524D574152452E
:100640005F4E414D453A4D61726C696E20312E31DD
:100650002E3920284769746875622920534F5552F6
:1006600043455F434F44455F55524C3A687474703C
:10067000733A2F2F6769746875622E636F6D2F4D03
:1006800061726C696E4669726D776172652F4D613A
:10069000726C696E2050524F544F434F4C5F564519
:1006A0005253494F4E3A312E30204D414348494E26
:1006B000455F545950453A50727573612069332033
:1006C0004D4B332045585452554445525F434F5586
:1006D0004E543A3120555549443A63656465326158
:1006E00032662D343161322D343734382D39623150
:1006F000322D6335356336326633363766660A0027
:100700002F2F20004D31343520533C696E646578BD
:100710003E206F7574206F662072616E67652028B9
:10072000302D31290A0020540020520041636365B6
:100730006C65726174696F6E3A2050003F4A206F99
:100740007574206F662072616E67652028302E30C8
:100750003120746F20302E33290A0020466C6F77C9
:100760003A2000000125311D40FFFFFF2924301CE5
:1007700045FFFFFF27232F1B0AFFFFFFFF43FFFF5C
:100780000406FFFFFF222B1AFFFF4204380308363E
:1007900050726F6265205A204F66667365743A2006
:1007A0000043290A0061626C656420286D696E202F
:1007B00074656D702000436F6C6420657874727589
:1007C00064657320617265200020643A0020693AF4
:1007D0000020703A004E6F2063617365206C69677A
:1007E00068740A00454550524F4D204F4B0A003F58
:1007F0005A206F7574206F662072616E67652028BD
:100800002D323020746F203230290A003A200050F7
:10081000726F6265205A204F6666736574003F4BA5
:100820002076616C7565206F7574206F662072612B
:100830006E67652028302D3130292E0A00416476FC
:10084000616E6365204B3D004163746976652045A8
:10085000787472756465723A2000496E76616C69CD
:10086000642065787472756465720A0024F4D4306B
:1008700050C38E20C2A24017828B7011127A910D44
:10088000816CD90AA861E108C7586607615143061F
:100890001E4B5D05C145A7041A411104093D98038B
:1008A000713931034036DB0265339102D430540292
:1008B000802E1D02632CEE01752AC501B028A0010F
:1008C000102781018F2564012B244B01E022340184
:1008D000AC211F018D200D01801FFC00841EED0046
:1008E000971DDF00B81CD200E61BC600201BBC0011
:1008F000641AB200B219A8000A19A0006A18990077
:10090000D117910040178B00B516840031167E0078
:10091000B31579003A157300C7146F0058146A00B4
:10092000EE1366008813630025135E00C7125B0098
:100930006C12570015125400C111510070114F0074
:1009400021114B00D61049008D104700461044007D
:1009500002104200C00F4000800F3E00420F3C00DA
:10096000060F3B00CB0E3800930E37005C0E3500AF
:10097000270E3400F30D3200C10D3100900D300010
:10098000600D2E00320D2D00050D2C00D90C2B0012
:10099000AE0C2900850C29005C0C2700350C2700C3
:1009A0000E0C2600E80B2400C40B2400A00B23002F
:1009B0007D0B23005A0B2100390B2100180B20005E
:1009C000F80A1F00D90A1E00BB0A1E009D0A1D005E
:1009D000800A1D00630A1C00470A1B002C0A1B002A
:1009E000110A1A00F7091A00DD091900C4091900D3
:1009F000AB091900920917007B0918006309170059
:100A00004C09160036091600200916000A091500BF
:100A1000F5081500E0081400CC081400B80814000C
:100A2000A4081400900813007D0812006B0813003E
:100A3000580812004608120034081100230811005B
:100A40001208110001081100F0071000E007100063
:100A5000D0071000C0071000B0070F00A10710005A
:100A600091070E0083070F0074070F0065070E0043
:100A700057070E0049070E003B070D002E070E001A
:100A800020070D0013070D0006070D00F9060C00E6
:100A9000ED060D00E0060C00D4060C00C8060C00A4
:100AA000BC060C00B0060C00A4060B0099060C0056
:100AB0008D060B0082060B0077060B006C060B0000
:100AC00061060A0057060B004C060A0042060A009F
:100AD00038060A002E060A0024060A001A060A0032
:100AE0001006090007060A00FD050900F4050900C3
:100AF000EB050900E2050900D9050900D005090048
:100B0000C7050900BE050900B5050800AD050800C8
:100B1000A50509009C050800940508008C0508003F
:100B2000840508007C050800740508006C050700B2
:100B3000650508005D050700560508004E0507001D
:100B40004705070040050800380507003105070084
:100B50002A050700230507001C05060016050700E7
:100B60000F0507000805060002050700FB04060044
:100B7000F5040700EE040600E8040600E20407009E
:100B8000DB040600D5040600CF040600C9040600F5
:100B9000C3040600BD040600B7040600B104050046
:100BA000AC040600A6040600A00405009B04060091
:100BB00095040500900406008A04050085040500DC
:100BC000800406007A040500750405007004050021
:100BD0006B04050066040500610405005C04050063
:100BE00057040500520405004D04050048040500A3
:100BF000430405003E0404003A04050035040500E2
:100C0000300404002C04050027040400230405001C
:100C10001E0404001A040400160405001104040054
:100C20000D04040009040500040404000004040089
:100C3000FC030400F8030400F4030400F0030400C0
:100C4000EC030400E8030400E4030400E0030400F0
:100C5000DC030400D8030400D4030400D003040020
:100C6000CC030400C8030300C503030024F404D923
:100C7000201BC40C5C0E9804C4095F026507710157
:100C8000F405F900FB04B30048048700C1036900C0
:100C90005803550003034500BE023A0084023100A8
:100CA00053022A002902250004022000E4011C004E
:100CB000C8011900AF011700980114008401130046
:100CC000710110006101100051010E0043010D007F
:100CD00036010B002B010B0020010B001501090050
:100CE0000C01090003010800FB000800F3000800E4
:100CF000EB000700E4000600DE000600D800060056
:100D0000D2000600CC000500C7000500C2000500A7
:100D1000BD000400B9000400B5000400B1000400E7
:100D2000AD000400A9000400A5000300A200030018
:100D30009F0004009B000300980003009500020040
:100D400093000300900003008D0002008B0003005D
:100D50008800020086000200840003008100020077
:100D60007F0002007D0002007B000200790002008B
:100D7000770001007600020074000200720001009A
:100D8000710002006F0002006D0001006C000200A3
:100D90006A000100690002006700010066000100AE
:100DA00065000100640002006200010061000100B2
:100DB000600001005F0002005D0001005C000100B6
:100DC0005B0001005A0001005900010058000100B9
:100DD00057000100560001005500010054000100B9
:100DE00053000000530001005200010051000100B7
:100DF000500001004F0001004E0000004E000100B5
:100E00004D0001004C0001004B0000004B000100B0
:100E10004A000100490001004800000048000100AC
:100E200047000100460000004600010045000000A8
:100E300045000100440001004300000043000100A0
:100E4000420000004200010041000000410001009A
:100E5000400001003F0000003F0001003E00000094
:100E60003E0001003D0000003D0001003C0000008C
:100E70003C0000003C0001003B0000003B00010082
:100E80003A0000003A00010039000000390001007A
:100E90003800000038000000380001003700000072
:100EA0003700010036000000360000003600010067
:100EB000350000003500000035000100340000005E
:100EC0003400000034000100330000003300000053
:100ED0003300010032000000320000003200010047
:100EE000310000003100000031000100300000003E
:100EF00030000000300001002F0000002F00000033
:100F00002F0000002F0001002E0000002E00000026
:100F10002E0001002D0000002D0000002D0000001B
:100F20002D0001002C0000002C0000002C0000000F
:100F30002C0001002B0000002B0000002B00000003
:100F40002B0001002A0000002A0000002A000000F7
:100F50002A000100290000002900000029000000EB
:100F600029000000290001002800000028000000DE
:100F700028000000280000002800010027000000D1
:100F800027000000270000002700000027000100C4
:100F900026000000260000002600000026000000B9
:100FA00026000100250000002500000025000000AB
:100FB000250000002500000025000100240000009D
:100FC0002400000024000000240000002400010090
:100FD0002300000023000000230000002300000085
:100FE0002300000023000000230001002200000075
:100FF0002200000022000000220000002200000069
:10100000220001002100000021000000210000005A
:10101000210000002100000021000000210001004B
:101020002000000020000000200000002000000040
:10103000200000002000000020000000200001002F
:101040001F0000001F0000001F0000001F00000024
:101050001F0000001F0000001F0001001E00000014
:101060001E0000001E0000001E000000232C0000D7
:10107000B8220000561800003A0F0000B80800001F
:10108000B1040000710200003E01000020746F6F87
:10109000206C6F6E6720657874727573696F6E204F
:1010A00070726576656E7465640A0020636F6C64A7
:1010B00020657874727573696F6E207072657665DD
:1010C0006E7465640A007C3C3E5E2B3D3F2F5B5D89
:1010D0003B2C2A225C004572726F72207772697411
:1010E000696E6720746F20454550524F4D210A00AC
:1010F000454550524F4D206461746173697A652093
:101100006572726F722E0A00290A00206279746576
:10111000733B20637263200053657474696E677358
:101120002053746F726564202800290A00206279B8
:101130007465733B2063726320002073746F726563
:10114000642073657474696E677320726574726964
:1011500065766564202800202863616C63756C6186
:1011600074656429210A0020213D20004545505224
:101170004F4D20435243206D69736D617463682045
:101180002D202873746F7265642920002053697ABA
:10119000653A2000496E6465783A2000204D6172FE
:1011A0006C696E3D563535290A0028454550524F29
:1011B0004D3D00454550524F4D2076657273696F25
:1011C0006E206D69736D6174636820004368616EA1
:1011D00067652066696C616D656E740050726F6240
:1011E00065205A204F666673657400466C6F770001
:1011F000466C6F7700466C6F770046616E207370A7
:101200006565640046616E207370656564004661C3
:101210006E20737065656400426564004265640019
:10122000426564004E6F7A7A6C65004E6F7A7A6C14
:1012300065004E6F7A7A6C6500466164652048658A
:101240006967687400466164652048656967687409
:10125000004661646520486569676874005370657D
:101260006564005370656564005370656564004D86
:1012700061696E005072656865617420504C412050
:10128000456E64005072656865617420504C412061
:10129000426564005072656865617420504C41007D
:1012A0005072657061726500507265686561742086
:1012B00041425320456E6400507265686561742038
:1012C0004142532042656400507265686561742034
:1012D0004142530050726570617265004D3432387E
:1012E000005072656865617420504C4100436F6F17
:1012F0006C646F776E00507265686561742041425E
:1013000053004368616E67652066696C616D656E48
:10131000740044697361626C6520737465707065F4
:101320007273004D38340053657420686F6D65200A
:101330006F6666736574730046616465204865690D
:101340006768740046616465204865696768740071
:101350004661646520486569676874004F66660089
:101360004F6E2000426564204C6576656C696E673F
:10137000004C6576656C20626564004732380A4728
:1013800032390043616C696272617465205A0047AA
:1013900032380A4D39313500486F6D65205A0047A3
:1013A0003238205A00486F6D652059004732382086
:1013B0005900486F6D652058004732382058004169
:1013C00075746F20686F6D6500473238004D6F7619
:1013D000652061786973004D61696E004D6F7665B7
:1013E0002058004D6F76652059004D6F7665205A64
:1013F000004578747275646572004361726420728E
:10140000656D6F766564004361726420696E736513
:101410007274656400021FFFFFFFFFFFFF600000A2
:10142000000001FF400000000000FF8000000000FD
:10143000007F83CF00000C303F87FF80000C301FFF
:10144000867980000C000F8C30C7838C30E78C309D
:10145000CFC7CC31F38C30DCECEC33B98C30D86CAA
:101460006C33198C30D06C0C33198C30D86C0C3335
:10147000198C30DC6C0E3B198C30CF7C079F198C9B
:1014800030C77C038F19400000000000026000009C
:10149000000000061FFFFFFFFFFFF82020506C61D7
:1014A0006E6E657242756666657242797465733AEE
:1014B00020002046726565204D656D6F72793A2077
:1014C00000436F6D70696C65643A204D6172203223
:1014D0003820323031390A00207C20417574686F21
:1014E000723A20286E6F6E652C2064656661756C9B
:1014F0007420636F6E666967290A00323031382DB7
:1015000030382D303100204C617374205570646187
:101510007465643A2000312E312E390A004D617213
:101520006C696E0020536F66747761726520526536
:101530007365740A00205761746368646F67205292
:10154000657365740A002042726F776E206F757440
:101550002052657365740A002045787465726E6167
:101560006C2052657365740A00506F776572557010
:101570000A0073746172740A006175746F25692EB4
:1015800067006572726F722077726974696E672086
:10159000746F2066696C650A00456E6473746F70C1
:1015A0007320256320256320256320256300205AAE
:1015B0003A0020593A0020583A00656E6473746FFF
:1015C0007073206869743A2000446F6E65207361FF
:1015D00076696E672066696C652E0A004D323900A7
:1015E0004B494C4C45442E200053544F50504544D9
:1015F0002E20005072696E7465722073746F707063
:1016000065642064756520746F206572726F7273F3
:101610002E2046697820746865206572726F72208A
:10162000616E6420757365204D39393920746F20DF
:10163000726573746172742E202854656D706572C2
:1016400061747572652069732072657365742E20EC
:1016500053657420697420616674657220726573C5
:1016600074617274696E67290A004E6F2043686561
:10167000636B73756D2077697468206C696E652083
:101680006E756D6265722C204C617374204C696EAE
:10169000653A20004E6F20436865636B73756D205B
:1016A00077697468206C696E65206E756D6265720D
:1016B0002C204C617374204C696E653A200063687D
:1016C00065636B73756D206D69736D617463682CF0
:1016D000204C617374204C696E653A20004C696E31
:1016E00065204E756D626572206973206E6F74207F
:1016F0004C617374204C696E65204E756D62657225
:101700002B312C204C617374204C696E653A20009B
:101710004D313130004D33310053442072656164E6
:10172000206572726F720A00446F6E652070726974
:101730006E74696E672066696C650A0000060900B0
:10174000FE0701920321207FFF07FF07FF00000033
:10175000060000010707060200808080808000806C
:10176000030202060105A0A005070706000050506D
:10177000F850F850500507070600002078A07028A0
:10178000F020050707060000C0C810204098180583
:1017900007070600006090A040A8906802030306B7
:1017A0000104C040800307070601002040808080BC
:1017B00040200307070601008040202020408005CC
:1017C000050506000120A870A820050505060001F2
:1017D0002020F820200203030602FFC040800501FC
:1017E00001060003F8020202060200C0C00505055A
:1017F00006000108102040800507070600007088D9
:10180000888888887003070706010040C040404070
:1018100040E0050707060000708808708080F80522
:101820000707060000F81020100808F00507070653
:10183000000010305090F81010050707060000F85F
:1018400080F008088870050707060000708080F0A7
:10185000888870050707060000F80810202020205F
:1018600005070706000070888870888870050707DC
:1018700006000070888878080870020505060200D6
:10188000C0C000C0C00206060602FFC0C000C040C3
:101890008004070706000010204080402010050348
:1018A00003060002F800F804070706010080402044
:1018B00010204080050707060000708808102000EF
:1018C0002005070706000070880868A8A8700507AB
:1018D00007060000708888F88888880507070600D2
:1018E00000F08888F08888F00507070600007088F7
:1018F0008080808870050707060000F08888888847
:1019000088F0050707060000F88080F08080F80561
:101910000707060000F88080F08080800507070632
:101920000000708880B88888700507070600008866
:101930008888F888888801070706020080808080F0
:101940008080800507070600003810101010906096
:101950000507070600008890A0C0A090880507072B
:10196000060000808080808080F805070706000060
:1019700088D8A8888888880507070600008888C84E
:10198000A8988888050707060000708888888888D6
:1019900070050707060000F08888F0808080050742
:1019A0000706000070888888A89068050707060069
:1019B00000F08888F0A0908805070706000078806E
:1019C00080700808F0050707060000F82020202096
:1019D0002020050707060000888888888888700509
:1019E00007070600008888888888502005070706B2
:1019F00000008888888888A85005070706000088A6
:101A0000885020508888050707060000888888507D
:101A1000202020050707060000F80810204080F865
:101A2000030707060100E08080808080E00505054F
:101A30000600018040201008030707060100E0208F
:101A400020202020E0050303060004205088050123
:101A500001060000F80202020602058040050505A5
:101A60000600007008788878050707060000808067
:101A7000B0C88888F0050505060000708080887071
:101A80000507070600000808689888887805050596
:101A90000600007088F880700507070600003048CF
:101AA000E0404040400506060600FF708888780840
:101AB000700507070600008080B0C8888888010785
:101AC00007060200800080808080800308080601ED
:101AD000FF200020202020A04004070706000080EF
:101AE0008090A0C0A090030707060100C0404040BE
:101AF0004040E0050505060000D0A8A8A8A80505F7
:101B000005060000B0C88888880505050600007035
:101B1000888888700506060600FFF08888F08080B7
:101B20000506060600FF788888780808050505067A
:101B30000000B0C880808005050506000070807038
:101B400008F00407070600004040E0404040300530
:101B500005050600008888889868050505060000C8
:101B600088888850200505050600008888A8A850A8
:101B70000505050600008850205088050606060069
:101B8000FF888888780870050505060000F8102091
:101B900040F8030707060100204040804040200134
:101BA0000707060200808080808080800307070688
:101BB000010080404020404080050202060002688B
:101BC000900000000600004D6F766520302E316DCC
:101BD0006D004D6F766520316D6D004D6F7665201F
:101BE00031306D6D004D6F76652061786973004509
:101BF00078747275646572004D6F7665205A004D79
:101C00006F76652059004D6F7665205800457874D1
:101C10007275646572004D6F7665205A004D6F765F
:101C2000652059004D6F76652058005072657061CF
:101C3000726500496E697469616C697A6520454511
:101C400050524F4D00436F6E74726F6C005265734B
:101C5000746F7265206661696C73616665004C6FB4
:101C600061642073657474696E677300496E69748A
:101C700069616C697A6520454550524F4D00537437
:101C80006F72652073657474696E67730046696C62
:101C9000616D656E74004D6F74696F6E0054656D93
:101CA0007065726174757265004D61696E00507285
:101CB00065686561742041425320636F6E66005011
:101CC00072656865617420504C4120636F6E6600D8
:101CD0005049442D43005049442D43005049442D60
:101CE00043005049442D44005049442D440050497C
:101CF000442D49005049442D49005049442D50007D
:101D00005049442D500046616E2073706565640033
:101D100046616E2073706565640046616E20737065
:101D20006565640042656400426564004265640064
:101D30004E6F7A7A6C65004E6F7A7A6C65004E6FE2
:101D40007A7A6C6500436F6E74726F6C0053746FB7
:101D500072652073657474696E6773004265640010
:101D600042656400426564004E6F7A7A6C65004E8D
:101D70006F7A7A6C65004E6F7A7A6C650046616E98
:101D80002073706565640046616E207370656564DC
:101D90000046616E2073706565640054656D706502
:101DA000726174757265001000C90210012C014047
:101DB00001220170011801B0010E01F0010401506F
:101DC00002FA00B002F0003003E600D003DC00901D
:101DD00004D2007005C800A006BE000008B400B020
:101DE00009AA00D00BA000600E960060118C0000C4
:101DF00015820020197800C01D6E00A0226400B07A
:101E0000275A00902C500000314600E0343C00106E
:101E1000383200903A2800603C1E00A03D1400803B
:101E20003E0A00203F0000453400453300453200A3
:101E30004531004530005A32005932005832005ABC
:101E400000590058004531204572723A204D4158E2
:101E500054454D50004572723A204D415854454DFD
:101E60005020424544004D415854454D5020747215
:101E700069676765726564004531204572723A2072
:101E80004D494E54454D50004572723A204D494ED1
:101E900054454D5020424544004D494E54454D5007
:101EA00020747269676765726564004D3834205824
:101EB0002059205A204500202F002042403A00207F
:101EC000403A0025753A2530327500253032753A92
:101ED000253032750025756420253032753A25305D
:101EE000327500431E411E3F1E3C1E391E361E33F6
:101EF0001E301E2D1E2A1E271E7472756500666117
:101F00006C7365002074656D7065726174757265BF
:101F1000207072657761726E20747269676765728E
:101F200065643A2000207072657761726E20666C7D
:101F3000616720636C65617265640A0020686F6D7B
:101F4000696E672073656E73697469766974793A2E
:101F500020002063757272656E742064656372651B
:101F60006173656420746F20006D41290A0020644C
:101F70007269766572206F76657274656D706572D0
:101F80006174757265207761726E696E67212028B1
:101F9000003A2000447269766572206572726F7231
:101FA0000073686F727420746F2067726F756E644F
:101FB0002028636F696C2042290A0073686F72746D
:101FC00020746F2067726F756E642028636F696C70
:101FD0002041290A006F76657274656D70657261C3
:101FE000747572650A002064726976657220657284
:101FF000726F722064657465637465643A0A005A8E
:1020000000590058000920000000000000000000F6
:10201000000000003FFFF000000000000000000092
:102020000000003800700000000000000000000008
:10203000000030FC30000000000000000000000044
:102040000020FC1000000000000000000000000064
:1020500020781000000000000000000000000020B8
:1020600030100000000000000000000000002C0004
:10207000D03FC0000000000000002082002E31D0C0
:102080007FE0000000000000001041002F7BD07FA7
:10209000E0000000000000001041002F7BD07FE036
:1020A000000000000000002082002E31D03FC00060
:1020B0000000000000004104002C00D03FC00000E0
:1020C00000000000008208002030107FE0000000C7
:1020D000000000008208002078107FE0000000006F
:1020E00000000041040020FC107FE0000000000020
:1020F000000020820030FC301F8000000000000043
:10210000000000003800700F000000000000000018
:10211000FFFFC03FFFF0060000000000000000FFCE
:10212000FFC00000000000000000000000000000F0
:10213000003FFFF000000000000000000000000071
:1021400038007000000000000000000000000031B6
:10215000863000000000000000000000000023871F
:102160001000000000000000000000000027879021
:102170000000000000000000000000002F87D000D9
:1021800000000000000000000000002F03D03FC04E
:10219000000000000000002082002030107FE000DE
:1021A0000000000000001041002078107FE00000D7
:1021B00000000000001041002078107FE0000000C7
:1021C000000000002082002030103FC0000000000E
:1021D0000000004104002F03D03FC00000000000B9
:1021E00000008208002F87D07FE000000000000080
:1021F000008208002787907FE000000000000000B8
:102200004104002387107FE0000000000000002050
:1022100082003186301F80000000000000000000B6
:10222000003800700F0000000000000000FFFFC039
:102230003FFFF0060000000000000000FFFFC000AC
:1022400000005072757361206933204D4B3320526A
:10225000656164792E005072696E74696E672E2E06
:102260002E005072696E7420706175736564004D44
:10227000313235004D3234005072696E7420616223
:102280006F72746564004E6F205344206361726402
:10229000005072696E742066726F6D205344005353
:1022A000746F70207072696E7400526573756D651D
:1022B000207072696E740041626F7574205072698B
:1022C0006E746572005061757365207072696E740A
:1022D00000436F6E74726F6C00507265706172654E
:1022E0000054756E6500496E666F20736372656594
:1022F0006E0050726F6265205A204F666673657477
:1023000000202844525952554E2900473239204165
:1023100075746F20426564204C6576656C696E67E4
:10232000003F20284C2C522C462C4229206F7574DB
:10233000206F6620626F756E64732E0A003F285608
:10234000296572626F7365206C6576656C206973B0
:1023500020696D706C61757369626C652028302D21
:1023600034292E0A00426164205A2076616C75651A
:102370000A004E6F2062696C696E65617220677237
:1023800069640A00486F74656E6420746F6F20631F
:102390006F6C640A004D3630303A20546F6F206302
:1023A0006F6C6400486F74656E6420746F6F206397
:1023B0006F6C640A0046696C652064656C657465C1
:1023C000643A0044656C6574696F6E206661696C7F
:1023D00065642C2046696C653A200050726F746504
:1023E000637465642050696E0A0020573A004520E6
:1023F000436F6F6C696E672E2E2E00452048656115
:1024000074696E672E2E2E0020573A0042656420B4
:10241000636F6F6C696E672E2E2E004265642068B4
:10242000656174696E672E2E2E0000002200250063
:1024300028002B002E0031003400020100000501AD
:1024400008010B01000020002300260029002C00B9
:102450002F003200000100000301060109010505FB
:102460000505070508080808020202020A0A08080A
:102470000404040401010101010101010303030338
:1024800003030303040707070C0C0C0C0C0C0C0CC7
:102490000202020206060606060606060B0B0B0BD8
:1024A0000B0B0B0B07070A0A0A0A0A0A05050504A3
:1024B0000404080801021020200808102040102001
:1024C00040800201020108040201010204081020F8
:1024D00040808040201008040201800402018040F6
:1024E000201008040201080402010102040810205F
:1024F0004080010204081020408010080408801069
:102500002040044080102040048000000A0B020993
:102510000C0D0E080703040100000000000000007D
:1025200000000000000000000000000000000000AB
:102530000000000000001211100000000000000068
:10254000000000000000000000000000000000008B
:10255000000000000000000000000000000000007B
:102560004368616E67652066696C616D656E7400B5
:10257000556E6C6F61642066696C616D656E740088
:102580004C6F61642066696C616D656E7400507299
:1025900065686561742041425300507265686561E9
:1025A0007420504C41004368616E67652066696C19
:1025B000616D656E74004D3234004D3233202573E9
:1025C00000556E6B6E6F776E20636F6D6D616E641C
:1025D0003A202200496E736572742066696C616DE1
:1025E000656E7420616E642070726573732062750D
:1025F00074746F6E20286F72204D313038290A00B4
:1026000050726F62696E67206661696C65640A006A
:1026100050726F62696E67206661696C6564002044
:102620005A3A200020593A200042656420583A2046
:10263000005053553A2047656E65726963005072C9
:102640006F746F636F6C3A20312E30004261756495
:102650003A203131353230300045696E737920527D
:10266000616D626F0042696C696E656172204C65D4
:1026700076656C696E67004578747275646572730F
:102680003A203100687474703A2F2F6D61726C6952
:102690006E66772E6F7267005072757361206933B2
:1026A000204D4B3300323031382D30382D30310051
:1026B000312E312E39004D61726C696E005468659F
:1026C000726D6973746F727300426F617264204936
:1026D0006E666F005072696E74657220496E666F27
:1026E000004D61696E004D37303220542564004D35
:1026F00036303020423020542564004D37303220AF
:102700003B2564004D3730312054256400556E6CF4
:102710006F61642066696C616D656E7400556E6CE6
:102720006F61642066696C616D656E74004D373051
:1027300032004D373031004C6F61642066696C6146
:102740006D656E74004D3630302042300043686154
:102750006E67652066696C616D656E7400507265A8
:1027600070617265005052494E5420504155534596
:102770004400554E4C4F41442046494C414D454E36
:1027800054004C4F41442046494C414D454E540065
:102790005075726765206D6F726500436F6E746966
:1027A0006E756500524553554D45204F5054494F65
:1027B0004E533A0020204E6F7A7A6C653A200063BF
:1027C00068616E6765006F66207468652066696C75
:1027D000616D656E74005761697420666F72207355
:1027E000746172740020204E6F7A7A6C653A200012
:1027F000200066696C616D656E7420756E6C6F612A
:1028000064005761697420666F720020204E6F7AF1
:102810007A6C653A20002000506C65617365207702
:102820006169742E2E2E0048656174696E67206E92
:102830006F7A7A6C650020204E6F7A7A6C653A2048
:1028400000200068656174206E6F7A7A6C652E00D6
:10285000507265737320627574746F6E20746F00AC
:1028600020204E6F7A7A6C653A2000746F20636F77
:102870006E74696E75652E2E2E00616E6420707206
:1028800065737320627574746F6E00496E73657240
:10289000742066696C616D656E740020204E6F7ADD
:1028A0007A6C653A2000200066696C616D656E7413
:1028B000206C6F6164005761697420666F7200203C
:1028C000204E6F7A7A6C653A2000200066696C6150
:1028D0006D656E742070757267650057616974204C
:1028E000666F7200746F20726573756D6500576155
:1028F000697420666F72207072696E7400205A3A93
:102900000020593A0020436F756E7420583A002019
:10291000453A00205A3A0020593A00583A003A0005
:102920004361703A00205A00205900580020204D81
:1029300061783A2000205A00205900580020204D8C
:10294000696E3A20004F6E20004F666600536F6636
:102950007420656E6473746F70733A200020633A5C
:102960000020643A0020693A0020703A00496E76EF
:10297000616C69642065787472756465720A004BD5
:1029800064200023646566696E65204445464155B0
:102990004C545F004B69200023646566696E6520B6
:1029A00044454641554C545F004B702000236465FC
:1029B00066696E652044454641554C545F00504958
:1029C00044204175746F74756E652066696E697315
:1029D000686564212050757420746865206C61738B
:1029E00074204B702C204B6920616E64204B642056
:1029F000636F6E7374616E74732066726F6D2062A4
:102A0000656C6F7720696E746F20436F6E666967BF
:102A100075726174696F6E2E680A005049442041D6
:102A200075746F74756E65206661696C65642120CC
:102A300074696D656F75740A0045312054484552BC
:102A40004D414C2052554E4157415900424544207A
:102A5000544845524D414C2052554E415741590022
:102A6000546865726D616C2052756E617761790092
:102A700045312048656174696E67206661696C65DF
:102A800064004265642068656174696E67206661F0
:102A9000696C65640048656174696E672066616988
:102AA0006C656400504944204175746F74756E659F
:102AB000206661696C6564212054656D7065726182
:102AC0007475726520746F6F20686967680A0020EA
:102AD0004B643A2000204B693A2000204B703A208A
:102AE000000A20436C617373696320504944200AD3
:102AF000002054753A2000204B753A2000206D616B
:102B0000783A2000206D696E3A200020643A200057
:102B100020626961733A2000504944204175746F06
:102B200074756E65206661696C656421204261641C
:102B3000206578747275646572206E756D62657259
:102B40000A00504944204175746F74756E65207396
:102B5000746172740A004F66660A004661646520FB
:102B60004865696768742000426564204C65766535
:102B70006C696E6720004661696C656420746F2023
:102B8000656E61626C6520426564204C6576656C9B
:102B9000696E670A0008FFFFFFFFFF0001010101E6
:102BA000016265640A002C2073797374656D20736B
:102BB000746F7070656421204865617465725F4947
:102BC000443A20004265642068656174696E67203C
:102BD0006661696C65640048656174696E6720664A
:102BE00061696C65640045312048656174696E6790
:102BF000206661696C65640048656174696E672070
:102C00006661696C65640070012C0190012701B058
:102C1000012201C0011D01F0011801100213013051
:102C2000020E016002090190020401C002FF0000CF
:102C300003FA004003F5008003F000D003EB00200E
:102C400004E6007004E100E004DC004005D700C0A9
:102C500005D2004006CD00D006C8008007C3003072
:102C600008BE00F008B900C009B400B00AAF00B057
:102C70000BAA00D00CA500000EA000500F9B00C0B6
:102C80001096005012910000148C00C0158700B0FF
:102C9000178200B0197D00D01B7800001E73004021
:102CA000206E0090226900F024640040275F0090AD
:102CB000295A00E02B5500102E500020304B0010F8
:102CC000324600E033410090353C00103737007049
:102CD000383200A0392D00B03A2800A03B23006014
:102CE0003C1E00103D1900903D1400103E0F007076
:102CF0003E0A00C03E0500003F0000403FFBFF8051
:102D00003FF6FFC03FF1FF453120544845524D4149
:102D10004C2052554E415741590042454420544899
:102D200045524D414C2052554E415741590054682F
:102D300065726D616C2052756E61776179004861D2
:102D40007264636F6465642044656661756C7420A9
:102D500053657474696E6773204C6F616465640AAF
:102D600000DC050000DC050000C80000008813003E
:102D7000000000484300004843000040410000F0CC
:102D8000420000F8420000F84285DB0E440080CF8C
:102D90004320204D393036003A0A0020286D6D2935
:102DA0000020204D3931340020204D3630332000B2
:102DB0002055004C0046696C616D656E74206C6F27
:102DC00061642F756E6C6F6164206C656E677468EA
:102DD000733A0A0020204D393030204B004C696E88
:102DE00065617220416476616E63653A0A0020591C
:102DF0000020580053656E736F726C6573732068A2
:102E00006F6D696E67207468726573686F6C643A81
:102E10000A00205430204500205A00205900205834
:102E200000537465707065722064726976657220F3
:102E300063757272656E743A0A00204B00204A0076
:102E400020204D383532204900536B65772046618C
:102E500063746F723A200A0020204D383531205AB1
:102E6000005A2D50726F6265204F6666736574005C
:102E700020440020490020204D33303420500020D1
:102E80004C0020430020440020490020204D3330D6
:102E9000312050005049442073657474696E677323
:102EA0003A0A0020460020420020480020204D31F0
:102EB00034352053004D6174657269616C2068651A
:102EC0006174757020706172616D65746572733ABA
:102ED0000A00205A00204A0020204732392057207B
:102EE0004900205A0020204D3432302053004175D3
:102EF000746F20426564204C6576656C696E673A34
:102F00000A00205A0020590020204D323036205827
:102F100000486F6D65206F66667365743A0A00201D
:102F20004A0020540020530020204D3230352051DB
:102F30000020453C6D61785F655F6A65726B3E009D
:102F4000204A3C6A756E635F6465763E0041647634
:102F5000616E6365643A20513C6D696E5F736567AD
:102F60006D656E745F74696D655F75733E20533C6B
:102F70006D696E5F66656564726174653E20543C80
:102F80006D696E5F74726176656C5F6665656472AB
:102F90006174653E0020540020520020204D3230E4
:102FA00034205000416363656C65726174696F6EB3
:102FB0002028756E6974732F7332293A20503C7043
:102FC00072696E745F616363656C3E20523C72652A
:102FD00074726163745F616363656C3E20543C741A
:102FE000726176656C5F616363656C3E0A002045C3
:102FF00000205A0020590020204D32303120580046
:103000004D6178696D756D20416363656C657261B2
:1030100074696F6E2028756E6974732F7332293A44
:103020000A00204500205A0020590020204D32304F
:10303000332058004D6178696D756D206665656453
:1030400072617465732028756E6974732F73293AE1
:103050000A00204500205A0020590020204D393216
:1030600020580053746570732070657220756E6906
:10307000743A0A0020204D3230302044300A0020BB
:10308000204D3230302044002044697361626C6509
:10309000640A0046696C616D656E742073657474B2
:1030A000696E67733A0020204D3134392043203B4C
:1030B00020556E69747320696E2043656C73697561
:1030C000730A002020473231202020203B004A751F
:1030D0006E6374696F6E20446576004A756E637422
:1030E000696F6E20446576004D6F74696F6E0045A0
:1030F00073746570732F6D6D004573746570732FF5
:103100006D6D005A73746570732F6D6D005A737412
:103110006570732F6D6D005973746570732F6D6DCD
:10312000005973746570732F6D6D005873746570FA
:10313000732F6D6D005873746570732F6D6D004D36
:103140006F74696F6E0053746570732F6D6D004AF4
:1031500065726B00416363656C65726174696F6E63
:103160000056656C6F636974790050726F626520F8
:103170005A204F666673657400436F6E74726F6C8D
:10318000004C6F6164206D6D004C6F6164206D6D4B
:10319000004C6F6164206D6D00556E6C6F61642032
:1031A0006D6D00556E6C6F6164206D6D00556E6CB9
:1031B0006F6164206D6D0046696C2E204469612E3C
:1031C0000046696C2E204469612E004F6666004FF0
:1031D0006E20004520696E206D6D3300416476617C
:1031E0006E6365204B00416476616E6365204B0021
:1031F000436F6E74726F6C0043616E6E6F74206506
:103200006E746572207375626469723A2000022ED2
:103210002E004D61696E004D61782054656D703AE5
:1032200020313235004D696E2054656D703A20357D
:1032300000544265643A4550434F53203130304B7F
:10324000004D61782054656D703A20333035004D63
:10325000696E2054656D703A20350054303A204133
:1032600054432031303447542D320000060900FE0B
:10327000000000000001090008FE00000508080623
:10328000000040F0C88888987810050808060000FB
:10329000C0F88888888888F8050505060001203070
:1032A000F830200508080600002070F820202020B3
:1032B000E00509090600FF2070A8A8B888887020DA
:1032C0000509090600FFE080C0B0A82830282805BD
:1032D00009090600FFF8A88888888888A8F8050AE0
:1032E0000A0600FE205050505088A8A8887003039A
:1032F0000306000340A040627573793A207061753F
:1033000073656420666F7220696E7075740A00625E
:103310007573793A2070617573656420666F7220E9
:10332000757365720A00627573793A2070726F6303
:10333000657373696E670A004B494C4C45442E20F7
:10334000004B494C4C2063617573656420627920A1
:103350004B494C4C20627574746F6E2F70696E0A05
:10336000004B494C4C45442E20004B494C4C2063AB
:10337000617573656420627920746F6F206D756369
:103380006820696E6163746976652074696D652073
:103390002D2063757272656E7420636F6D6D616E42
:1033A000643A2000506C65617365207265736574C2
:1033B000005052494E5445522048414C5445440017
:1033C0005072696E7465722068616C7465642E2039
:1033D0006B696C6C28292063616C6C6564210A0040
:1033E000206472697665722063757272656E743AD4
:1033F0002000656E7175657565696E672022000035
:10340000000000000080C09A99193E000048420068
:1034100000484200000041000000005761726E69E0
:103420006E673A20486F6D696E672042756D702037
:1034300044697669736F72203C20310A00020204ED
:1034400000000000000000000000004000005243A7
:10345000000056439AD95143FFFFFF00002110425C
:103460002063308440A550C660E770088129914AE6
:10347000A16BB18CC1ADD1CEE1EFF131121002736D
:10348000325222B5529442F772D662399318837B36
:10349000B35AA3BDD39CC3FFF3DEE36224433420BD
:1034A000040114E664C774A44485546AA54BB52886
:1034B000850995EEE5CFF5ACC58DD553367226114D
:1034C000163006D776F6669556B4465BB77AA719D6
:1034D000973887DFF7FEE79DD7BCC7C448E5588615
:1034E00068A7784008611802282338CCC9EDD98E26
:1034F000E9AFF9488969990AA92BB9F55AD44AB7AD
:103500007A966A711A500A333A122AFDDBDCCBBF75
:10351000FB9EEB799B588B3BBB1AABA66C877CE47C
:103520004CC55C222C033C600C411CAEED8FFDECC5
:10353000CDCDDD2AAD0BBD688D499D977EB66ED58C
:103540005EF44E133E322E511E700E9FFFBEEFDD15
:10355000DFFCCF1BBF3AAF599F788F8891A981CAF2
:10356000B1EBA10CD12DC14EF16FE18010A100C2D1
:1035700030E3200450254046706760B9839893FB80
:10358000A3DAB33DC31CD37FE35EF3B1029012F321
:1035900022D2323542145277625672EAB5CBA5A8D0
:1035A0009589856EF54FE52CD50DC5E234C324A071
:1035B0001481046674476424540544DBA7FAB79960
:1035C00087B8975FE77EF71DC73CD7D326F23691C1
:1035D00006B01657667676154634564CD96DC90E28
:1035E000F92FE9C899E9898AB9ABA9445865480611
:1035F000782768C018E1088238A3287DCB5CDB3FC0
:10360000EB1EFBF98BD89BBBAB9ABB754A545A3760
:103610006A167AF10AD01AB32A923A2EFD0FED6C8F
:10362000DD4DCDAABD8BADE89DC98D267C076C64B0
:103630005C454CA23C832CE01CC10C1FEF3EFF5D9F
:10364000CF7CDF9BAFBABFD98FF89F176E367E5500
:103650004E745E932EB23ED10EF01E4D65736820FF
:10366000706F696E742063616E6E6F742062652086
:103670007265736F6C7665640A004D34323120696F
:103680006E636F727265637420706172616D6574D0
:1036900065722075736167650A004F6666736574AD
:1036A00073206170706C696564004572723A2054D1
:1036B0006F6F206661722100546F6F206661722007
:1036C00066726F6D207265666572656E63652070E7
:1036D0006F696E740A0020595A3A200020585A3AED
:1036E0002000536B657720466163746F72205859D0
:1036F0003A20006D696E5F736B65775F6661637416
:103700006F723A20202D31206D61785F736B657781
:103710005F666163746F723A2020310A00496E73EC
:103720006572742066696C616D656E7420616E648B
:1037300020707265737320627574746F6E0A005026
:103740007265737320627574746F6E20746F206875
:10375000656174206E6F7A7A6C650A00496E7365D4
:1037600072742066696C616D656E7420616E642090
:10377000707265737320627574746F6E20286F7237
:10378000204D313038290A00473238205A000A4883
:103790006F6D696E67205A2064756520746F206CA8
:1037A0006F73742073746570730A000A43616C69E7
:1037B00062726174696F6E2063757272656E743ABD
:1037C000205A000A506C6561736520686F6D652032
:1037D0005A20617869732066697273740A00486FB1
:1037E0006D652025732573257320666972737400D7
:1037F0002066697273740A005A0059005800486FB5
:103800006D65200053442063617264206F6B0A0071
:103810006F70656E526F6F74206661696C65640AC3
:1038200000766F6C756D652E696E697420666169CE
:103830006C65640A00534420696E6974206661698E
:103840006C0A0057726974696E6720746F2066692C
:103850006C653A20006F70656E206661696C656406
:103860002C2046696C653A20006F70656E20666199
:10387000696C65642C2046696C653A200046696C69
:10388000652073656C65637465640A002053697A0A
:10389000653A200046696C65206F70656E65643A14
:1038A00020002066696C653A2000646F696E6700CD
:1038B0006672657368004E6F772000454E44205352
:1038C0005542524F5554494E450A002220706F739D
:1038D000002220706172656E743A22005355425284
:1038E0004F5554494E452043414C4C2074617267FA
:1038F00065743A22004B494C4C45442E20007472AA
:1039000079696E6720746F2063616C6C20737562D7
:103910002D67636F64652066696C657320776974D1
:103920006820746F6F206D616E79206C6576656CB0
:10393000732E204D4158206C6576656C2069733A72
:10394000004572726F723A006F70656E2066616931
:103950006C65642C2046696C653A200043616E6E8C
:103960006F74206F70656E207375626469722000D9
:103970006563686F3A0020496E76616C6964206502
:103980007874727564657220000000000000008089
:10399000C09A99193E000052430000524300005261
:1039A0004342696C696E656172204C6576656C692D
:1039B0006E6720477269643A0A00486F6D696E67E6
:1039C000206661696C656400486F6D6520585920F8
:1039D00066697273740A00486F6D652058592066D5
:1039E0006972737400526573656E643A20006F6B80
:1039F0000020746F6F206C6F6E672065787472752D
:103A000073696F6E2070726576656E7465640A0006
:103A100020636F6C6420657874727573696F6E20B3
:103A200070726576656E7465640A005654726176CC
:103A3000206D696E005654726176206D696E005675
:103A400054726176206D696E00566D696E00566D18
:103A5000696E00566D696E00566D6178204500569E
:103A60006D6178204500566D6178204500566D6186
:103A700078205A00566D6178205A00566D61782082
:103A80005A00566D6178205900566D6178205900B2
:103A9000566D6178205900566D6178205800566D3A
:103AA0006178205800566D61782058004D6F746918
:103AB0006F6E00416D6178204500416D6178204551
:103AC00000416D6178205A00416D6178205A0041B3
:103AD0006D6178205900416D6178205900416D6118
:103AE00078205800416D6178205800412D74726132
:103AF00076656C00412D74726176656C00412D72A3
:103B000065747261637400412D72657472616374CF
:103B100000416363656C00416363656C004D6F74C5
:103B2000696F6E00FFFDFCFAF8F6F4F2F0EEECEAD5
:103B3000E9E7E5E3E1E0DEDCDAD9D7D5D4D2D0CFCE
:103B4000CDCBCAC8C7C5C3C2C0BFBDBCBAB9B7B662
:103B5000B4B3B2B0AFADACAAA9A8A6A5A4A2A1A0C7
:103B60009E9D9C9A99989795949392908F8E8D8B09
:103B70008A8988878684838281807F7E7D7B7A792B
:103B80007877767574737271706F6E6D6C6B6A692D
:103B90006867666564636261605F5E5D5C5B5A591D
:103BA00058585756555453525150504F4E4D4C4BF8
:103BB0004A4A4948474646454443424241403F3EBF
:103BC0003E3D3C3B3B3A3938383736353534333275
:103BD000323130302F2E2E2D2C2B2B2A292928271D
:103BE0002726252524232322212120201F1E1E1DB8
:103BF0001C1C1B1B1A191918181716161515141347
:103C00001312121111100F0F0E0E0D0D0C0C0B0ACA
:103C10000A09090808070706060505040403030244
:103C200002010000545249474745524544006F7015
:103C3000656E003A20007A5F6D696E00795F6D698C
:103C40006E00785F6D696E005265706F7274696E98
:103C50006720656E6473746F70207374617475731C
:103C60000A0000000001000000010000800055551E
:103C700055000000400033333300AAAA2A004992BD
:103C8000240000002000C7711C0099991900D1453B
:103C90001700555515003BB11300244912001111AE
:103CA0001100000010000F0F0F00E3380E004379E1
:103CB0000D00CCCC0C00C3300C00E8A20B0064213A
:103CC0000B00AAAA0A00703D0A009DD80900427B99
:103CD000090092240900DCD30800888808001042FB
:103CE000080000000800F0C1070087870700755032
:103CF0000700711C07003EEB0600A1BC060069909E
:103D0000060066660600703E06006118060017F49D
:103D1000050074D105005BB00500B2900500627229
:103D200005005555050078390500B81E0500050544
:103D300005004EEC040087D40400A1BD040090A748
:103D4000040049920400C17D0400EE690400C756D6
:103D50000400444404005C320400082104004110C3
:103D60000400000004003FF00300F8E0030026D246
:103D70000300C3C30300CCB503003AA803000A9BA9
:103D80000300388E0300C08103009F750300D069D3
:103D90000300505E03001D53030034480300913DAF
:103DA00003003333030016290300381F030097155F
:103DB0000300300C0300030303000BFA020049F177
:103DC0000200BAE802005CE002002DD802002DD00B
:103DD000020059C80200B0C0020031B90200DAB1D5
:103DE0000200AAAA0200A0A30200BC9C0200FA954D
:103DF00002005C8F0200DF88020082820200457CA4
:103E000002002776020027700200436A02007C64E9
:103E10000200D05E02003F590200C85302000000B9
:103E20002100240027002A002D003000330001016A
:103E30000000040107010A0130010C0111241FBE1A
:103E4000CFEFD1E2DEBFCDBF00E00CBF13E0A0E0BA
:103E5000B2E0E0E6F0E902E00BBF02C007900D928D
:103E6000A439B107D9F729E1A4E9B3E001C01D9253
:103E7000A13FB207E1F71FE1CDE1DFE100E006C0BD
:103E800021970109802FFE010F948747CC31D1077C
:103E900080E00807A9F70F9463320D941F480C9433
:103EA00000002F923F924F925F926F927F928F927B
:103EB0009F92AF92BF92CF92DF92EF92FF920F93B9
:103EC0001F93CF93DF93CDB7DEB7CB56D1090FB693
:103ED000F894DEBF0FBECDBF91E09093850780912F
:103EE0003B128D3411F40C942628843511F40C9473
:103EF0008036873411F00C94CC36209039123090F3
:103F00003A122CE12216310409F464C6C4F444E0E8
:103F10002416310444F452E025163104ECF537FE42
:103F200034C00C94222884E02816310409F4E3C537
:103F30009BE12916310409F41DC60C942228AAE23B
:103F40002A16310409F424C764F4EDE12E16310475
:103F500009F445C6FEE12F16310409F444C60C9459
:103F600022282BE52216310409F4EAC73CE5231682
:103F7000310409F4E9C74AE52416310411F00C9420
:103F80002228109298030C94CE3680915902811108
:103F90000C94D3360C94CE3680915902882311F4B8
:103FA0000C94CE360F946A0A82E50E9446868823D6
:103FB00009F44CC10E94CA854B015C0120E030E04D
:103FC000A9010F94FF42882309F470C180919807DA
:103FD00090919907A0919A07B0919B0788AF99AFEC
:103FE000AAAFBBAF20919C0730919D0740919E07DF
:103FF00050919F072CAF3DAF4EAF5FAF80915907F7
:1040000090915A07A0915B07B0915C072C968CAFFA
:104010009DAFAEAFBFAF2C9720915D0730915E078B
:1040200040915F075091600728962CAF3DAF4EAF8F
:104030005FAF28979C01AD0168AD79AD8AAD9BADAE
:104040000F94FF4281110FC028962CAD3DAD4EADAF
:104050005FAD28976CAD7DAD8EAD9FAD0F94FF42E7
:10406000882309F423C111E032E02316310409F05A
:1040700010E020E030E0A901C501B4010F94FF4237
:10408000881F8827881F181759F080E090E0A0E863
:10409000BFEB64968CAF9DAFAEAFBFAF64970AC065
:1040A00020E030E040E85FE364962CAF3DAF4EAFD8
:1040B0005FAF649728AD39AD4AAD5BAD2C966CAD62
:1040C0007DAD8EAD9FAD2C970F947B4460966CAF09
:1040D0007DAF8EAF9FAF60972CAD3DAD4EAD5FAD68
:1040E00028966CAD7DAD8EAD9FAD28970F947B4427
:1040F0006B017C0160962CAD3DAD4EAD5FAD609720
:10410000CA01B9010F9464432B013C01A701960138
:10411000C701B6010F9464439B01AC01C301B20116
:104120000F947C440F94E74624966CAF7DAF8EAF1E
:104130009FAF249720E030E040E05FE30F946443BA
:104140002B013C01A5019401C501B4010F94644306
:104150004B015C01A3019201C301B2010F946443BE
:104160009B01AC01C501B4010F947B440F94E74659
:1041700064962CAD3DAD4EAD5FAD64970F94644336
:104180004B015C01C701B601905824962CAD3DADA2
:104190004EAD5FAD24970F945845A50194010F943F
:1041A00064436B017C012C962CAD3DAD4EAD5FADF3
:1041B0002C9768AD79AD8AAD9BAD0F947C4420E01F
:1041C00030E040E05FE30F9464439B01AC01C70122
:1041D000B6010F947C4428AD39AD4AAD5BAD0F9468
:1041E0007B446B017C0128962CAD3DAD4EAD5FAD9F
:1041F00028976CAD7DAD8EAD9FAD0F947C4420E0D3
:1042000030E040E05FE30F9464432B013C012496CF
:104210002CAD3DAD4EAD5FAD249760966CAD7DADE0
:104220008EAD9FAD60970F945845A50194010F94F2
:1042300064439B01AC01C301B2010F947C442CADDB
:104240003DAD4EAD5FAD0F947B4414C089E40E9438
:104250004686882329F00E94CA856B017C0103C031
:10426000C12CD12C76018AE40E944686882309F16C
:104270000E94CA852C966CAF7DAF8EAF9FAF2C97F6
:1042800020E030E0A901C701B6010F94FF4281117F
:104290001FC020E030E0A9012C966CAD7DAD8EAD45
:1042A0009FAD2C970F94FF42811112C0E1E4F9E316
:1042B0000EC420E030E0A901C701B6010F94FF420F
:1042C0008823A1F32C961CAE1DAE1EAE1FAE2C97FC
:1042D000D701C601B05888AF99AFAAAFBBAF2C9633
:1042E0002CAD3DAD4EAD5FAD2C9750582CAF3DAFD2
:1042F0004EAF5FAF9C01AD01BC01CD010F94644393
:104300004B015C012CAD3DAD4EAD5FADCA01B901B5
:104310000F9464439B01AC01C501B4010F947C442C
:104320000F94E746A0966CAF7DAF8EAF9FAFA0977E
:104330008091980790919907A0919A07B0919B0757
:1043400028968CAF9DAFAEAFBFAF2897A70196015F
:10435000BC01CD010F947C4464966CAF7DAF8EAFF1
:104360009FAF649720919C0730919D0740919E07D5
:1043700050919F0760962CAF3DAF4EAF5FAF6097F7
:104380002C962CAD3DAD4EAD5FAD2C9760966CADCF
:104390007DAD8EAD9FAD60970F947C44A4966CAFBD
:1043A0007DAF8EAF9FAFA4978091590790915A0728
:1043B000A0915B07B0915C0768968CAF9DAFAEAFE4
:1043C000BFAF689764962CAD3DAD4EAD5FAD6497C1
:1043D000BC01CD010F947B446B017C0120915D07F2
:1043E00030915E0740915F07509160076C962CAF4B
:1043F0003DAF4EAF5FAF6C97A4962CAD3DAD4EADCB
:104400005FADA4976C966CAD7DAD8EAD9FAD6C9796
:104410000F947B444B015C018091A0079091A10710
:10442000A091A207B091A307A8968CAF9DAFAEAFA5
:10443000BFAFA8979C01AD016091610770916207C1
:1044400080916307909164070F947B4424966CAF2E
:104450007DAF8EAF9FAF2497A701960168AD79AD70
:104460008AAD9BAD0F9464432B013C01A5019401DF
:104470006CAD7DAD8EAD9FAD0F9464439B01AC01DF
:10448000C301B2010F947C442B013C01A5019401AE
:1044900068AD79AD8AAD9BAD0F9464434B015C016F
:1044A000A70196016CAD7DAD8EAD9FAD0F946443B9
:1044B0009B01AC01C501B4010F947B44A30192019F
:1044C0000F94EF446B017C0120E030E0A9010F94D0
:1044D000FF4287FF0AC02BED3FE049EC50E4C701E3
:1044E000B6010F947C446B017C0192E029163104E3
:1044F00051F42BED3FE049EC50E4C701B6010F94B5
:104500007B446B017C0120E030E0A901C701B601CA
:104510000F94FF42811128C068962CAD3DAD4EAD81
:104520005FAD689728966CAD7DAD8EAD9FAD289739
:104530000F94FF42811118C06C962CAD3DAD4EAD6D
:104540005FAD6C9760966CAD7DAD8EAD9FAD6097A5
:104550000F94FF42811108C00BEDC02E0FE0D02E4A
:1045600009ECE02E00E4F02EA7019601A0966CADB8
:104570007DAD8EAD9FADA0970F9464434B015C0160
:1045800020E030E0A90124966CAD7DAD8EAD9FADED
:1045900024970F94FF428823E9F0A5019401C501F7
:1045A000B4010F9464434B015C0124962CAD3DADE6
:1045B0004EAD5FAD2497CA01B9010F9464439B01CE
:1045C000AC01C501B4010F947C440F94E7464B0144
:1045D0005C010DC020E030E0A901C501B4010F94D9
:1045E000A24687FF04C0B7FAB094B7F8B0942FE69C
:1045F00032E143E85AE3C501B4010F94FF4287FF5B
:1046000002C00C94CE36C501B4010F94F1450F944D
:10461000C5452E967FAF6EAF2E97DB01AB2B31F4E5
:10462000E1E0F0E02E96FFAFEEAF2E974090A407AA
:104630005090A5076090A6077090A7072E962EAD04
:104640003FAD2E97B90180E090E00F9403434B01FA
:104650005C019B01AC01C701B6010F945845289637
:104660006CAF7DAF8EAF9FAF2897A50194012496C4
:104670006CAD7DAD8EAD9FAD24970F945845A0963F
:104680006CAF7DAF8EAF9FAFA097A30192016091F9
:1046900065077091660780916707909168070F948E
:1046A0007B44A50194010F945845AC966CAF7DAF47
:1046B0008EAF9FAFAC9728962CAD3DAD4EAD5FADA4
:1046C0002897CA01B9010F94644320E030E040E02C
:1046D0005FE30F9464439B01AC0160E070E080E80D
:1046E0009FE30F947B4468966CAF7DAF8EAF9FAF16
:1046F0006897A8968CAD9DADAEADBFADA8978987E4
:104700009A87AB87BC874D865E866F86788A609174
:10471000170270911802072E000C880B990B0F944A
:1047200005432091490230914A0240914B02509139
:104730004C020F9464432AE037ED43E25CE30F94AC
:1047400064436CAB7DAB8EAB9FAB0F94EF2D9B01A5
:10475000AC0128533F4F4F4F5F4F6C962CAF3DAF8E
:104760004EAF5FAF6C9748AC59AC6AAC7BAC2224BF
:104770002394312C39E121963FAF21972E964EADEF
:104780005FAD2E974215530509F44DC10E949CD38D
:104790000F94EF2DDC01CB016C962CAD3DAD4EADF1
:1047A0005FAD6C97821B930BA40BB50BB7FD11C0CB
:1047B0000F94EF2D9B01AC0128533F4F4F4F5F4F9C
:1047C0006C962CAF3DAF4EAF5FAF6C9780E00E9410
:1047D00075F221963FAD2197315021963FAF219739
:1047E000332309F445C02CAD3DAD4EAD5FAD6896A9
:1047F0006CAD7DAD8EAD9FAD68970F9464436B013A
:104800007C019201A30128966CAD7DAD8EAD9FAD6C
:1048100028970F946443A70196010F947C447B0171
:104820008C019201A30168966CAD7DAD8EAD9FADFC
:1048300068970F9464434B015C012CAD3DAD4EADC8
:104840005FAD28966CAD7DAD8EAD9FAD28970F9472
:1048500064439B01AC01C501B4010F947B442B015F
:104860003C01C701D8018CAF9DAFAEAFBFAF55C003
:10487000B10180E090E00F94034328962CAD3DAD4C
:104880004EAD5FAD28970F9464434B015C010F94CC
:1048900055456B017C01C501B4010F94DD464B0108
:1048A0005C01A701960168AD79AD8AAD9BAD0F940F
:1048B00064432B013C012C962CAD3DAD4EAD5FAD5C
:1048C0002C97C501B4010F946443A30192010F9486
:1048D0007C442B013C01A501940168AD79AD8AAD02
:1048E0009BAD0F9464434B015C012C962CAD3DAD08
:1048F0004EAD5FAD2C97C701B6010F9464439B0189
:10490000AC01C501B4010F947B446CAF7DAF8EAF99
:104910009FAF49E121964FAF21979201A301649681
:104920006CAD7DAD8EAD9FAD64970F947C44698373
:104930007A838B839C832CAD3DAD4EAD5FADA49649
:104940006CAD7DAD8EAD9FADA4970F947C446D830F
:104950007E838F839887A0962CAD3DAD4EAD5FAD25
:10496000A09769857A858B859C850F947C4469879F
:104970007A878B879C87AC962CAD3DAD4EAD5FADF5
:10498000AC976D857E858F8598890F947C446D8763
:104990007E878F87988B80912502882321F0CE0116
:1049A00001960E94B1EFE09086071CA61DA61EA6E8
:1049B0001FA689819A81AB81BC8188A399A3AAA3F0
:1049C000BBA38D819E81AF81B8858CA39DA3AEA32F
:1049D000BFA389859A85AB85BC8588A799A7AAA717
:1049E000BBA7AE01485D5F4FBE016C5D7F4FCE013E
:1049F00080960F949527CE018C966C018E010C5CED
:104A00001F4F9E01235F3F4FAE01485D5F4FBE01C8
:104A10006C5D7F4F0C970E941543882321F09FEF18
:104A2000291A390AABCEE090860718AA19AA1AAA41
:104A30001BAA8091590790915A07A0915B07B091EA
:104A40005C0788A399A3AAA3BBA380915D0790915B
:104A50005E07A0915F07B09160078CA39DA3AEA3F2
:104A6000BFA38091610790916207A0916307B09105
:104A7000640788A799A7AAA7BBA7AE01485D5F4FA7
:104A8000BE016C5D7F4FCE0180960F949527DE01AD
:104A9000D0966D018E010C5C1F4F25E637E0AE010C
:104AA000485D5F4FBE016C5D7F4FCE0180960E94D6
:104AB000154380E1E9E5F7E0A8E9B7E001900D9240
:104AC0008A95E1F70C94CE360E946C86F8018491A9
:104AD0008F010F5F1F4F8111F7CFE3E0F4E0849166
:104AE0008F010F5F1F4F882311F40C94CE360E9464
:104AF0006C86F801F4CF80E50E944686882329F071
:104B00000E948A856B017C0103C0C12CD12C7601E7
:104B100083E50E944686882361F00E94CA8520E0D2
:104B200030E04AE754E40F9464430F94C5456B01A9
:104B30007C010E940C5580913F0A811105C060E004
:104B400089E194E00E94A47B0F94EF2DC60ED71E3E
:104B5000E81EF91E0F94EF2DDC01CB018C199D0985
:104B6000AE09BF09B7FD02C00C94CE3680E00E94AA
:104B700075F2F0CF0E9468FF81110C94CE3680E070
:104B800090E0A0E2B1E489839A83AB83BC8380E0A8
:104B900090E0A8E4B3E48D839E83AF83B88780E080
:104BA00090E0A0EAB1E489879A87AB87BC8780E56B
:104BB0000E944686882319F00E949A8501C060E011
:104BC00068A3BE016F5F7F4FCE0180960F94D828F7
:104BD0000C94CE3680E00F945B0F0C94CE360E947E
:104BE0007DB00C94CE36C0909807D0909907E09095
:104BF0009A07F0909B0788E50E944686811109C0BC
:104C000020E030E04CE052E4C701B6010F947C4450
:104C100002C00E94CA8568A379A38AA39BA3C090FF
:104C20009C07D0909D07E0909E07F0909F0789E534
:104C30000E944686811109C020E030E040EA51E43C
:104C4000C701B6010F947B4402C00E94CA859B0134
:104C5000AC0169837A838B839C8368A179A18AA143
:104C60009BA10E9461F1882311F40C94CE3680E060
:104C70000F94C50C0F940D0E85E40E944686882380
:104C800021F00E94BB85182F04C085E40E94FD8599
:104C900011E086E50E944686882321F00E949A85CD
:104CA000262F01C021E0412FBE016F5F7F4FCE0153
:104CB00080960E947BB66B017C019B01AC010F9436
:104CC000284781115FC088A099A0AAA0BBA020E0BE
:104CD00030E0A901C501B4010F94FF4287FF05C070
:104CE00027E137EB41E558EB04C027E137EB41E51D
:104CF00058E3C501B4010F947C44AB01BC018CE2C4
:104D000094E00F94662089809A80AB80BC8020E07C
:104D100030E0A901C501B4010F94FF4287FF05C02F
:104D200027E137EB41E558EB04C027E137EB41E5DC
:104D300058E3C501B4010F947C44AB01BC0187E288
:104D400094E00F94662020E030E0A901C701B6018D
:104D50000F94FF4287FF05C027E137EB41E558EB91
:104D600004C027E137EB41E558E3C701B6010F94D2
:104D70007C44AB01BC0182E294E00F9466208AE09F
:104D80000E946C860F94F40D0E9493CC0C94CE3646
:104D900080915902882311F40C94CE3689E40E9444
:104DA0004686082F882321F00E949A85E62E01C0AE
:104DB000E12C8AE40E944686182F882321F00E9465
:104DC0009A85F62E01C0F12C002319F0B2E0BE1531
:104DD00028F0112389F0E2E0EF1570F4E4E3F4E049
:104DE00084918F010F5F1F4F882311F40C94CE36EE
:104DF0000E946C86F801F4CF0E9458860023F1F0DF
:104E000020911604309117044E2D4203B001439FA8
:104E1000700D112480910D0490910E04680F791F7C
:104E2000072E000C880B990B0F94054360935907CC
:104E300070935A0780935B0790935C071123F1F0FE
:104E400020911804309119045F2D5203B001539F33
:104E5000700D112480910F0490911004680F791F38
:104E6000072E000C880B990B0F94054360935D0788
:104E700070935E0780935F079093600780E50E94C0
:104E800046868823E9F00E94BB858823A9F1002388
:104E9000D9F020E030E04CE052E460915907709185
:104EA0005A0780915B0790915C070F947B44609355
:104EB000590770935A0780935B0790935C0704C06F
:104EC00080E50E94FD85E1CF1123B1F020E030E0C4
:104ED00040EA51E460915D0770915E0780915F0741
:104EE000909160070F947C4460935D0770935E0718
:104EF00080935F079093600786E40E94468688232C
:104F0000D9F00E94CA856B017C0120E030E0A90144
:104F10000F94A246181684F420E030E040E752E4F3
:104F2000C701B6010F9458456093490270934A0235
:104F300080934B0290934C020F949E110C94CE36AA
:104F4000909398030C94CE36FEE62F2EF2E03F2E7F
:104F5000AFE1EA2EAAE0FA2E88E997E099AF88AF90
:104F6000B8E8CB2EB7E0DB2E00E010E0D1018D9148
:104F70001D010E944686882309F44BC00E94CA8501
:104F80002B013C01133049F0F6012081318142812F
:104F900053810F947B442B013C01A8ADB9AD2D91F9
:104FA0003D914D915C91C301B2010F947B444B0143
:104FB0005C012DEB37E346E855EB0F94A24687FDE5
:104FC0000AC02DEB37E346E855E3C501B4010F9461
:104FD000FF421816F4F4133051F44092A407509293
:104FE000A5076092A6077092A70701E012C0A5016D
:104FF0009401F70160817181828193810F947C44D7
:10500000D7016D937D938D939C931397812F0F946C
:105010001C111F5FB4E0EB0EF11CE8ADF9AD349646
:10502000F9AFE8AFF4E0CF0ED11C143009F09ECFF9
:10503000002321F084EA97E00E94ECFE0E9493CCCA
:105040000C94CE360E94D3BA0C94CE36809139128D
:1050500090913A128139910511F40C9478300CF04A
:1050600019C18235910509F4AFC60CF098C08A3198
:10507000910509F459C3ECF58431910509F44CC24A
:105080007CF48131910509F4C2C22CF4029708F432
:1050900046C20C947D36429709F49DC60C947D3629
:1050A0008731910509F400C374F48531910509F441
:1050B000F7C2469711F00C947D361092290F10928A
:1050C0002A0F0C94CE368831910509F403C3499711
:1050D00011F00C947D361092290F0E94E3D18FE8D5
:1050E00094E090935107809350070E94E4840C94BD
:1050F000CE368032910509F4C1C30CF58D3191058E
:1051000011F40C94CE3694F48B31910509F41AC342
:105110004C9711F00C947D3640E060E0809137129E
:10512000909138120F9453030C94CE368E31910522
:1051300009F4A0C34F9709F4EDC30C947D368C3469
:10514000910509F4D1C46CF48A32910509F498C42C
:105150008B34910511F00C947D360E94C1D10C94D2
:10516000CE368D34910509F4C3C48135910511F013
:105170000C947D360E940DD20E9433551092450743
:105180001092440768EE73E080E090E00E9427925E
:1051900060E081E495E00E94A47B0C94CE368F36CB
:1051A000910509F4EDC4BCF58936910509F474C57F
:1051B000CCF48535910509F411C654F48335910575
:1051C00009F405C68435910509F405C60C947D36AD
:1051D0008C35910509F41BC68836910509F48CC4F9
:1051E0000C947D368C36910509F41DC554F48A362D
:1051F000910509F4B9C58B36910509F4D2C50C9413
:105200007D368D36910509F489C58E36910509F4F0
:10521000A4C40C947D368637910509F413C7CCF4E9
:105220008237910509F467C654F48037910509F473
:10523000FEC48137910509F402C50C947D3683378D
:10524000910509F466C18537910509F4ECC60C9403
:105250007D368937910509F444C794F48737910561
:1052600009F43CC78837910511F00C947D3681E034
:1052700080936104809360040F946E290C94CE3661
:105280008D37910509F49DC58C38910509F44AC5FF
:105290000C947D368A3921E0920709F4CCC40CF0D5
:1052A00097C08D3D910511F40C94B2320CF041C0C1
:1052B0008B3C910509F4FCC7FCF48E3B910509F485
:1052C0004FC534F48B39910509F401C50C947D3632
:1052D000883C910509F484C7893C910511F00C9430
:1052E0007D368EE6E82E82E0F82E0AE113E19AE29E
:1052F000C92E93E1D92EC4C78E3C910511F40C94AC
:105300007D325CF48C3C910509F4EDC78D3C910530
:1053100011F40C94E8310C947D36833D910511F421
:105320000C94A2328C3D910511F40C94A5320C948E
:105330007D368F3241E0940711F40C94D53304F597
:105340008C32A1E09A0711F40C94553364F4823E38
:10535000910511F40C9421338232914011F40C9494
:105360004A330C947D368D32F1E09F0711F40C9492
:105370007E338E32914011F40C9481330C947D363F
:10538000803931E0930711F40C946B347CF4803352
:1053900051E0950711F40C94D8338336914011F005
:1053A0000C947D36E1E4F9E30C9458348139B1E092
:1053B0009B0711F40C946E348239914011F00C94D7
:1053C0007D3680E00F947A100E9493CC0C94CE36F8
:1053D0008E3BF2E09F0711F40C9439350CF04FC06E
:1053E000863F31E0930711F40C947A342CF58C3A13
:1053F00051E0950711F40C949F327CF4843AB1E0AB
:105400009B0711F40C947434853A914011F00C947C
:105410007D360E9486FC0C94CE36843FF1E09F07D7
:1054200011F40C947734853F914011F00C947D3643
:105430000E94ADE00C94CE36883532E0930711F42B
:105440000C94AD346CF4873F51E0950711F40C9443
:105450007D34883F914011F40C9489340C947D364E
:105460008B35B2E09B0711F40C94B0348D3B924025
:1054700011F00C947D360E9430F70C94CE368F38A4
:10548000F3E09F0711F40C94FC351CF5843833E0ED
:10549000930711F40C94A1357CF4833553E0950700
:1054A00011F40C943C358435934011F00C947D3606
:1054B0000E9463FA0C94CE368A38B3E09B0711F44D
:1054C0000C94F9358B38934011F40C94CE360C942F
:1054D0007D368339F3E09F0711F40C9465366CF444
:1054E000803933E0930711F40C94113682399340DC
:1054F00011F40C9414360C947D36803A53E09507E1
:1055000009F4FBC1873E934011F40C9468360C9467
:105510007D36E8E3F6E02CC5EEE7F4E083C0A0902A
:105520003712B090381280E50E944686882359F0E1
:105530000E948A856B017C0111E0672B682B692B27
:1055400031F410E004C010E0C12CD12C760183E5C9
:105550000E944686882311F40C94D8360E94CA858E
:1055600020E030E04AE754E40F9464430F94C545CB
:105570006B017C0111110BC0672B682B692B39F46F
:10558000A114B10421F0F5018081811102C010E065
:1055900001C011E00E940C55112329F061E0C50102
:1055A0000E94E07B05C060E083E594E00E94A47B5C
:1055B00083E08093850781E080938407C114D10440
:1055C000E104F104B1F00F94EF2DC60ED71EE81ED2
:1055D000F91E0F94EF2DDC01CB018C199D09AE094A
:1055E000BF09B7FF0EC08091840781110C94DD368E
:1055F00008C080918407882321F080E00E9475F222
:10560000F8CF0E94A0A6109284070C94CE3660E0DA
:1056100086E694E00E94A47B179816981598149833
:105620000C94CE3684918F010F5F1F4F882321F099
:105630000E946C86F801F6CF10920C1289E59FE06B
:105640000E941EEE8BE1E9E5FFE0DE011596019078
:105650000D928A95E1F78091570F9091580F9C8396
:105660008B8388E293E09A83898340E050E0BE0117
:105670006F5F7F4F80E090E00F940008CE010196AD
:105680000E94E2F1EFE6F4E084918F010F5F1F4F7B
:10569000882311F40C94CE360E946C86F801F4CF66
:1056A0000F9455010C94CE36E0913712F0913812D8
:1056B0008081882329F0803209F410823196F8CF56
:1056C00040E061E080913712909138120F945303BB
:1056D0000C94CE3680E090E0A8E4B2E489839A830B
:1056E000AB83BC8318A219A21AA21BA21CA61DA6DA
:1056F0001EA61FA680919E0C882359F020E0AE01C3
:105700004F5F5F4FBE01605E7F4FCE018C960E945F
:1057100000BA80912A0F882319F081E08093290F25
:105720000E94C1D10C94CE3680912A0F882311F4A7
:105730000C94CE3683E50E94468681110C94E236A5
:105740000C94CE3683E40E94FD85882309F450C072
:10575000E1ECF4E084918F010F5F1F4F882321F06B
:105760000E946C86F801F6CF80915A11811103C016
:10577000E4E9F4E012C0BE016F5F7F4F87E591E17D
:105780000E94DE5F8E010F5F1F4FD8018D918D014A
:10579000882349F10E946C86F8CF84918F010F5FB6
:1057A0001F4F882301F10E946C86F801F6CF79E142
:1057B000C72E75E0D72EE12CF12C20E08091FB0361
:1057C00090E00E2C02C0959587950A94E2F780FD33
:1057D00007C2BFEFEB1AFB0AE2E0CE0ED11CF5E0E8
:1057E000EF16F10459F78AE00E946C860C94CE36CD
:1057F00080912A0F882339F08091290F882319F08E
:10580000EEE9F4E003C0E0EBF4E028C084918F01FE
:105810000F5F1F4F882321F00E946C86F801F6CF9E
:10582000609108127091091280910A1290910B12E6
:105830004AE00E9413898FE20E946C8660910412F4
:105840007091051280910612909107124AE00E9411
:1058500013898AE00E946C860C94CE3684918F0165
:105860000F5F1F4F882311F40C94CE360E946C8674
:10587000F801F4CF0E94F8B40C94CE368091290F31
:1058800081110E940C5580912A0F882311F40C94E9
:10589000CE3680E50E944686882319F00E94BB859B
:1058A00003C080E50E94FD85182F482F61E080919C
:1058B0003712909138120F94530383E50E94468665
:1058C000882381F00E949A85AB01BC0140930812A5
:1058D0005093091260930A1270930B1287E591E1BD
:1058E0000E94F55980912A0F882319F081E0809356
:1058F000290F11110C94CE3613CF8091371290914D
:10590000381221E02093280F40E060E00F94530309
:105910000C94CE360E9472D17B018C0120E831E5D7
:1059200041E050E00F944044C9016DE671E00F94EE
:1059300044474B015C01C801B70120E13EE040E073
:1059400050E00F944044CA01B90128E130E040E042
:1059500050E00F944044762E672EC62ED72EECE3EF
:105960002E2E312C412C512CC801B701A2019101DE
:105970000F944044F62EE72ECA01B901A20191010D
:105980000F944044CB018E010F5F1F4F811491048F
:1059900099F0EF92FF927F936F936F927F92BF92F5
:1059A000AF929F928F9288EF94E09F938F931F9373
:1059B0000F930F94394213C0A114B104B1F0EF92C8
:1059C000FF927F936F936F927F92BF92AF9288EE18
:1059D00094E09F938F931F930F930F9439420FB6C8
:1059E000F894DEBF0FBECDBF30C0CD2879F0EF9266
:1059F000FF927F936F936F927F928CED94E09F93D1
:105A00008F931F930F930F943942E9CF892B69F03D
:105A1000EF92FF927F936F9384ED94E09F938F9327
:105A20001F930F930F943942DACFEF92FF9280EDDC
:105A300094E09F938F931F930F930F9439420F908D
:105A40000F900F900F900F900F9060E0C8010E9490
:105A5000E07BE0E7F9E384917F019FEFE91AF90A1F
:105A6000882321F00E946C86F701F5CFB8018CE005
:105A700095E00F949C208AE00E946C860C94CE36B0
:105A800083E50E944686882311F40C94CE360E944A
:105A9000AA85E82E80E50E944686882339F00E9478
:105AA000AA85182F87FF03C00C94CE361DE089E429
:105AB0000E944686882341F00E94BB8581110C9488
:105AC0009937E3E6F7E00BC089E40E94FD85F6CF45
:105AD0003196A7E0E039FA0711F40C9499378491D4
