:100000000C941B1F0C944C1F0C944C1F0C944C1FF5
:100010000C944C1F0C944C1F0C944C1F0C944C1FB4
:100020000C944C1F0D941F2C0D946D2C0D94462C8C
:100030000C944C1F0C947E940C944C1F0C944C1FED
:100040000C944C1F0D942E210C944C1F0C944C1F9F
:100050000C944C1F0C944C1F0C9418F60D94842E89
:100060000C944C1F0C94659E0C944C1F0C944C1FCC
:100070000C944C1F0C944C1F0C944C1F0C944C1F54
:100080000C944C1F0C944C1F0C944C1F0C944C1F44
:100090000C944C1F0C944C1F0C944C1F0C944C1F34
:1000A0000C944C1F0C944C1F0C944C1F0C944C1F24
:1000B0000C944C1F0C944C1F0C944C1F0C944C1F14
:1000C0000C944C1F0C944C1F0C944C1F0C944C1F04
:1000D0000C944C1F0C944C1F0C944C1F0C944C1FF4
:1000E0000C944C1F439429942C942F9432943E9456
:1000F00035944F9438943B94FBF2B0F1E9F137F327
:10010000E9F1E9F1E9F1E9F1E9F1E9F1E9F1E9F11F
:10011000E9F1E9F1E9F1E9F1E9F1E9F1E9F1E9F10F
:10012000E9F1E9F1E9F1E9F1E9F1E9F1E9F1E9F1FF
:10013000E9F1E9F131F3E9F1E9F1E9F1E9F1E9F1A5
:10014000E9F1E9F1E9F10AF3E9F1E9F1E9F1E9F1BC
:10015000E9F1E9F1E9F1E9F1E9F1E9F14EF3E6F16B
:1001600046013C01080122014C010C011801380133
:10017000200148012E013A0136011C010C01100139
:10018000240140011E010201FA002C0116012A017E
:1001900028013E0144012601FE001A010E0134012E
:1001A0002A010A01FC000601084AD73B3BCE016E3A
:1001B00084BCBFFDC12F3D6C74319ABD56833DDABE
:1001C0003D00C77F11BED9E4BB4C3E916BAAAABECD
:1001D000000000803F05A84CCDB2D44EB93836A9F6
:1001E000020C50B9918688083CA6AAAA2ABE000033
:1001F00000803F000D94AA2D0D94232E0D94EC2D1C
:100200000D94AE1B0D94A52D0D94BA1E0D942D2E9C
:100210000D94C62C0D94192E0D940E2D0D94052EB3
:100220000D94012D0D94D5250D94113C0D94BE2DEA
:100230000D94DB2C0D94F62D0D94FB2C0D94A02D1C
:100240000D94E52C0D94CA2C0D94052D0D94E22DE2
:100250000D94C82D0D94372E0D94B42D0D94ED2CC6
:100260000D94AC1B0D94BB1E0D940F2E0D94F72C0A
:100270000D94DF2C0D94F32C0D94D72C0D94D02DD0
:100280000D94092D0D94C11E0D94D82D0D94D42CD0
:100290000D94E92C0D94BE1E0D94D02C0D94BC3CF5
:1002A0006E616E00696E66004E414E494E4954596A
:1002B000494E46CDCCCC3D0AD7233C17B7D1387731
:1002C000CC2B329595E6241FB14F0A000020410047
:1002D00000C84200401C4620BCBE4CCA1B0E5AAE91
:1002E000C59D7400407A10F35A00A0724E180900A0
:1002F00010A5D4E80000E87648170000E40B54028B
:100300000000CA9A3B000000E1F5050000809698C5
:1003100000000040420F000000A086010000001015
:100320002700000000E80300000000640000000057
:10033000000A00000000000100000000002C76D838
:1003400088DC674F0823DFC1DFAE59E1B1B796E51E
:10035000E3E453C63AE651997696E8E6C28426EB82
:10036000898C9B62ED407C6FFCEFBC9C9F40F2BA95
:10037000A56FA5F490055A2AF75C936B6CF9676D2D
:10038000C11BFCE0E40D47FEF520E6B500D0ED9082
:100390002E0300943577050080841E080000204E4F
:1003A0000A000000C80C333333330F986E128311E8
:1003B00041EF8D2114893BE65516CFFEE6DB18D1BF
:1003C000844B381BF77C1D901DA4BBE42420328491
:1003D000725E228100C9F124ECA1E53D27434F4D17
:1003E0004D554E49434154494F4E00445259525580
:1003F0004E004552524F525300494E464F0045431E
:10040000484F0047322F4733206261642070617289
:10041000616D65746572730A00536C6565702E2E8C
:100420002E00205A3A200020593A200042656420CC
:10043000583A20004D65736820706F696E742063B0
:10044000616E6E6F74206265207265736F6C766585
:10045000640A00436C69636B20746F207265737566
:100460006D652E2E2E004E6F206D6F76652E004529
:100470006E642066696C65206C6973740A0042655D
:1004800067696E2066696C65206C6973740A004D3B
:1004900031323500286E6F2066696C65290053443F
:1004A000207072696E74696E6720627974652000CD
:1004B0004E6F74205344207072696E74696E670ABF
:1004C0000043757272656E742066696C653A20002F
:1004D0002569730025696D202569730025696820E9
:1004E00025696D20256973002569642025696820C8
:1004F00025696D20256973002569792025696420A7
:100500002569682025696D20256973005072696E20
:10051000742074696D653A2000FE03F903F203EB61
:1005200003DD036F66660044454255473A004B4978
:100530004C4C45442E20004D3131332053006F6B1D
:10054000005072757361206933204D4B33204F6624
:10055000662E002C20002C2000544845524D414C62
:100560005F50524F54454354494F4E004155544FEC
:100570005245504F52545F53445F53544154555366
:1005800000454D455247454E43595F5041525345F2
:100590005200434153455F4C494748545F425249DA
:1005A0004748544E45535300544F47474C455F4CC2
:1005B000494748545300534F4654574152455F50A2
:1005C0004F574552004255494C445F5045524345B0
:1005D0004E54004C4556454C494E475F44415441AA
:1005E000005A5F50524F4245004155544F4C4556BA
:1005F000454C005052494E545F4A4F420050524FB2
:100600004752455353004155544F5245504F525451
:100610005F54454D5000564F4C554D45545249433B
:1006200000454550524F4D0053455249414C5F588B
:100630004F4E5F584F4646004649524D574152452E
:100640005F4E414D453A4D61726C696E20312E31DD
:100650002E3920284769746875622920534F5552F6
:1006600043455F434F44455F55524C3A687474703C
:10067000733A2F2F6769746875622E636F6D2F4D03
:1006800061726C696E4669726D776172652F4D613A
:10069000726C696E2050524F544F434F4C5F564519
:1006A0005253494F4E3A312E30204D414348494E26
:1006B000455F545950453A50727573612069332033
:1006C0004D4B332045585452554445525F434F5586
:1006D0004E543A3120555549443A63656465326158
:1006E00032662D343161322D343734382D39623150
:1006F000322D6335356336326633363766660A0027
:100700002F2F20004D31343520533C696E646578BD
:100710003E206F7574206F662072616E67652028B9
:10072000302D31290A0020540020520041636365B6
:100730006C65726174696F6E3A2050003F4A206F99
:100740007574206F662072616E67652028302E30C8
:100750003120746F20302E33290A0020466C6F77C9
:100760003A2000000125311D40FFFFFF2924301CE5
:1007700045FFFFFF27232F1B0AFFFFFFFF43FFFF5C
:100780000406FFFFFF222B1AFFFF4204380308363E
:1007900050726F6265205A204F66667365743A2006
:1007A0000043290A0061626C656420286D696E202F
:1007B00074656D702000436F6C6420657874727589
:1007C00064657320617265200020643A0020693AF4
:1007D0000020703A004E6F2063617365206C69677A
:1007E00068740A00454550524F4D204F4B0A003F58
:1007F0005A206F7574206F662072616E67652028BD
:100800002D323020746F203230290A003A200050F7
:10081000726F6265205A204F6666736574003F4BA5
:100820002076616C7565206F7574206F662072612B
:100830006E67652028302D3130292E0A00416476FC
:10084000616E6365204B3D004163746976652045A8
:10085000787472756465723A2000496E76616C69CD
:10086000642065787472756465720A0024F4D4306B
:1008700050C38E20C2A24017828B7011127A910D44
:10088000816CD90AA861E108C7586607615143061F
:100890001E4B5D05C145A7041A411104093D98038B
:1008A000713931034036DB0265339102D430540292
:1008B000802E1D02632CEE01752AC501B028A0010F
:1008C000102781018F2564012B244B01E022340184
:1008D000AC211F018D200D01801FFC00841EED0046
:1008E000971DDF00B81CD200E61BC600201BBC0011
:1008F000641AB200B219A8000A19A0006A18990077
:10090000D117910040178B00B516840031167E0078
:10091000B31579003A157300C7146F0058146A00B4
:10092000EE1366008813630025135E00C7125B0098
:100930006C12570015125400C111510070114F0074
:1009400021114B00D61049008D104700461044007D
:1009500002104200C00F4000800F3E00420F3C00DA
:10096000060F3B00CB0E3800930E37005C0E3500AF
:10097000270E3400F30D3200C10D3100900D300010
:10098000600D2E00320D2D00050D2C00D90C2B0012
:10099000AE0C2900850C29005C0C2700350C2700C3
:1009A0000E0C2600E80B2400C40B2400A00B23002F
:1009B0007D0B23005A0B2100390B2100180B20005E
:1009C000F80A1F00D90A1E00BB0A1E009D0A1D005E
:1009D000800A1D00630A1C00470A1B002C0A1B002A
:1009E000110A1A00F7091A00DD091900C4091900D3
:1009F000AB091900920917007B0918006309170059
:100A00004C09160036091600200916000A091500BF
:100A1000F5081500E0081400CC081400B80814000C
:100A2000A4081400900813007D0812006B0813003E
:100A3000580812004608120034081100230811005B
:100A40001208110001081100F0071000E007100063
:100A5000D0071000C0071000B0070F00A10710005A
:100A600091070E0083070F0074070F0065070E0043
:100A700057070E0049070E003B070D002E070E001A
:100A800020070D0013070D0006070D00F9060C00E6
:100A9000ED060D00E0060C00D4060C00C8060C00A4
:100AA000BC060C00B0060C00A4060B0099060C0056
:100AB0008D060B0082060B0077060B006C060B0000
:100AC00061060A0057060B004C060A0042060A009F
:100AD00038060A002E060A0024060A001A060A0032
:100AE0001006090007060A00FD050900F4050900C3
:100AF000EB050900E2050900D9050900D005090048
:100B0000C7050900BE050900B5050800AD050800C8
:100B1000A50509009C050800940508008C0508003F
:100B2000840508007C050800740508006C050700B2
:100B3000650508005D050700560508004E0507001D
:100B40004705070040050800380507003105070084
:100B50002A050700230507001C05060016050700E7
:100B60000F0507000805060002050700FB04060044
:100B7000F5040700EE040600E8040600E20407009E
:100B8000DB040600D5040600CF040600C9040600F5
:100B9000C3040600BD040600B7040600B104050046
:100BA000AC040600A6040600A00405009B04060091
:100BB00095040500900406008A04050085040500DC
:100BC000800406007A040500750405007004050021
:100BD0006B04050066040500610405005C04050063
:100BE00057040500520405004D04050048040500A3
:100BF000430405003E0404003A04050035040500E2
:100C0000300404002C04050027040400230405001C
:100C10001E0404001A040400160405001104040054
:100C20000D04040009040500040404000004040089
:100C3000FC030400F8030400F4030400F0030400C0
:100C4000EC030400E8030400E4030400E0030400F0
:100C5000DC030400D8030400D4030400D003040020
:100C6000CC030400C8030300C503030024F404D923
:100C7000201BC40C5C0E9804C4095F026507710157
:100C8000F405F900FB04B30048048700C1036900C0
:100C90005803550003034500BE023A0084023100A8
:100CA00053022A002902250004022000E4011C004E
:100CB000C8011900AF011700980114008401130046
:100CC000710110006101100051010E0043010D007F
:100CD00036010B002B010B0020010B001501090050
:100CE0000C01090003010800FB000800F3000800E4
:100CF000EB000700E4000600DE000600D800060056
:100D0000D2000600CC000500C7000500C2000500A7
:100D1000BD000400B9000400B5000400B1000400E7
:100D2000AD000400A9000400A5000300A200030018
:100D30009F0004009B000300980003009500020040
:100D400093000300900003008D0002008B0003005D
:100D50008800020086000200840003008100020077
:100D60007F0002007D0002007B000200790002008B
:100D7000770001007600020074000200720001009A
:100D8000710002006F0002006D0001006C000200A3
:100D90006A000100690002006700010066000100AE
:100DA00065000100640002006200010061000100B2
:100DB000600001005F0002005D0001005C000100B6
:100DC0005B0001005A0001005900010058000100B9
:100DD00057000100560001005500010054000100B9
:100DE00053000000530001005200010051000100B7
:100DF000500001004F0001004E0000004E000100B5
:100E00004D0001004C0001004B0000004B000100B0
:100E10004A000100490001004800000048000100AC
:100E200047000100460000004600010045000000A8
:100E300045000100440001004300000043000100A0
:100E4000420000004200010041000000410001009A
:100E5000400001003F0000003F0001003E00000094
:100E60003E0001003D0000003D0001003C0000008C
:100E70003C0000003C0001003B0000003B00010082
:100E80003A0000003A00010039000000390001007A
:100E90003800000038000000380001003700000072
:100EA0003700010036000000360000003600010067
:100EB000350000003500000035000100340000005E
:100EC0003400000034000100330000003300000053
:100ED0003300010032000000320000003200010047
:100EE000310000003100000031000100300000003E
:100EF00030000000300001002F0000002F00000033
:100F00002F0000002F0001002E0000002E00000026
:100F10002E0001002D0000002D0000002D0000001B
:100F20002D0001002C0000002C0000002C0000000F
:100F30002C0001002B0000002B0000002B00000003
:100F40002B0001002A0000002A0000002A000000F7
:100F50002A000100290000002900000029000000EB
:100F600029000000290001002800000028000000DE
:100F700028000000280000002800010027000000D1
:100F800027000000270000002700000027000100C4
:100F900026000000260000002600000026000000B9
:100FA00026000100250000002500000025000000AB
:100FB000250000002500000025000100240000009D
:100FC0002400000024000000240000002400010090
:100FD0002300000023000000230000002300000085
:100FE0002300000023000000230001002200000075
:100FF0002200000022000000220000002200000069
:10100000220001002100000021000000210000005A
:10101000210000002100000021000000210001004B
:101020002000000020000000200000002000000040
:10103000200000002000000020000000200001002F
:101040001F0000001F0000001F0000001F00000024
:101050001F0000001F0000001F0001001E00000014
:101060001E0000001E0000001E000000232C0000D7
:10107000B8220000561800003A0F0000B80800001F
:10108000B1040000710200003E01000020746F6F87
:10109000206C6F6E6720657874727573696F6E204F
:1010A00070726576656E7465640A0020636F6C64A7
:1010B00020657874727573696F6E207072657665DD
:1010C0006E7465640A007C3C3E5E2B3D3F2F5B5D89
:1010D0003B2C2A225C004572726F72207772697411
:1010E000696E6720746F20454550524F4D210A00AC
:1010F000454550524F4D206461746173697A652093
:101100006572726F722E0A00290A00206279746576
:10111000733B20637263200053657474696E677358
:101120002053746F726564202800290A00206279B8
:101130007465733B2063726320002073746F726563
:10114000642073657474696E677320726574726964
:1011500065766564202800202863616C63756C6186
:1011600074656429210A0020213D20004545505224
:101170004F4D20435243206D69736D617463682045
:101180002D202873746F7265642920002053697ABA
:10119000653A2000496E6465783A2000204D6172FE
:1011A0006C696E3D563535290A0028454550524F29
:1011B0004D3D00454550524F4D2076657273696F25
:1011C0006E206D69736D61746368200020496E76CE
:1011D000616C6964206578747275646572200000C2
:1011E000000CC30000AAC29A99193E0000524300A5
:1011F0000052430000524342696C696E656172207F
:101200004C6576656C696E6720477269643A0A00BE
:10121000486F6D696E67206661696C65640020289F
:1012200044525952554E2900473239204175746F46
:1012300020426564204C6576656C696E67003F20CE
:10124000284C2C522C462C4229206F7574206F6636
:1012500020626F756E64732E0A003F2856296572EE
:10126000626F7365206C6576656C20697320696DAB
:10127000706C61757369626C652028302D34292E7D
:101280000A00426164205A2076616C75650A004E3E
:101290006F2062696C696E65617220677269640AA9
:1012A000004368616E67652066696C616D656E7488
:1012B0000050726F6265205A204F66667365740035
:1012C000466C6F7700466C6F7700466C6F77004610
:1012D000616E2073706565640046616E2073706591
:1012E00065640046616E20737065656400426564E4
:1012F0000042656400426564004E6F7A7A6C650056
:101300004E6F7A7A6C65004E6F7A7A6C6500466132
:1013100064652048656967687400466164652048B3
:101320006569676874004661646520486569676837
:101330007400537065656400537065656400537094
:10134000656564004D61696E005072656865617421
:1013500020504C4120456E64005072656865617490
:1013600020504C412042656400507265686561748C
:1013700020504C410050726570617265005072657A
:10138000686561742041425320456E640050726567
:101390006865617420414253204265640050726563
:1013A00068656174204142530050726570617265D6
:1013B000004D343238005072656865617420504CBD
:1013C0004100436F6F6C646F776E005072656865A3
:1013D000617420414253004368616E67652066690D
:1013E0006C616D656E740044697361626C65207335
:1013F00074657070657273004D38340053657420E5
:10140000686F6D65206F666673657473004661640E
:1014100065204865696768740046616465204865B1
:101420006967687400466164652048656967687427
:10143000004F6666004F6E2000426564204C657662
:10144000656C696E67004C6576656C20626564004A
:101450004732380A4732390043616C6962726174FD
:1014600065205A004732380A4D39313500486F6DD2
:1014700065205A00473238205A00486F6D65205960
:1014800000473238205900486F6D652058004732B8
:10149000382058004175746F20686F6D65004732C1
:1014A00038004D6F76652061786973004D61696E13
:1014B000004D6F76652058004D6F76652059004DC0
:1014C0006F7665205A004578747275646572004DB8
:1014D0006F766520302E316D6D004D6F7665203151
:1014E0006D6D004D6F76652031306D6D004D6F76FE
:1014F000652061786973004578747275646572005F
:101500004D6F7665205A004D6F76652059004D6FFE
:1015100076652058004578747275646572004D6F69
:101520007665205A004D6F76652059004D6F7665BF
:101530002058004F6666004F6E2000536F6674207F
:10154000456E6473746F707300507265706172657C
:1015500000496E697469616C697A6520454550522D
:101560004F4D00436F6E74726F6C00526573746FF1
:101570007265206661696C73616665004C6F6164B9
:101580002073657474696E677300496E697469616C
:101590006C697A6520454550524F4D0053746F7207
:1015A000652073657474696E67730046696C616D5C
:1015B000656E74004D6F74696F6E0054656D706573
:1015C000726174757265004D61696E005072656874
:1015D0006561742041425320636F6E6600507265EE
:1015E0006865617420504C4120636F6E66005049FD
:1015F000442D43005049442D43005049442D43009D
:101600005049442D44005049442D44005049442D34
:1016100049005049442D49005049442D500050493B
:10162000442D500046616E2073706565640046610C
:101630006E2073706565640046616E207370656529
:1016400064004265640042656400426564004E6F58
:101650007A7A6C65004E6F7A7A6C65004E6F7A7A92
:101660006C6500436F6E74726F6C0053746F7265BB
:101670002073657474696E67730042656400426527
:101680006400426564004E6F7A7A6C65004E6F7A32
:101690007A6C65004E6F7A7A6C650046616E2073D5
:1016A000706565640046616E207370656564004610
:1016B000616E2073706565640054656D706572615C
:1016C0007475726500436172642072656D6F766532
:1016D00064004361726420696E73657274656400AE
:1016E000021FFFFFFFFFFFFF600000000001FF403F
:1016F0000000000000FF8000000000007F83CF009A
:10170000000C303F87FF80000C301F867980000C72
:10171000000F8C30C7838C30E78C30CFC7CC31F3CF
:101720008C30DCECEC33B98C30D86C6C33198C30E9
:10173000D06C0C33198C30D86C0C33198C30DC6CB9
:101740000E3B198C30CF7C079F198C30C77C038FE0
:101750001940000000000002600000000000061FA9
:10176000FFFFFFFFFFF82020506C616E6E65724234
:10177000756666657242797465733A200020467218
:101780006565204D656D6F72793A2000436F6D700D
:10179000696C65643A204D617220333120323031FA
:1017A000390A00207C20417574686F723A20286ED7
:1017B0006F6E652C2064656661756C7420636F6E56
:1017C000666967290A00323031382D30382D3031C2
:1017D00000204C61737420557064617465643A2014
:1017E00000312E312E390A004D61726C696E002075
:1017F000536F6674776172652052657365740A0071
:10180000205761746368646F672052657365740A5A
:10181000002042726F776E206F7574205265736579
:10182000740A002045787465726E616C205265738D
:1018300065740A00506F77657255700A00737461A1
:1018400072740A006175746F25692E670065727283
:101850006F722077726974696E6720746F20666991
:101860006C650A00456E6473746F70732025632085
:10187000256320256320256300205A3A0020593A29
:101880000020583A00656E6473746F707320686945
:10189000743A2000446F6E6520736176696E67202C
:1018A00066696C652E0A004D3239004B494C4C4537
:1018B000442E200053544F505045442E2000507267
:1018C000696E7465722073746F70706564206475DE
:1018D0006520746F206572726F72732E204669786E
:1018E00020746865206572726F7220616E64207565
:1018F0007365204D39393920746F207265737461B6
:1019000072742E202854656D7065726174757265ED
:101910002069732072657365742E20536574206985
:101920007420616674657220726573746172746983
:101930006E67290A004E6F20436865636B73756D8F
:101940002077697468206C696E65206E756D6265BC
:10195000722C204C617374204C696E653A20004EE5
:101960006F20436865636B73756D207769746820B9
:101970006C696E65206E756D6265722C204C6173AA
:1019800074204C696E653A2000636865636B7375FB
:101990006D206D69736D617463682C204C61737484
:1019A000204C696E653A20004C696E65204E756D5D
:1019B000626572206973206E6F74204C61737420AD
:1019C0004C696E65204E756D6265722B312C204C12
:1019D000617374204C696E653A20004D31313000DE
:1019E0004D33310053442072656164206572726F1B
:1019F000720A00446F6E65207072696E74696E675A
:101A00002066696C650A005A0059005800092000D8
:101A10000000000000000000000000003FFFF00098
:101A2000000000000000000000000038007000000E
:101A30000000000000000000000030FC300000004A
:101A400000000000000000000020FC10000000006A
:101A500000000000000000002078100000000000DE
:101A60000000000000000020301000000000000016
:101A70000000000000002C00D03FC000000000006B
:101A800000002082002E31D07FE000000000000026
:101A9000001041002F7BD07FE0000000000000001C
:101AA0001041002F7BD07FE00000000000000020EC
:101AB00082002E31D03FC000000000000000410431
:101AC000002C00D03FC00000000000000082080091
:101AD0002030107FE000000000000000820800209D
:101AE00078107FE00000000000000041040020FCAE
:101AF000107FE00000000000000020820030FC3079
:101B00001F80000000000000000000003800700F7F
:101B10000000000000000000FFFFC03FFFF00600D3
:101B200000000000000000FFFFC0000000000000F7
:101B30000000000000000000003FFFF00000000077
:101B400000000000000000003800700000000000ED
:101B5000000000000000003186300000000000009E
:101B600000000000000023871000000000000000BB
:101B70000000000000278790000000000000000027
:101B8000000000002F87D0000000000000000000CF
:101B90000000002F03D03FC0000000000000002024
:101BA00082002030107FE0000000000000001041A3
:101BB000002078107FE000000000000000104100CD
:101BC0002078107FE000000000000000208200204C
:101BD00030103FC0000000000000004104002F034F
:101BE000D03FC0000000000000008208002F87D016
:101BF0007FE0000000000000008208002787907F3F
:101C0000E0000000000000004104002387107FE096
:101C1000000000000000002082003186301F80009C
:101C20000000000000000000003800700F000000FD
:101C30000000000000FFFFC03FFFF00600000000B2
:101C400000000000FFFFC0000000507275736120AB
:101C50006933204D4B332052656164792E005072F8
:101C6000696E74696E672E2E2E005072696E742034
:101C7000706175736564004D313235004D3234004A
:101C80005072696E742061626F72746564004E6F89
:101C90002053442063617264005072696E74206640
:101CA000726F6D2053440053746F70207072696EB0
:101CB0007400526573756D65207072696E740041B1
:101CC000626F7574205072696E7465720050617530
:101CD0007365207072696E7400436F6E74726F6CFE
:101CE00000507265706172650054756E6500496ED2
:101CF000666F2073637265656E0050726F62652057
:101D00005A204F66667365740000060900FE0701DD
:101D1000920321207FFF07FF07FF0000000600005D
:101D20000107070602008080808080008003020295
:101D3000060105A0A00507070600005050F850F85E
:101D400050500507070600002078A07028F02005F5
:101D50000707060000C0C8102040981805070706AE
:101D600000006090A040A89068020303060104C030
:101D70004080030707060100204080808040200348
:101D80000707060100804020202040800505050649
:101D9000000120A870A8200505050600012020F8F4
:101DA00020200203030602FFC04080050101060057
:101DB00003F8020202060200C0C005050506000184
:101DC0000810204080050707060000708888888872
:101DD000887003070706010040C040404040E0050E
:101DE0000707060000708808708080F8050707065E
:101DF0000000F81020100808F00507070600001082
:101E0000305090F81010050707060000F880F00821
:101E1000088870050707060000708080F0888870C9
:101E2000050707060000F8081020202020050707F6
:101E30000600007088887088887005070706000013
:101E400070888878080870020505060200C0C00086
:101E5000C0C00206060602FFC0C000C040800407E2
:101E600007060000102040804020100503030600F4
:101E700002F800F804070706010080402010204007
:101E8000800507070600007088081020002005075D
:101E90000706000070880868A8A8700507070600F4
:101EA00000708888F8888888050707060000F08891
:101EB00088F08888F0050707060000708880808019
:101EC0008870050707060000F08888888888F00574
:101ED0000707060000F88080F08080F805070706F5
:101EE0000000F88080F08080800507070600007001
:101EF0008880B8888870050707060000888888F8F9
:101F000088888801070706020080808080808080A2
:101F1000050707060000381010101090600507072D
:101F20000600008890A0C0A0908805070706000062
:101F3000808080808080F805070706000088D8A888
:101F4000888888880507070600008888C8A89888B8
:101F5000880507070600007088888888887005074C
:101F600007060000F08888F08080800507070600DB
:101F70000070888888A89068050707060000F08828
:101F800088F0A09088050707060000788080700818
:101F900008F0050707060000F82020202020200573
:101FA0000707060000888888888888700507070664
:101FB0000000888888888850200507070600008868
:101FC00088888888A8500507070600008888502060
:101FD0005088880507070600008888885020202040
:101FE000050707060000F80810204080F8030707DF
:101FF000060100E08080808080E005050506000184
:102000008040201008030707060100E02020202060
:1020100020E00503030600042050880501010600A6
:1020200000F80202020602058040050505060000D0
:1020300070087888780507070600008080B0C88897
:1020400088F0050505060000708080887005070788
:1020500006000008086898888878050505060000CD
:102060007088F880700507070600003048E040409F
:1020700040400506060600FF70888878087005074E
:10208000070600008080B0C888888801070706021C
:1020900000800080808080800308080601FF200007
:1020A00020202020A040040707060000808090A088
:1020B000C0A090030707060100C04040404040E038
:1020C000050505060000D0A8A8A8A8050505060076
:1020D00000B0C888888805050506000070888888D3
:1020E000700506060600FFF08888F0808005060669
:1020F0000600FF788888780808050505060000B006
:10210000C880808005050506000070807008F00416
:1021100007070600004040E0404040300505050646
:10212000000088888898680505050600008888886A
:1021300050200505050600008888A8A8500505055B
:1021400006000088502050880506060600FF888893
:1021500088780870050505060000F8102040F8038F
:102160000707060100204040804040200107070685
:102170000200808080808080800307070601008045
:1021800040402040408005020206000268900000A6
:1021900000060000000020002300260029002C007B
:1021A0002F003200000100000301060109010505AE
:1021B0000505070508080808020202020A0A0808BD
:1021C00004040404010101010101010103030303EB
:1021D00003030303040707070C0C0C0C0C0C0C0C7A
:1021E0000202020206060606060606060B0B0B0B8B
:1021F0000B0B0B0B07070A0A0A0A0A0A0505050456
:1022000004040808010210202008081020401020B3
:1022100040800201020108040201010204081020AA
:1022200040808040201008040201800402018040A8
:102230002010080402010804020101020408102011
:10224000408001020408102040801008040880101B
:102250002040044080102040048000000A0B020946
:102260000C0D0E0807030401000000000000000030
:10227000000000000000000000000000000000005E
:10228000000000000000121110000000000000001B
:10229000000000000000000000000000000000003E
:1022A000000000000000000000000000000000002E
:1022B0004368616E67652066696C616D656E740068
:1022C000556E6C6F61642066696C616D656E74003B
:1022D0004C6F61642066696C616D656E740050724C
:1022E000656865617420414253005072656865619C
:1022F0007420504C41004368616E67652066696CCC
:10230000616D656E74004D3234004D32332025739B
:1023100000556E6B6E6F776E20636F6D6D616E64CE
:102320003A202200496E736572742066696C616D93
:10233000656E7420616E64207072657373206275BF
:1023400074746F6E20286F72204D313038290A0066
:1023500050726F62696E67206661696C65640A001D
:1023600050726F62696E67206661696C65640020F7
:102370005A3A200020593A200042656420583A20F9
:10238000005053553A2047656E657269630050727C
:102390006F746F636F6C3A20312E30004261756448
:1023A0003A203131353230300045696E7379205230
:1023B000616D626F0042696C696E656172204C6587
:1023C00076656C696E6700457874727564657273C2
:1023D0003A203100687474703A2F2F6D61726C6905
:1023E0006E66772E6F726700507275736120693365
:1023F000204D4B3300323031382D30382D30310004
:10240000312E312E39004D61726C696E0054686551
:10241000726D6973746F727300426F6172642049E8
:102420006E666F005072696E74657220496E666FD9
:10243000004D61696E004D37303220542564004DE7
:1024400036303020423020542564004D3730322061
:102450003B2564004D3730312054256400556E6CA7
:102460006F61642066696C616D656E7400556E6C99
:102470006F61642066696C616D656E74004D373004
:1024800032004D373031004C6F61642066696C61F9
:102490006D656E74004D3630302042300043686107
:1024A0006E67652066696C616D656E74005072655B
:1024B00070617265005052494E5420504155534549
:1024C0004400554E4C4F41442046494C414D454EE9
:1024D00054004C4F41442046494C414D454E540018
:1024E0005075726765206D6F726500436F6E746919
:1024F0006E756500524553554D45204F5054494F18
:102500004E533A0020204E6F7A7A6C653A20006371
:1025100068616E6765006F66207468652066696C27
:10252000616D656E74005761697420666F72207307
:10253000746172740020204E6F7A7A6C653A2000C4
:10254000200066696C616D656E7420756E6C6F61DC
:1025500064005761697420666F720020204E6F7AA4
:102560007A6C653A20002000506C656173652077B5
:102570006169742E2E2E0048656174696E67206E45
:102580006F7A7A6C650020204E6F7A7A6C653A20FB
:1025900000200068656174206E6F7A7A6C652E0089
:1025A000507265737320627574746F6E20746F005F
:1025B00020204E6F7A7A6C653A2000746F20636F2A
:1025C0006E74696E75652E2E2E00616E64207072B9
:1025D00065737320627574746F6E00496E736572F3
:1025E000742066696C616D656E740020204E6F7A90
:1025F0007A6C653A2000200066696C616D656E74C6
:10260000206C6F6164005761697420666F720020EE
:10261000204E6F7A7A6C653A2000200066696C6102
:102620006D656E74207075726765005761697420FE
:10263000666F7200746F20726573756D6500576107
:10264000697420666F72207072696E7400205A3A45
:102650000020593A0020436F756E7420583A0020CC
:10266000453A00205A3A0020593A00583A003A00B8
:102670004361703A00205A00205900580020204D34
:1026800061783A2000205A00205900580020204D3F
:10269000696E3A20004F6E20004F666600536F66E9
:1026A0007420656E6473746F70733A200020633A0F
:1026B0000020643A0020693A0020703A00496E76A2
:1026C000616C69642065787472756465720A004B88
:1026D00064200023646566696E6520444546415563
:1026E0004C545F004B69200023646566696E652069
:1026F00044454641554C545F004B702000236465AF
:1027000066696E652044454641554C545F0050490A
:1027100044204175746F74756E652066696E6973C7
:10272000686564212050757420746865206C61733D
:1027300074204B702C204B6920616E64204B642008
:10274000636F6E7374616E74732066726F6D206256
:10275000656C6F7720696E746F20436F6E66696772
:1027600075726174696F6E2E680A00504944204189
:1027700075746F74756E65206661696C656421207F
:1027800074696D656F75740A00453120544845526F
:102790004D414C2052554E4157415900424544202D
:1027A000544845524D414C2052554E4157415900D5
:1027B000546865726D616C2052756E617761790045
:1027C00045312048656174696E67206661696C6592
:1027D00064004265642068656174696E67206661A3
:1027E000696C65640048656174696E67206661693B
:1027F0006C656400504944204175746F74756E6552
:10280000206661696C6564212054656D7065726134
:102810007475726520746F6F20686967680A00209C
:102820004B643A2000204B693A2000204B703A203C
:10283000000A20436C617373696320504944200A85
:10284000002054753A2000204B753A2000206D611D
:10285000783A2000206D696E3A200020643A20000A
:1028600020626961733A2000504944204175746FB9
:1028700074756E65206661696C65642120426164CF
:10288000206578747275646572206E756D6265720C
:102890000A00504944204175746F74756E65207349
:1028A000746172740A004F66660A004661646520AE
:1028B0004865696768742000426564204C657665E8
:1028C0006C696E6720004661696C656420746F20D6
:1028D000656E61626C6520426564204C6576656C4E
:1028E000696E670A0048617264636F6465642044BE
:1028F000656661756C742053657474696E677320C6
:102900004C6F616465640A00DC050000DC050000B2
:10291000C80000008813000000004843000048433E
:10292000000040410000F0420000F8420000F84280
:10293000CD6CD3430080CF4320204D393036003A50
:102940000A0020286D6D290020204D3931340020E7
:10295000204D36303320002055004C0046696C6114
:102960006D656E74206C6F61642F756E6C6F616441
:10297000206C656E677468733A0A0020204D393008
:1029800030204B004C696E65617220416476616E47
:1029900063653A0A0020590020580053656E736F32
:1029A000726C65737320686F6D696E6720746872EE
:1029B0006573686F6C643A0A00205430204500202B
:1029C0005A002059002058005374657070657220B9
:1029D0006472697665722063757272656E743A0A04
:1029E00000204B00204A0020204D3835322049007D
:1029F000536B657720466163746F723A200A00203A
:102A0000204D383531205A005A2D50726F626520A2
:102A10004F66667365740020440020490020204DF5
:102A2000333034205000204C00204300204400204C
:102A3000490020204D33303120500050494420734C
:102A4000657474696E67733A0A002046002042007C
:102A500020480020204D3134352053004D617465ED
:102A60007269616C20686561747570207061726153
:102A70006D65746572733A0A00205A00204A00207E
:102A8000204732392057204900205A0020204D3459
:102A900032302053004175746F20426564204C65CC
:102AA00076656C696E673A0A00205A00205900204A
:102AB000204D323036205800486F6D65206F6666B5
:102AC0007365743A0A00204A002054002053002005
:102AD000204D32303520510020453C6D61785F65D6
:102AE0005F6A65726B3E00204A3C6A756E635F6484
:102AF00065763E00416476616E6365643A20513CC0
:102B00006D696E5F7365676D656E745F74696D6521
:102B10005F75733E20533C6D696E5F6665656472D8
:102B20006174653E20543C6D696E5F7472617665B8
:102B30006C5F66656564726174653E0020540020B8
:102B4000520020204D323034205000416363656CC8
:102B500065726174696F6E2028756E6974732F7366
:102B600032293A20503C7072696E745F616363650C
:102B70006C3E20523C726574726163745F61636382
:102B8000656C3E20543C74726176656C5F61636372
:102B9000656C3E0A00204500205A00205900202084
:102BA0004D3230312058004D6178696D756D20418E
:102BB0006363656C65726174696F6E2028756E69F8
:102BC00074732F7332293A0A00204500205A0020DE
:102BD000590020204D3230332058004D6178696D06
:102BE000756D206665656472617465732028756E05
:102BF0006974732F73293A0A00204500205A002077
:102C0000590020204D3932205800537465707320CC
:102C100070657220756E69743A0A0020204D32305A
:102C2000302044300A0020204D3230302044002033
:102C300044697361626C65640A0046696C616D6524
:102C40006E742073657474696E67733A0020204D4A
:102C50003134392043203B20556E69747320696EEE
:102C60002043656C736975730A0020204732312058
:102C70002020203B004A756E6374696F6E204465A6
:102C800076004A756E6374696F6E20446576004DF8
:102C90006F74696F6E004573746570732F6D6D008E
:102CA0004573746570732F6D6D005A73746570731E
:102CB0002F6D6D005A73746570732F6D6D005973AD
:102CC000746570732F6D6D005973746570732F6D1B
:102CD0006D005873746570732F6D6D005873746553
:102CE00070732F6D6D004D6F74696F6E0053746556
:102CF00070732F6D6D004A65726B00416363656C84
:102D000065726174696F6E0056656C6F6369747982
:102D10000050726F6265205A204F666673657400BA
:102D2000436F6E74726F6C004C6F6164206D6D0048
:102D30004C6F6164206D6D004C6F6164206D6D009F
:102D4000556E6C6F6164206D6D00556E6C6F6164C3
:102D5000206D6D00556E6C6F6164206D6D0046696D
:102D60006C2E204469612E0046696C2E20446961F6
:102D70002E004F6666004F6E20004520696E206D64
:102D80006D3300416476616E6365204B004164766B
:102D9000616E6365204B00436F6E74726F6C00430D
:102DA000616E6E6F7420656E7465722073756264F7
:102DB00069723A2000022E2E004D61696E004D614D
:102DC000782054656D703A20313235004D696E209F
:102DD00054656D703A203500544265643A4550435D
:102DE0004F53203130304B004D61782054656D7069
:102DF0003A20333035004D696E2054656D703A20AD
:102E0000350054303A204154432031303447542D5A
:102E10003200627573793A2070617573656420665B
:102E20006F7220696E7075740A00627573793A204A
:102E300070617573656420666F7220757365720AC0
:102E400000627573793A2070726F63657373696E8F
:102E5000670A004B494C4C45442E20004B494C4CD2
:102E600020636175736564206279204B494C4C2066
:102E7000627574746F6E2F70696E0A004B494C4C0A
:102E800045442E20004B494C4C20636175736564AA
:102E900020627920746F6F206D75636820696E61A0
:102EA00063746976652074696D65202D2063757281
:102EB00072656E7420636F6D6D616E643A200050B0
:102EC0006C65617365207265736574005052494E7C
:102ED0005445522048414C544544005072696E7428
:102EE00065722068616C7465642E206B696C6C2857
:102EF000292063616C6C6564210A00206472697624
:102F000065722063757272656E743A2000656E7129
:102F100075657565696E6720220000000CC30000AE
:102F2000AAC29A99193E0000484200004842000097
:102F30000041000000005761726E696E673A2048D8
:102F40006F6D696E672042756D7020446976697394
:102F50006F72203C20310A000202040000000000D1
:102F6000000000000000400000AF43008093439A3F
:102F7000D95143FFFFFF00002110422063308440FD
:102F8000A550C660E770088129914AA16BB18CC138
:102F9000ADD1CEE1EFF13112100273325222B552AF
:102FA0009442F772D662399318837BB35AA3BDD388
:102FB0009CC3FFF3DEE36224433420040114E6647F
:102FC000C774A44485546AA54BB528850995EEE5D8
:102FD000CFF5ACC58DD55336722611163006D7768F
:102FE000F6669556B4465BB77AA719973887DFF728
:102FF000FEE79DD7BCC7C448E5588668A778400857
:10300000611802282338CCC9EDD98EE9AFF9488977
:1030100069990AA92BB9F55AD44AB77A966A711AEE
:10302000500A333A122AFDDBDCCBBFFB9EEB799BC7
:10303000588B3BBB1AABA66C877CE44CC55C222C3E
:10304000033C600C411CAEED8FFDECCDCDDD2AAD17
:103050000BBD688D499D977EB66ED55EF44E133ECE
:10306000322E511E700E9FFFBEEFDDDFFCCF1BBF67
:103070003AAF599F788F8891A981CAB1EBA10CD141
:103080002DC14EF16FE18010A100C230E320045049
:10309000254046706760B9839893FBA3DAB33DC3BC
:1030A0001CD37FE35EF3B1029012F322D232354299
:1030B000145277625672EAB5CBA5A89589856EF54C
:1030C0004FE52CD50DC5E234C324A01481046674E9
:1030D000476424540544DBA7FAB79987B8975FE79C
:1030E0007EF71DC73CD7D326F2369106B016576639
:1030F0007676154634564CD96DC90EF92FE9C89924
:10310000E9898AB9ABA94458654806782768C01888
:10311000E1088238A3287DCB5CDB3FEB1EFBF98BFB
:10312000D89BBBAB9ABB754A545A376A167AF10AD8
:10313000D01AB32A923A2EFD0FED6CDD4DCDAABD0B
:103140008BADE89DC98D267C076C645C454CA23C28
:10315000832CE01CC10C1FEF3EFF5DCF7CDF9BAFDB
:10316000BABFD98FF89F176E367E554E745E932E78
:10317000B23ED10EF01E4D65736820706F696E749B
:103180002063616E6E6F74206265207265736F6C70
:103190007665640A004D34323120696E636F727255
:1031A00065637420706172616D65746572207573FA
:1031B0006167650A004F666673657473206170709D
:1031C0006C696564004572723A20546F6F206661C5
:1031D000722100546F6F206661722066726F6D20DD
:1031E0007265666572656E636520706F696E740ADC
:1031F0000020595A3A200020585A3A2000536B6553
:103200007720466163746F722058593A20006D69C7
:103210006E5F736B65775F666163746F723A2020CF
:103220002D31206D61785F736B65775F66616374C4
:103230006F723A2020310A00496E736572742066FD
:10324000696C616D656E7420616E64207072657367
:103250007320627574746F6E0A0050726573732008
:10326000627574746F6E20746F2068656174206E6F
:103270006F7A7A6C650A00496E73657274206669AC
:103280006C616D656E7420616E642070726573731D
:1032900020627574746F6E20286F72204D31303843
:1032A000290A00473238205A000A486F6D696E6754
:1032B000205A2064756520746F206C6F73742073BE
:1032C000746570730A000A43616C696272617469A3
:1032D0006F6E2063757272656E743A205A000A50E0
:1032E0006C6561736520686F6D65205A206178692F
:1032F000732066697273740A00486F6D65202573C8
:103300002573257320666972737400206669727371
:10331000740A005A0059005800486F6D6520005328
:10332000442063617264206F6B0A006F70656E5297
:103330006F6F74206661696C65640A00766F6C75E6
:103340006D652E696E6974206661696C65640A003A
:10335000534420696E6974206661696C0A00577273
:103360006974696E6720746F2066696C653A200025
:103370006F70656E206661696C65642C2046696CAF
:10338000653A20006F70656E206661696C65642C1B
:103390002046696C653A200046696C652073656C4F
:1033A00065637465640A002053697A653A200046B3
:1033B000696C65206F70656E65643A2000206669EF
:1033C0006C653A2000646F696E67006672657368A9
:1033D000004E6F772000454E4420535542524F55C2
:1033E00054494E450A002220706F730022207061FC
:1033F00072656E743A2200535542524F5554494EED
:10340000452043414C4C207461726765743A220038
:103410004B494C4C45442E2000747279696E6720EC
:10342000746F2063616C6C207375622D67636F64C9
:10343000652066696C6573207769746820746F6FA6
:10344000206D616E79206C6576656C732E204D4120
:1034500058206C6576656C2069733A004572726F0E
:10346000723A006F70656E206661696C65642C202D
:1034700046696C653A200000060900FE0000000065
:103480000001090008FE000005080806000040F0E1
:10349000C88888987810050808060000C0F8888851
:1034A000888888F80505050600012030F8302005D9
:1034B00008080600002070F820202020E0050909F7
:1034C0000600FF2070A8A8B88888702005090906A2
:1034D00000FFE080C0B0A8283028280509090600B0
:1034E000FFF8A88888888888A8F8050A0A0600FED8
:1034F000205050505088A8A888700303030600038A
:1035000040A04008FFFFFFFFFF0001010101016231
:1035100065640A002C2073797374656D2073746F71
:103520007070656421204865617465725F49443A32
:1035300020004265642068656174696E6720666179
:10354000696C65640048656174696E6720666169CD
:103550006C65640045312048656174696E6720665A
:1035600061696C65640048656174696E67206661B5
:10357000696C65640070012C0190012701B0012283
:1035800001C0011D01F00118011002130130020EEB
:10359000016002090190020401C002FF000003FA69
:1035A000004003F5008003F000D003EB002004E6A8
:1035B000007004E100E004DC004005D700C005D243
:1035C000004006CD00D006C8008007C3003008BE0A
:1035D00000F008B900C009B400B00AAF00B00BAAEF
:1035E00000D00CA500000EA000500F9B00C010964C
:1035F000005012910000148C00C0158700B0178293
:1036000000B0197D00D01B7800001E730040206EB2
:103610000090226900F024640040275F0090295A3E
:1036200000E02B5500102E500020304B0010324689
:1036300000E033410090353C0010373700703832DD
:1036400000A0392D00B03A2800A03B2300603C1EAA
:1036500000103D1900903D1400103E0F00703E0A0E
:1036600000C03E0500003F0000403FFBFF803FF6EA
:10367000FFC03FF1FF453120544845524D414C2099
:1036800052554E41574159004245442054484552F5
:103690004D414C2052554E41574159005468657276
:1036A0006D616C2052756E617761790045312045FE
:1036B00072723A204D415854454D50004572723A4D
:1036C000204D415854454D5020424544004D4158ED
:1036D00054454D5020747269676765726564004592
:1036E00031204572723A204D494E54454D500045A7
:1036F00072723A204D494E54454D50204245440087
:103700004D494E54454D5020747269676765726526
:1037100064004D383420582059205A2045001000AC
:10372000C90210012C014001220170011801B001F1
:103730000E01F00104015002FA00B002F000300363
:10374000E600D003DC009004D2007005C800A0069B
:10375000BE000008B400B009AA00D00BA000600EA3
:10376000960060118C000015820020197800C01DA1
:103770006E00A0226400B0275A00902C5000003147
:103780004600E0343C0010383200903A2800603C9B
:103790001E00A03D1400803E0A00203F000045347A
:1037A000004533004532004531004530005A3200B3
:1037B0005932005832005A0059005800202F00207A
:1037C00042403A0020403A0025753A2530327500D3
:1037D000253032753A253032750025756420253044
:1037E00032753A2530327500BA37B837B637B33745
:1037F000B037AD37AA37A737A437A1379E377472D1
:1038000075650066616C7365002074656D70657226
:103810006174757265207072657761726E20747262
:10382000696767657265643A200020707265776128
:10383000726E20666C616720636C65617265640AF4
:103840000020686F6D696E672073656E73697469B7
:10385000766974793A20002063757272656E7420FF
:1038600064656372656173656420746F20006D41E7
:10387000290A0020647269766572206F7665727419
:10388000656D7065726174757265207761726E69BD
:103890006E67212028003A20004472697665722004
:1038A0006572726F720073686F727420746F206734
:1038B000726F756E642028636F696C2042290A005C
:1038C00073686F727420746F2067726F756E6420F6
:1038D00028636F696C2041290A006F7665727465F0
:1038E0006D70657261747572650A00206472697624
:1038F0006572206572726F722064657465637465A9
:10390000643A0A0043616E6E6F74206F70656E20BA
:1039100073756264697220006563686F3A0052656E
:1039200073656E643A20006F6B0020746F6F206CBB
:103930006F6E6720657874727573696F6E20707230
:103940006576656E7465640A0020636F6C6420653B
:103950007874727573696F6E2070726576656E74B7
:1039600065640A00486F74656E6420746F6F20632D
:103970006F6C640A004D3630303A20546F6F20630C
:103980006F6C6400486F74656E6420746F6F2063A1
:103990006F6C640A0046696C652064656C657465CB
:1039A000643A0044656C6574696F6E206661696C89
:1039B00065642C2046696C653A200050726F74650E
:1039C000637465642050696E0A0020573A004520F0
:1039D000436F6F6C696E672E2E2E0045204865611F
:1039E00074696E672E2E2E0020573A0042656420BF
:1039F000636F6F6C696E672E2E2E004265642068BF
:103A0000656174696E672E2E2E00565472617620A1
:103A10006D696E005654726176206D696E00565461
:103A2000726176206D696E00566D696E00566D6923
:103A30006E00566D696E00566D6178204500566DBA
:103A40006178204500566D6178204500566D61789B
:103A5000205A00566D6178205A00566D6178205AC0
:103A600000566D6178205900566D617820590056D6
:103A70006D6178205900566D6178205800566D614F
:103A800078205800566D61782058004D6F74696F2A
:103A90006E00416D6178204500416D6178204500E0
:103AA000416D6178205A00416D6178205A00416D66
:103AB0006178205900416D6178205900416D61782D
:103AC000205800416D6178205800412D7472617654
:103AD000656C00412D74726176656C00412D7265D4
:103AE000747261637400412D726574726163740055
:103AF000416363656C00416363656C004D6F74697D
:103B00006F6E00FFFDFCFAF8F6F4F2F0EEECEAE975
:103B1000E7E5E3E1E0DEDCDAD9D7D5D4D2D0CFCD0A
:103B2000CBCAC8C7C5C3C2C0BFBDBCBAB9B7B6B49B
:103B3000B3B2B0AFADACAAA9A8A6A5A4A2A1A09EFD
:103B40009D9C9A99989795949392908F8E8D8B8A3D
:103B50008988878684838281807F7E7D7B7A79785D
:103B600077767574737271706F6E6D6C6B6A69685D
:103B700067666564636261605F5E5D5C5B5A59584D
:103B8000585756555453525150504F4E4D4C4B4A26
:103B90004A4948474646454443424241403F3E3EEB
:103BA0003D3C3B3B3A3938383736353534333232A1
:103BB0003130302F2E2E2D2C2B2B2A292928272748
:103BC00026252524232322212120201F1E1E1D1CE3
:103BD0001C1B1B1A19191818171616151514131370
:103BE00012121111100F0F0E0E0D0D0C0C0B0A0AF4
:103BF000090908080707060605050404030302026D
:103C0000010000545249474745524544006F7065D2
:103C10006E003A20007A5F6D696E00795F6D696EA3
:103C200000785F6D696E005265706F7274696E67BF
:103C300020656E6473746F70207374617475730A99
:103C400000000000010000000100008000555555F3
:103C5000000000400033333300AAAA2A004992240E
:103C60000000002000C7711C0099991900D1451768
:103C700000555515003BB1130024491200111111D4
:103C800000000010000F0F0F00E3380E0043790D05
:103C900000CCCC0C00C3300C00E8A20B0064210B5C
:103CA00000AAAA0A00703D0A009DD80900427B09BB
:103CB0000092240900DCD30800888808001042081C
:103CC0000000000800F0C107008787070075500753
:103CD00000711C07003EEB0600A1BC0600699006BF
:103CE0000066660600703E06006118060017F405BF
:103CF0000074D105005BB00500B29005006272054A
:103D0000005555050078390500B81E050005050564
:103D1000004EEC040087D40400A1BD040090A70469
:103D20000049920400C17D0400EE690400C75604F6
:103D300000444404005C32040008210400411004E3
:103D400000000004003FF00300F8E0030026D20367
:103D500000C3C30300CCB503003AA803000A9B03C9
:103D600000388E0300C08103009F750300D06903F3
:103D700000505E03001D53030034480300913D03CF
:103D8000003333030016290300381F03009715037F
:103D900000300C0300030303000BFA020049F10298
:103DA00000BAE802005CE002002DD802002DD0022B
:103DB0000059C80200B0C0020031B90200DAB102F5
:103DC00000AAAA0200A0A30200BC9C0200FA95026D
:103DD000005C8F0200DF88020082820200457C02C4
:103DE000002776020027700200436A02007C64020A
:103DF00000D05E02003F590200C8530200000021BB
:103E000000240027002A002D0030003300010100AB
:103E100000040107010A0100002200250028002BF0
:103E2000002E003100340002010000050108010BE2
:103E300001004E01140111241FBECFEFD1E2DEBFFD
:103E4000CDBF00E00CBF13E0A0E0B2E0EEE7F1E987
:103E500002E00BBF02C007900D92A439B107D9F759
:103E600029E1A4E9B3E001C01D92A13FB207E1F747
:103E70001FE1CAE1DFE100E006C021970109802FC0
:103E8000FE010F941648C931D10780E00807A9F751
:103E90000F9484340D94AE480C9400002F923F92FE
:103EA0004F925F926F927F928F929F92AF92BF924A
:103EB000CF92DF92EF92FF920F931F93CF93DF93F6
:103EC000CDB7DEB7CB56D1090FB6F894DEBF0FBE23
:103ED000CDBF91E090936807809145128D3411F425
:103EE0000C942328843511F40C947D36873411F01A
:103EF0000C94C93620904312309044122CE12216C3
:103F0000310409F464C6C4F444E02416310444F4D2
:103F100052E025163104ECF537FE34C00C941F280E
:103F200084E02816310409F4E3C59BE12916310425
:103F300009F41DC60C941F28AAE22A16310409F4BC
:103F400024C764F4EDE12E16310409F445C6FEE100
:103F50002F16310409F444C60C941F282BE52216B1
:103F6000310409F4EAC73CE52316310409F4E9C732
:103F70004AE52416310411F00C941F28109298037E
:103F80000C94CB3680915C0281110C94D0360C9449
:103F9000CB3680915C02882311F40C94CB360E94BE
:103FA000BC6C82E50E94A29A882309F44CC10E944D
:103FB000269A4B015C0120E030E0A9010F948E436A
:103FC000882309F470C180917B0790917C07A091B0
:103FD0007D07B0917E0788AF99AFAAAFBBAF2091A4
:103FE0007F073091800740918107509182072CAF65
:103FF0003DAF4EAF5FAF80913C0790913D07A091E0
:104000003E07B0913F072C968CAF9DAFAEAFBFAFD0
:104010002C972091400730914107409142075091E1
:10402000430728962CAF3DAF4EAF5FAF28979C015A
:10403000AD0168AD79AD8AAD9BAD0F948E43811112
:104040000FC028962CAD3DAD4EAD5FAD28976CAD41
:104050007DAD8EAD9FAD0F948E43882309F423C1AF
:1040600011E032E02316310409F010E020E030E0E6
:10407000A901C501B4010F948E43881F8827881FAA
:10408000181759F080E090E0A0E8BFEB64968CAF81
:104090009DAFAEAFBFAF64970AC020E030E040E80C
:1040A0005FE364962CAF3DAF4EAF5FAF649728AD32
:1040B00039AD4AAD5BAD2C966CAD7DAD8EAD9FAD8F
:1040C0002C970F940A4560966CAF7DAF8EAF9FAF73
:1040D00060972CAD3DAD4EAD5FAD28966CAD7DAD1E
:1040E0008EAD9FAD28970F940A456B017C016096B9
:1040F0002CAD3DAD4EAD5FAD6097CA01B9010F94D7
:10410000F3432B013C01A7019601C701B6010F94AF
:10411000F3439B01AC01C301B2010F940B450F9413
:10412000764724966CAF7DAF8EAF9FAF249720E08B
:1041300030E040E05FE30F94F3432B013C01A50125
:104140009401C501B4010F94F3434B015C01A30139
:104150009201C301B2010F94F3439B01AC01C5016D
:10416000B4010F940A450F94764764962CAD3DAD8B
:104170004EAD5FAD64970F94F3434B015C01C701F3
:10418000B601905824962CAD3DAD4EAD5FAD249751
:104190000F94E745A50194010F94F3436B017C0153
:1041A0002C962CAD3DAD4EAD5FAD2C9768AD79AD85
:1041B0008AAD9BAD0F940B4520E030E040E05FE31B
:1041C0000F94F3439B01AC01C701B6010F940B455B
:1041D00028AD39AD4AAD5BAD0F940A456B017C014A
:1041E00028962CAD3DAD4EAD5FAD28976CAD7DAD45
:1041F0008EAD9FAD0F940B4520E030E040E05FE3D3
:104200000F94F3432B013C0124962CAD3DAD4EADF4
:104210005FAD249760966CAD7DAD8EAD9FAD609720
:104220000F94E745A50194010F94F3439B01AC0162
:10423000C301B2010F940B452CAD3DAD4EAD5FAD4A
:104240000F940A4514C089E40E94A29A882329F099
:104250000E94269A6B017C0103C0C12CD12C7601EF
:104260008AE40E94A29A882309F10E94269A2C9639
:104270006CAF7DAF8EAF9FAF2C9720E030E0A901EF
:10428000C701B6010F948E4381111FC020E030E0BA
:10429000A9012C966CAD7DAD8EAD9FAD2C970F9482
:1042A0008E43811112C0ECE5F4E30EC420E030E04F
:1042B000A901C701B6010F948E438823A1F32C9660
:1042C0001CAE1DAE1EAE1FAE2C97D701C601B05856
:1042D00088AF99AFAAAFBBAF2C962CAD3DAD4EAD1C
:1042E0005FAD2C9750582CAF3DAF4EAF5FAF9C01E8
:1042F000AD01BC01CD010F94F3434B015C012CAD2A
:104300003DAD4EAD5FADCA01B9010F94F3439B01C2
:10431000AC01C501B4010F940B450F947647A096EC
:104320006CAF7DAF8EAF9FAFA09780917B079091D0
:104330007C07A0917D07B0917E0728968CAF9DAF3A
:10434000AEAFBFAF2897A7019601BC01CD010F9476
:104350000B4564966CAF7DAF8EAF9FAF6497209195
:104360007F073091800740918107509182076096C6
:104370002CAF3DAF4EAF5FAF60972C962CAD3DADEF
:104380004EAD5FAD2C9760966CAD7DAD8EAD9FADA3
:1043900060970F940B45A4966CAF7DAF8EAF9FAF27
:1043A000A49780913C0790913D07A0913E07B09162
:1043B0003F0768968CAF9DAFAEAFBFAF689764966E
:1043C0002CAD3DAD4EAD5FAD6497BC01CD010F94FA
:1043D0000A456B017C0120914007309141074091D3
:1043E0004207509143076C962CAF3DAF4EAF5FAF85
:1043F0006C97A4962CAD3DAD4EAD5FADA4976C9679
:104400006CAD7DAD8EAD9FAD6C970F940A454B01A1
:104410005C018091830790918407A0918507B091FA
:104420008607A8968CAF9DAFAEAFBFAFA8979C0193
:10443000AD016091440770914507809146079091C6
:1044400047070F940A4524966CAF7DAF8EAF9FAFA0
:104450002497A701960168AD79AD8AAD9BAD0F9405
:10446000F3432B013C01A50194016CAD7DAD8EADF4
:104470009FAD0F94F3439B01AC01C301B2010F94B4
:104480000B452B013C01A501940168AD79AD8AADC6
:104490009BAD0F94F3434B015C01A70196016CADFA
:1044A0007DAD8EAD9FAD0F94F3439B01AC01C50173
:1044B000B4010F940A45A30192010F947E456B014C
:1044C0007C0120E030E0A9010F948E4387FF0AC0F1
:1044D0002BED3FE049EC50E4C701B6010F940B45CA
:1044E0006B017C0192E02916310451F42BED3FE081
:1044F00049EC50E4C701B6010F940A456B017C01F9
:1045000020E030E0A901C701B6010F948E4381116C
:1045100028C068962CAD3DAD4EAD5FAD689728962E
:104520006CAD7DAD8EAD9FAD28970F948E438111FC
:1045300018C06C962CAD3DAD4EAD5FAD6C976096DE
:104540006CAD7DAD8EAD9FAD60970F948E438111A4
:1045500008C00BEDC02E0FE0D02E09ECE02E00E4D9
:10456000F02EA7019601A0966CAD7DAD8EAD9FADEE
:10457000A0970F94F3434B015C0120E030E0A901C8
:1045800024966CAD7DAD8EAD9FAD24970F948E4378
:104590008823E9F0A5019401C501B4010F94F34308
:1045A0004B015C0124962CAD3DAD4EAD5FAD249723
:1045B000CA01B9010F94F3439B01AC01C501B401D9
:1045C0000F940B450F9476474B015C010DC020E022
:1045D00030E0A901C501B4010F94314787FF04C041
:1045E000B7FAB094B7F8B0942FE632E143E85AE353
:1045F000C501B4010F948E4387FF02C00C94CB36E3
:10460000C501B4010F9480460F9454462E967FAF97
:104610006EAF2E97DB01AB2B31F4E1E0F0E02E968C
:10462000FFAFEEAF2E9740908707509088076090BD
:10463000890770908A072E962EAD3FAD2E97B9014F
:1046400080E090E00F9492434B015C019B01AC0130
:10465000C701B6010F94E74528966CAF7DAF8EAFCA
:104660009FAF2897A501940124966CAD7DAD8EADCA
:104670009FAD24970F94E745A0966CAF7DAF8EAFAA
:104680009FAFA097A30192016091480770914907DD
:1046900080914A0790914B070F940A45A501940118
:1046A0000F94E745AC966CAF7DAF8EAF9FAFAC97E4
:1046B00028962CAD3DAD4EAD5FAD2897CA01B9012E
:1046C0000F94F34320E030E040E05FE30F94F343C6
:1046D0009B01AC0160E070E080E89FE30F940A4525
:1046E00068966CAF7DAF8EAF9FAF6897A8968CAD84
:1046F0009DADAEADBFADA89789879A87AB87BC87C4
:104700004D865E866F86788A6091130270911402DE
:10471000072E000C880B990B0F94944320915202A2
:104720003091530240915402509155020F94F3433B
:104730002AE037ED43E25CE30F94F3436CAB7DABCF
:104740008EAB9FAB0F94782E9B01AC0128533F4F4B
:104750004F4F5F4F6C962CAF3DAF4EAF5FAF6C9736
:1047600048AC59AC6AAC7BAC22242394312C39E19F
:1047700021963FAF21972E964EAD5FAD2E974215F5
:10478000530509F44DC10E94BEFB0F94782EDC0145
:10479000CB016C962CAD3DAD4EAD5FAD6C97821BE1
:1047A000930BA40BB50BB7FD11C00F94782E9B0192
:1047B000AC0128533F4F4F4F5F4F6C962CAF3DAF2E
:1047C0004EAF5FAF6C9780E00E94B2DE21963FADA6
:1047D0002197315021963FAF2197332309F445C0EB
:1047E0002CAD3DAD4EAD5FAD68966CAD7DAD8EAD83
:1047F0009FAD68970F94F3436B017C019201A30175
:1048000028966CAD7DAD8EAD9FAD28970F94F34388
:10481000A70196010F940B457B018C019201A30126
:1048200068966CAD7DAD8EAD9FAD68970F94F343E8
:104830004B015C012CAD3DAD4EAD5FAD28966CAD2E
:104840007DAD8EAD9FAD28970F94F3439B01AC01D6
:10485000C501B4010F940A452B013C01C701D801E1
:104860008CAF9DAFAEAFBFAF55C0B10180E090E05F
:104870000F94924328962CAD3DAD4EAD5FAD289779
:104880000F94F3434B015C010F94E4456B017C01F1
:10489000C501B4010F946C474B015C01A70196015F
:1048A00068AD79AD8AAD9BAD0F94F3432B013C010C
:1048B0002C962CAD3DAD4EAD5FAD2C97C501B4012E
:1048C0000F94F343A30192010F940B452B013C017C
:1048D000A501940168AD79AD8AAD9BAD0F94F3430A
:1048E0004B015C012C962CAD3DAD4EAD5FAD2C97D0
:1048F000C701B6010F94F3439B01AC01C501B4019C
:104900000F940A456CAF7DAF8EAF9FAF49E1219602
:104910004FAF21979201A30164966CAD7DAD8EAD32
:104920009FAD64970F940B4569837A838B839C8337
:104930002CAD3DAD4EAD5FADA4966CAD7DAD8EADF5
:104940009FADA4970F940B456D837E838F839887CB
:10495000A0962CAD3DAD4EAD5FADA09769857A8533
:104960008B859C850F940B4569877A878B879C87FD
:10497000AC962CAD3DAD4EAD5FADAC976D857E85F3
:104980008F8598890F940B456D877E878F87988BCD
:1049900080912D02882321F0CE0101960E94AADB8E
:1049A000E09069071CA61DA61EA61FA689819A81F4
:1049B000AB81BC8188A399A3AAA3BBA38D819E814F
:1049C000AF81B8858CA39DA3AEA3BFA389859A852B
:1049D000AB85BC8588A799A7AAA7BBA7AE01485DF0
:1049E0005F4FBE016C5D7F4FCE0180960F94A02972
:1049F000CE018C966C018E010C5C1F4F9E01235FD3
:104A00003F4FAE01485D5F4FBE016C5D7F4F0C971D
:104A10000E941243882321F09FEF291A390AABCE56
:104A2000E090690718AA19AA1AAA1BAA80913C0744
:104A300090913D07A0913E07B0913F0788A399A3AD
:104A4000AAA3BBA38091400790914107A091420780
:104A5000B09143078CA39DA3AEA3BFA3809144074D
:104A600090914507A0914607B091470788A799A75D
:104A7000AAA7BBA7AE01485D5F4FBE016C5D7F4F2B
:104A8000CE0180960F94A029DE01D0966D018E0193
:104A90000C5C1F4F28E437E0AE01485D5F4FBE015C
:104AA0006C5D7F4FCE0180960E94124380E1ECE363
:104AB000F7E0ABE7B7E001900D928A95E1F70C942F
:104AC000CB360E94C89AF80184918F010F5F1F4F67
:104AD0008111F7CFE3E0F4E084918F010F5F1F4F66
:104AE000882311F40C94CB360E94C89AF801F4CFB5
:104AF00080E50E94A29A882329F00E94E6996B0122
:104B00007C0103C0C12CD12C760183E50E94A29ABE
:104B1000882361F00E94269A20E030E04AE754E4BE
:104B20000F94F3430F9454466B017C010E94095586
:104B30008091F608811105C060E089E194E00E944F
:104B400000900F94782EC60ED71EE81EF91E0F9403
:104B5000782EDC01CB018C199D09AE09BF09B7FD88
:104B600002C00C94CB3680E00E94B2DEF0CF0E94EF
:104B7000A5EB81110C94CB3680E090E0A2E0B3EC81
:104B800089839A83AB83BC8380E090E0A8E4B3E49C
:104B90008D839E83AF83B88780E090E0A0EAB1E484
:104BA00089879A87AB87BC8780E50E94A29A882371
:104BB00019F00E94F69901C060E068A3BE016F5F22
:104BC0007F4FCE0180960F94E42A0C94CB3680E080
:104BD0000E948C710C94CB360E94ED720C94CB36F3
:104BE000C0907B07D0907C07E0907D07F0907E0717
:104BF00088E50E94A29A811109C020E030E04CE0D3
:104C000052E4C701B6010F940B4502C00E94269AD8
:104C100068A379A38AA39BA3C0907F07D090800745
:104C2000E0908107F090820789E50E94A29A8111A5
:104C300009C020E030E040EA51E4C701B6010F941A
:104C40000A4502C00E94269A9B01AC0169837A83BF
:104C50008B839C8368A179A18AA19BA10E949CDD82
:104C6000882311F40C94CB3680E00E94176F0E94C9
:104C70005F7085E40E94A29A882321F00E94179A0F
:104C8000182F04C085E40E94599A11E086E50E941D
:104C9000A29A882321F00E94F699262F01C021E0D4
:104CA000412FBE016F5F7F4FCE0180960E9497B06B
:104CB0006B017C019B01AC010F94B74781115FC070
:104CC00088A099A0AAA0BBA020E030E0A901C5015E
:104CD000B4010F948E4387FF05C027E137EB41E510
:104CE00058EB04C027E137EB41E558E3C501B401B7
:104CF0000F940B45AB01BC018CE294E00F94712240
:104D000089809A80AB80BC8020E030E0A901C50199
:104D1000B4010F948E4387FF05C027E137EB41E5CF
:104D200058EB04C027E137EB41E558E3C501B40176
:104D30000F940B45AB01BC0187E294E00F94712204
:104D400020E030E0A901C701B6010F948E4387FF30
:104D500005C027E137EB41E558EB04C027E137EB0D
:104D600041E558E3C701B6010F940B45AB01BC0107
:104D700082E294E00F9471228AE00E94C89A0E9415
:104D800046700E9494C60C94CB3680915C028823B6
:104D900011F40C94CB3689E40E94A29A082F882340
:104DA00021F00E94F699E62E01C0E12C8AE40E94CF
:104DB000A29A182F882321F00E94F699F62E01C09E
:104DC000F12C002319F0B2E0BE1528F0112389F070
:104DD000E2E0EF1570F4E4E3F4E084918F010F5FFB
:104DE0001F4F882311F40C94CB360E94C89AF80107
:104DF000F4CF0E94B49A0023F1F02091180430916E
:104E000019044E2D4203B001439F700D112480916F
:104E10000D0490910E04680F791F072E000C880B6B
:104E2000990B0F94944360933C0770933D078093D4
:104E30003E0790933F071123F1F020911A0430911F
:104E40001B045F2D5203B001539F700D11248091FC
:104E50000F0490911004680F791F072E000C880B27
:104E6000990B0F949443609340077093410780938C
:104E700042079093430780E50E94A29A8823E9F0B5
:104E80000E94179A8823A9F10023D9F020E030E08E
:104E90004CE052E460913C0770913D0780913E07E1
:104EA00090913F070F940A4560933C0770933D072C
:104EB00080933E0790933F0704C080E50E94599A73
:104EC000E1CF1123B1F020E030E040EA51E46091FD
:104ED00040077091410780914207909143070F94DA
:104EE0000B4560934007709341078093420790936E
:104EF000430786E40E94A29A8823D9F00E94269A4A
:104F00006B017C0120E030E0A9010F9431471816B5
:104F100084F420E030E040E752E4C701B6010F948A
:104F2000E74560935202709353028093540290932A
:104F300055020F944B0C0C94CB36909398030C9421
:104F4000CB36FEE62F2EF2E03F2EA6EDEA2EA8E0AD
:104F5000FA2E8BE797E099AF88AFBBE6CB2EB7E090
:104F6000DB2E00E010E0D1018D911D010E94A29A7C
:104F7000882309F44BC00E94269A2B013C01133070
:104F800049F0F60120813181428153810F940A4515
:104F90002B013C01A8ADB9AD2D913D914D915C9196
:104FA000C301B2010F940A454B015C012DEB37E3BD
:104FB00046E855EB0F94314787FD0AC02DEB37E3E8
:104FC00046E855E3C501B4010F948E431816F4F476
:104FD000133051F4409287075092880760928907F6
:104FE00070928A0701E012C0A5019401F701608167
:104FF0007181828193810F940B45D7016D937D93CD
:105000008D939C931397812F0E945F771F5FB4E06D
:10501000EB0EF11CE8ADF9AD3496F9AFE8AFF4E072
:10502000CF0ED11C143009F09ECF002321F087E869
:1050300097E00E9429EB0E9494C60C94CB360E9404
:1050400003B50C94CB368091431290914412813970
:10505000910511F40C9475300CF019C1823591054D
:1050600009F4AFC60CF098C08A31910509F459C310
:10507000ECF58431910509F44CC27CF48131910541
:1050800009F4C2C22CF4029708F446C20C947A3692
:10509000429709F49DC60C947A368731910509F43C
:1050A00000C374F48531910509F4F7C2469711F0F5
:1050B0000C947A3610922A0F10922B0F0C94CB3648
:1050C0008831910509F403C3499711F00C947A369D
:1050D00010922A0F0E947FF88FE894E09093340793
:1050E000809333070E9440990C94CB36803291050F
:1050F00009F4C1C30CF58D31910511F40C94CB3634
:1051000094F48B31910509F41AC34C9711F00C9467
:105110007A3640E060E080914112909142120E9404
:1051200091EF0C94CB368E31910509F4A0C34F97C3
:1051300009F4EDC30C947A368C34910509F4D1C48A
:105140006CF48A32910509F498C48B34910511F0FE
:105150000C947A360E945DF80C94CB368D34910510
:1051600009F4C3C48135910511F00C947A360E947C
:10517000A9F80E943055109228071092270768EE70
:1051800073E080E090E00E9422AF60E081E495E06F
:105190000E9400900C94CB368F36910509F4EDC433
:1051A000BCF58936910509F474C5CCF485359105B3
:1051B00009F411C654F48335910509F405C6843504
:1051C000910509F405C60C947A368C35910509F4DD
:1051D0001BC68836910509F48CC40C947A368C363B
:1051E000910509F41DC554F48A36910509F4B9C531
:1051F0008B36910509F4D2C50C947A368D3691051B
:1052000009F489C58E36910509F4A4C40C947A3644
:105210008637910509F413C7CCF48237910509F458
:1052200067C654F48037910509F4FEC481379105AF
:1052300009F402C50C947A368337910509F466C1E6
:105240008537910509F4ECC60C947A3689379105B7
:1052500009F444C794F48737910509F43CC78837AB
:10526000910511F00C947A3681E080938904809343
:1052700088040F948B2B0C94CB368D37910509F451
:105280009DC58C38910509F44AC50C947A368A3943
:1052900021E0920709F4CCC40CF097C08D3D910534
:1052A00011F40C94AF320CF041C08B3C910509F421
:1052B000FCC7FCF48E3B910509F44FC534F48B39DF
:1052C000910509F401C50C947A36883C910509F4DE
:1052D00084C7893C910511F00C947A368EE6E82E4D
:1052E00082E0F82E09E213E199E3C92E93E1D92E69
:1052F000C4C78E3C910511F40C947A325CF48C3C5A
:10530000910509F4EDC78D3C910511F40C94E5313C
:105310000C947A36833D910511F40C949F328C3DA8
:10532000910511F40C94A2320C947A368F3241E03C
:10533000940711F40C94D23304F58C32A1E09A074F
:1053400011F40C94523364F4823E910511F40C94E0
:105350001E338232914011F40C9447330C947A3608
:105360008D32F1E09F0711F40C947B338E32914023
:1053700011F40C947E330C947A36803931E0930723
:1053800011F40C9468347CF4803351E0950711F4E7
:105390000C94D5338336914011F00C947A36ECE5B9
:1053A000F4E30C9455348139B1E09B0711F40C946B
:1053B0006B348239914011F00C947A3680E00E946F
:1053C0004B720E9494C60C94CB368E3BF2E09F0742
:1053D00011F40C9436350CF04FC0863F31E0930742
:1053E00011F40C9477342CF58C3A51E0950711F4B4
:1053F0000C949C327CF4843AB1E09B0711F40C9439
:105400007134853A914011F00C947A360E94C3E8C9
:105410000C94CB36843FF1E09F0711F40C94743464
:10542000853F914011F00C947A360E9461D10C9422
:10543000CB36883532E0930711F40C94AA346CF41F
:10544000873F51E0950711F40C947A34883F9140DE
:1054500011F40C9486340C947A368B35B2E09B07A9
:1054600011F40C94AD348D3B924011F00C947A36CB
:105470000E946DE30C94CB368F38F3E09F0711F454
:105480000C94F9351CF5843833E0930711F40C942F
:105490009E357CF4833553E0950711F40C9439352F
:1054A0008435934011F00C947A360E94A0E60C9457
:1054B000CB368A38B3E09B0711F40C94F6358B3861
:1054C000934011F40C94CB360C947A368339F3E084
:1054D0009F0711F40C9462366CF4803933E0930723
:1054E00011F40C940E368239934011F40C94113659
:1054F0000C947A36803A53E0950709F4FBC1873E55
:10550000934011F40C9465360C947A36E8E3F6E097
:105510002CC5EEE7F4E083C0A0904112B090421297
:1055200080E50E94A29A882359F00E94E6996B01B7
:105530007C0111E0672B682B692B31F410E004C06B
:1055400010E0C12CD12C760183E50E94A29A882319
:1055500011F40C94D5360E94269A20E030E04AE7F8
:1055600054E40F94F3430F9454466B017C011111E2
:105570000BC0672B682B692B39F4A114B10421F0FF
:10558000F5018081811102C010E001C011E00E948C
:105590000955112329F061E0C5010E943C9005C026
:1055A00060E083E594E00E94009083E080936807C8
:1055B00081E080936707C114D104E104F104B1F0E4
:1055C0000F94782EC60ED71EE81EF91E0F94782E63
:1055D000DC01CB018C199D09AE09BF09B7FF0EC0D4
:1055E0008091670781110C94DA3608C080916707B3
:1055F000882321F080E00E94B2DEF8CF0E9404A44C
:10560000109267070C94CB3660E086E694E00E9427
:10561000009017981698159814980C94CB3684918E
:105620008F010F5F1F4F882321F00E94C89AF80155
:10563000F6CF10920D128AE59FE00E9417DA8BE1F7
:10564000EAE5FFE0DE01159601900D928A95E1F7FB
:105650008091580F9091590F9C838B8384E393E042
:105660009A83898340E050E0BE016F5F7F4F80E006
:1056700090E00F944D07CE0101960E941DDEEFE6EB
:10568000F4E084918F010F5F1F4F882311F40C9475
:10569000CB360E94C89AF801F4CF0E9493ED0C9487
:1056A000CB36E0914112F09142128081882329F09B
:1056B000803209F410823196F8CF40E061E08091A9
:1056C0004112909142120E9491EF0C94CB3680E0EF
:1056D00090E0A8E4B2E489839A83AB83BC8318A2E8
:1056E00019A21AA21BA21CA61DA61EA61FA6809167
:1056F000550B882359F020E0AE014F5F5F4FBE018C
:10570000605E7F4FCE018C960E941CB480912B0F5F
:10571000882319F081E080932A0F0E945DF80C9491
:10572000CB3680912B0F882311F40C94CB3683E574
:105730000E94A29A81110C94DF360C94CB3683E43C
:105740000E94599A882309F450C0E1ECF4E0849156
:105750008F010F5F1F4F882321F00E94C89AF80124
:10576000F6CF80915B11811103C0E4E9F4E012C02F
:10577000BE016F5F7F4F88E591E10E94DD5F8E0182
:105780000F5F1F4FD8018D918D01882349F10E9431
:10579000C89AF8CF84918F010F5F1F4F882301F1C2
:1057A0000E94C89AF801F6CF79E1C72E75E0D72E8E
:1057B000E12CF12C20E08091FB0390E00E2C02C044
:1057C000959587950A94E2F780FD07C2BFEFEB1A23
:1057D000FB0AE2E0CE0ED11CF5E0EF16F10459F71A
:1057E0008AE00E94C89A0C94CB3680912B0F8823B4
:1057F00039F080912A0F882319F0EEE9F4E003C014
:10580000E0EBF4E028C084918F010F5F1F4F8823E5
:1058100021F00E94C89AF801F6CF609109127091A8
:105820000A1280910B1290910C124AE00E946F9D17
:105830008FE20E94C89A60910512709106128091C1
:105840000712909108124AE00E946F9D8AE00E9420
:10585000C89A0C94CB3684918F010F5F1F4F882319
:1058600011F40C94CB360E94C89AF801F4CF0F942F
:10587000041B0C94CB3680912A0F81110E9409558C
:1058800080912B0F882311F40C94CB3680E50E9475
:10589000A29A882319F00E94179A03C080E50E94FB
:1058A000599A182F482F61E080914112909142122D
:1058B0000E9491EF83E50E94A29A882381F00E94C2
:1058C000F699AB01BC014093091250930A12609300
:1058D0000B1270930C1288E591E10E94F4598091AB
:1058E0002B0F882319F081E080932A0F11110C945B
:1058F000CB3613CF809141129091421221E0209338
:10590000290F40E060E00E9491EF0C94CB360E949A
:105910000EF87B018C0120E831E541E050E00F9466
:10592000CF44C9016DE671E00F94D3474B015C0190
:10593000C801B70120E13EE040E050E00F94CF44C1
:10594000CA01B90128E130E040E050E00F94CF44B3
:10595000762E672EC62ED72EECE32E2E312C412C20
:10596000512CC801B701A20191010F94CF44F62E2A
:10597000E72ECA01B901A20191010F94CF44CB01D6
:105980008E010F5F1F4F8114910499F0EF92FF92E7
:105990007F936F936F927F92BF92AF929F928F92FD
:1059A00088EF94E09F938F931F930F930F94C842B7
:1059B00013C0A114B104B1F0EF92FF927F936F93E3
:1059C0006F927F92BF92AF9288EE94E09F938F93F5
:1059D0001F930F930F94C8420FB6F894DEBF0FBE0B
:1059E000CDBF30C0CD2879F0EF92FF927F936F93B7
:1059F0006F927F928CED94E09F938F931F930F9300
:105A00000F94C842E9CF892B69F0EF92FF927F9300
:105A10006F9384ED94E09F938F931F930F930F9454
:105A2000C842DACFEF92FF9280ED94E09F938F937C
:105A30001F930F930F94C8420F900F900F900F90E9
:105A40000F900F9060E0C8010E943C90E8E1F9E3FC
:105A500084917F019FEFE91AF90A882321F00E94BF
:105A6000C89AF701F5CFB8018CE095E00F94A72212
:105A70008AE00E94C89A0C94CB3683E50E94A29AD1
:105A8000882311F40C94CB360E94069AE82E80E508
:105A90000E94A29A882339F00E94069A182F87FF45
:105AA00003C00C94CB361DE089E40E94A29A88239F
:105AB00041F00E94179A81110C949637E3E6F7E0C3
:105AC0000BC089E40E94599AF6CF3196A7E0E039DD
:105AD000FA0711F40C94963784911813F6CF0C94AE
